{
	"contract/twitter.sol": {
		"Twitter": {
			"abi": [
				{
					"inputs": [],
					"stateMutability": "nonpayable",
					"type": "constructor"
				},
				{
					"anonymous": false,
					"inputs": [
						{
							"indexed": false,
							"internalType": "uint256",
							"name": "id",
							"type": "uint256"
						},
						{
							"indexed": false,
							"internalType": "address",
							"name": "auther",
							"type": "address"
						},
						{
							"indexed": false,
							"internalType": "string",
							"name": "content",
							"type": "string"
						},
						{
							"indexed": false,
							"internalType": "uint256",
							"name": "timestamp",
							"type": "uint256"
						}
					],
					"name": "TweetCreated",
					"type": "event"
				},
				{
					"anonymous": false,
					"inputs": [
						{
							"indexed": false,
							"internalType": "address",
							"name": "liker",
							"type": "address"
						},
						{
							"indexed": false,
							"internalType": "address",
							"name": "tweetAuthor",
							"type": "address"
						},
						{
							"indexed": false,
							"internalType": "uint256",
							"name": "tweetId",
							"type": "uint256"
						},
						{
							"indexed": false,
							"internalType": "uint256",
							"name": "newLikeCount",
							"type": "uint256"
						}
					],
					"name": "TweetLiked",
					"type": "event"
				},
				{
					"anonymous": false,
					"inputs": [
						{
							"indexed": false,
							"internalType": "address",
							"name": "unliker",
							"type": "address"
						},
						{
							"indexed": false,
							"internalType": "address",
							"name": "tweetAuthor",
							"type": "address"
						},
						{
							"indexed": false,
							"internalType": "uint256",
							"name": "tweetId",
							"type": "uint256"
						},
						{
							"indexed": false,
							"internalType": "uint256",
							"name": "newLikeCount",
							"type": "uint256"
						}
					],
					"name": "TweetUnliked",
					"type": "event"
				},
				{
					"inputs": [],
					"name": "MAX_TWEET_LENGTH",
					"outputs": [
						{
							"internalType": "uint16",
							"name": "",
							"type": "uint16"
						}
					],
					"stateMutability": "view",
					"type": "function"
				},
				{
					"inputs": [
						{
							"internalType": "uint16",
							"name": "newTweetLength",
							"type": "uint16"
						}
					],
					"name": "changeTweetLength",
					"outputs": [],
					"stateMutability": "nonpayable",
					"type": "function"
				},
				{
					"inputs": [
						{
							"internalType": "string",
							"name": "_tweet",
							"type": "string"
						}
					],
					"name": "createTweet",
					"outputs": [],
					"stateMutability": "nonpayable",
					"type": "function"
				},
				{
					"inputs": [
						{
							"internalType": "address",
							"name": "_owner",
							"type": "address"
						}
					],
					"name": "getAllTweets",
					"outputs": [
						{
							"components": [
								{
									"internalType": "uint256",
									"name": "id",
									"type": "uint256"
								},
								{
									"internalType": "address",
									"name": "author",
									"type": "address"
								},
								{
									"internalType": "string",
									"name": "content",
									"type": "string"
								},
								{
									"internalType": "uint256",
									"name": "timestamp",
									"type": "uint256"
								},
								{
									"internalType": "uint256",
									"name": "likes",
									"type": "uint256"
								}
							],
							"internalType": "struct Twitter.Tweet[]",
							"name": "",
							"type": "tuple[]"
						}
					],
					"stateMutability": "view",
					"type": "function"
				},
				{
					"inputs": [
						{
							"internalType": "uint256",
							"name": "_i",
							"type": "uint256"
						}
					],
					"name": "getTweet",
					"outputs": [
						{
							"components": [
								{
									"internalType": "uint256",
									"name": "id",
									"type": "uint256"
								},
								{
									"internalType": "address",
									"name": "author",
									"type": "address"
								},
								{
									"internalType": "string",
									"name": "content",
									"type": "string"
								},
								{
									"internalType": "uint256",
									"name": "timestamp",
									"type": "uint256"
								},
								{
									"internalType": "uint256",
									"name": "likes",
									"type": "uint256"
								}
							],
							"internalType": "struct Twitter.Tweet",
							"name": "",
							"type": "tuple"
						}
					],
					"stateMutability": "view",
					"type": "function"
				},
				{
					"inputs": [
						{
							"internalType": "address",
							"name": "author",
							"type": "address"
						},
						{
							"internalType": "uint256",
							"name": "id",
							"type": "uint256"
						}
					],
					"name": "likeTweet",
					"outputs": [],
					"stateMutability": "nonpayable",
					"type": "function"
				},
				{
					"inputs": [],
					"name": "owner",
					"outputs": [
						{
							"internalType": "address",
							"name": "",
							"type": "address"
						}
					],
					"stateMutability": "view",
					"type": "function"
				},
				{
					"inputs": [
						{
							"internalType": "address",
							"name": "",
							"type": "address"
						},
						{
							"internalType": "uint256",
							"name": "",
							"type": "uint256"
						}
					],
					"name": "tweets",
					"outputs": [
						{
							"internalType": "uint256",
							"name": "id",
							"type": "uint256"
						},
						{
							"internalType": "address",
							"name": "author",
							"type": "address"
						},
						{
							"internalType": "string",
							"name": "content",
							"type": "string"
						},
						{
							"internalType": "uint256",
							"name": "timestamp",
							"type": "uint256"
						},
						{
							"internalType": "uint256",
							"name": "likes",
							"type": "uint256"
						}
					],
					"stateMutability": "view",
					"type": "function"
				},
				{
					"inputs": [
						{
							"internalType": "address",
							"name": "author",
							"type": "address"
						},
						{
							"internalType": "uint256",
							"name": "id",
							"type": "uint256"
						}
					],
					"name": "unLikeTweet",
					"outputs": [],
					"stateMutability": "nonpayable",
					"type": "function"
				}
			],
			"devdoc": {
				"kind": "dev",
				"methods": {},
				"version": 1
			},
			"evm": {
				"assembly": "    /* \"contract/twitter.sol\":64:2306  contract Twitter{... */\n  mstore(0x40, 0x80)\n    /* \"contract/twitter.sol\":122:125  255 */\n  0xff\n    /* \"contract/twitter.sol\":89:125  uint16 public MAX_TWEET_LENGTH = 255 */\n  0x00\n  dup1\n  0x0100\n  exp\n  dup2\n  sload\n  dup2\n  0xffff\n  mul\n  not\n  and\n  swap1\n  dup4\n  0xffff\n  and\n  mul\n  or\n  swap1\n  sstore\n  pop\n    /* \"contract/twitter.sol\":665:715  constructor(){... */\n  callvalue\n  dup1\n  iszero\n  tag_1\n  jumpi\n  0x00\n  dup1\n  revert\ntag_1:\n  pop\n    /* \"contract/twitter.sol\":697:707  msg.sender */\n  caller\n    /* \"contract/twitter.sol\":689:694  owner */\n  0x02\n  0x00\n    /* \"contract/twitter.sol\":689:707  owner = msg.sender */\n  0x0100\n  exp\n  dup2\n  sload\n  dup2\n  0xffffffffffffffffffffffffffffffffffffffff\n  mul\n  not\n  and\n  swap1\n  dup4\n  0xffffffffffffffffffffffffffffffffffffffff\n  and\n  mul\n  or\n  swap1\n  sstore\n  pop\n    /* \"contract/twitter.sol\":64:2306  contract Twitter{... */\n  dataSize(sub_0)\n  dup1\n  dataOffset(sub_0)\n  0x00\n  codecopy\n  0x00\n  return\nstop\n\nsub_0: assembly {\n        /* \"contract/twitter.sol\":64:2306  contract Twitter{... */\n      mstore(0x40, 0x80)\n      callvalue\n      dup1\n      iszero\n      tag_1\n      jumpi\n      0x00\n      dup1\n      revert\n    tag_1:\n      pop\n      jumpi(tag_2, lt(calldatasize, 0x04))\n      shr(0xe0, calldataload(0x00))\n      dup1\n      0x6eb10797\n      gt\n      tag_12\n      jumpi\n      dup1\n      0x6eb10797\n      eq\n      tag_7\n      jumpi\n      dup1\n      0x7c9cd2bc\n      eq\n      tag_8\n      jumpi\n      dup1\n      0x8da5cb5b\n      eq\n      tag_9\n      jumpi\n      dup1\n      0x9ef8633f\n      eq\n      tag_10\n      jumpi\n      dup1\n      0xc3ad5ecb\n      eq\n      tag_11\n      jumpi\n      jump(tag_2)\n    tag_12:\n      dup1\n      0x05a1b4a9\n      eq\n      tag_3\n      jumpi\n      dup1\n      0x12e7ee1c\n      eq\n      tag_4\n      jumpi\n      dup1\n      0x58bfa4ab\n      eq\n      tag_5\n      jumpi\n      dup1\n      0x63378216\n      eq\n      tag_6\n      jumpi\n    tag_2:\n      0x00\n      dup1\n      revert\n        /* \"contract/twitter.sol\":309:351  mapping (address => Tweet[]) public tweets */\n    tag_3:\n      tag_13\n      0x04\n      dup1\n      calldatasize\n      sub\n      dup2\n      add\n      swap1\n      tag_14\n      swap2\n      swap1\n      tag_15\n      jump\t// in\n    tag_14:\n      tag_16\n      jump\t// in\n    tag_13:\n      mload(0x40)\n      tag_17\n      swap6\n      swap5\n      swap4\n      swap3\n      swap2\n      swap1\n      tag_18\n      jump\t// in\n    tag_17:\n      mload(0x40)\n      dup1\n      swap2\n      sub\n      swap1\n      return\n        /* \"contract/twitter.sol\":2186:2301  function getAllTweets(address _owner) public view returns(Tweet[] memory){... */\n    tag_4:\n      tag_19\n      0x04\n      dup1\n      calldatasize\n      sub\n      dup2\n      add\n      swap1\n      tag_20\n      swap2\n      swap1\n      tag_21\n      jump\t// in\n    tag_20:\n      tag_22\n      jump\t// in\n    tag_19:\n      mload(0x40)\n      tag_23\n      swap2\n      swap1\n      tag_24\n      jump\t// in\n    tag_23:\n      mload(0x40)\n      dup1\n      swap2\n      sub\n      swap1\n      return\n        /* \"contract/twitter.sol\":836:954  function changeTweetLength(uint16 newTweetLength) public onlyOwner{... */\n    tag_5:\n      tag_25\n      0x04\n      dup1\n      calldatasize\n      sub\n      dup2\n      add\n      swap1\n      tag_26\n      swap2\n      swap1\n      tag_27\n      jump\t// in\n    tag_26:\n      tag_28\n      jump\t// in\n    tag_25:\n      stop\n        /* \"contract/twitter.sol\":1498:1739  function likeTweet(address author,uint256 id) external {... */\n    tag_6:\n      tag_29\n      0x04\n      dup1\n      calldatasize\n      sub\n      dup2\n      add\n      swap1\n      tag_30\n      swap2\n      swap1\n      tag_15\n      jump\t// in\n    tag_30:\n      tag_31\n      jump\t// in\n    tag_29:\n      stop\n        /* \"contract/twitter.sol\":89:125  uint16 public MAX_TWEET_LENGTH = 255 */\n    tag_7:\n      tag_32\n      tag_33\n      jump\t// in\n    tag_32:\n      mload(0x40)\n      tag_34\n      swap2\n      swap1\n      tag_35\n      jump\t// in\n    tag_34:\n      mload(0x40)\n      dup1\n      swap2\n      sub\n      swap1\n      return\n        /* \"contract/twitter.sol\":962:1490  function createTweet(string memory _tweet) public {... */\n    tag_8:\n      tag_36\n      0x04\n      dup1\n      calldatasize\n      sub\n      dup2\n      add\n      swap1\n      tag_37\n      swap2\n      swap1\n      tag_38\n      jump\t// in\n    tag_37:\n      tag_39\n      jump\t// in\n    tag_36:\n      stop\n        /* \"contract/twitter.sol\":358:378  address public owner */\n    tag_9:\n      tag_40\n      tag_41\n      jump\t// in\n    tag_40:\n      mload(0x40)\n      tag_42\n      swap2\n      swap1\n      tag_43\n      jump\t// in\n    tag_42:\n      mload(0x40)\n      dup1\n      swap2\n      sub\n      swap1\n      return\n        /* \"contract/twitter.sol\":1745:2060  function unLikeTweet(address author,uint256 id) external  {... */\n    tag_10:\n      tag_44\n      0x04\n      dup1\n      calldatasize\n      sub\n      dup2\n      add\n      swap1\n      tag_45\n      swap2\n      swap1\n      tag_15\n      jump\t// in\n    tag_45:\n      tag_46\n      jump\t// in\n    tag_44:\n      stop\n        /* \"contract/twitter.sol\":2068:2178  function getTweet(uint _i) public view returns (Tweet memory) {... */\n    tag_11:\n      tag_47\n      0x04\n      dup1\n      calldatasize\n      sub\n      dup2\n      add\n      swap1\n      tag_48\n      swap2\n      swap1\n      tag_49\n      jump\t// in\n    tag_48:\n      tag_50\n      jump\t// in\n    tag_47:\n      mload(0x40)\n      tag_51\n      swap2\n      swap1\n      tag_52\n      jump\t// in\n    tag_51:\n      mload(0x40)\n      dup1\n      swap2\n      sub\n      swap1\n      return\n        /* \"contract/twitter.sol\":309:351  mapping (address => Tweet[]) public tweets */\n    tag_16:\n      mstore(0x20, 0x01)\n      dup2\n      0x00\n      mstore\n      keccak256(0x00, 0x40)\n      dup2\n      dup2\n      sload\n      dup2\n      lt\n      tag_53\n      jumpi\n      0x00\n      dup1\n      revert\n    tag_53:\n      swap1\n      0x00\n      mstore\n      keccak256(0x00, 0x20)\n      swap1\n      0x05\n      mul\n      add\n      0x00\n      swap2\n      pop\n      swap2\n      pop\n      pop\n      dup1\n      0x00\n      add\n      sload\n      swap1\n      dup1\n      0x01\n      add\n      0x00\n      swap1\n      sload\n      swap1\n      0x0100\n      exp\n      swap1\n      div\n      0xffffffffffffffffffffffffffffffffffffffff\n      and\n      swap1\n      dup1\n      0x02\n      add\n      dup1\n      sload\n      tag_55\n      swap1\n      tag_56\n      jump\t// in\n    tag_55:\n      dup1\n      0x1f\n      add\n      0x20\n      dup1\n      swap2\n      div\n      mul\n      0x20\n      add\n      mload(0x40)\n      swap1\n      dup2\n      add\n      0x40\n      mstore\n      dup1\n      swap3\n      swap2\n      swap1\n      dup2\n      dup2\n      mstore\n      0x20\n      add\n      dup3\n      dup1\n      sload\n      tag_57\n      swap1\n      tag_56\n      jump\t// in\n    tag_57:\n      dup1\n      iszero\n      tag_58\n      jumpi\n      dup1\n      0x1f\n      lt\n      tag_59\n      jumpi\n      0x0100\n      dup1\n      dup4\n      sload\n      div\n      mul\n      dup4\n      mstore\n      swap2\n      0x20\n      add\n      swap2\n      jump(tag_58)\n    tag_59:\n      dup3\n      add\n      swap2\n      swap1\n      0x00\n      mstore\n      keccak256(0x00, 0x20)\n      swap1\n    tag_60:\n      dup2\n      sload\n      dup2\n      mstore\n      swap1\n      0x01\n      add\n      swap1\n      0x20\n      add\n      dup1\n      dup4\n      gt\n      tag_60\n      jumpi\n      dup3\n      swap1\n      sub\n      0x1f\n      and\n      dup3\n      add\n      swap2\n    tag_58:\n      pop\n      pop\n      pop\n      pop\n      pop\n      swap1\n      dup1\n      0x03\n      add\n      sload\n      swap1\n      dup1\n      0x04\n      add\n      sload\n      swap1\n      pop\n      dup6\n      jump\t// out\n        /* \"contract/twitter.sol\":2186:2301  function getAllTweets(address _owner) public view returns(Tweet[] memory){... */\n    tag_22:\n        /* \"contract/twitter.sol\":2244:2258  Tweet[] memory */\n      0x60\n        /* \"contract/twitter.sol\":2279:2285  tweets */\n      0x01\n        /* \"contract/twitter.sol\":2279:2293  tweets[_owner] */\n      0x00\n        /* \"contract/twitter.sol\":2286:2292  _owner */\n      dup4\n        /* \"contract/twitter.sol\":2279:2293  tweets[_owner] */\n      0xffffffffffffffffffffffffffffffffffffffff\n      and\n      0xffffffffffffffffffffffffffffffffffffffff\n      and\n      dup2\n      mstore\n      0x20\n      add\n      swap1\n      dup2\n      mstore\n      0x20\n      add\n      0x00\n      keccak256\n        /* \"contract/twitter.sol\":2272:2293  return tweets[_owner] */\n      dup1\n      sload\n      dup1\n      0x20\n      mul\n      0x20\n      add\n      mload(0x40)\n      swap1\n      dup2\n      add\n      0x40\n      mstore\n      dup1\n      swap3\n      swap2\n      swap1\n      dup2\n      dup2\n      mstore\n      0x20\n      add\n      0x00\n      swap1\n    tag_62:\n      dup3\n      dup3\n      lt\n      iszero\n      tag_63\n      jumpi\n      dup4\n      dup3\n      swap1\n      0x00\n      mstore\n      keccak256(0x00, 0x20)\n      swap1\n      0x05\n      mul\n      add\n      mload(0x40)\n      dup1\n      0xa0\n      add\n      0x40\n      mstore\n      swap1\n      dup2\n      0x00\n      dup3\n      add\n      sload\n      dup2\n      mstore\n      0x20\n      add\n      0x01\n      dup3\n      add\n      0x00\n      swap1\n      sload\n      swap1\n      0x0100\n      exp\n      swap1\n      div\n      0xffffffffffffffffffffffffffffffffffffffff\n      and\n      0xffffffffffffffffffffffffffffffffffffffff\n      and\n      0xffffffffffffffffffffffffffffffffffffffff\n      and\n      dup2\n      mstore\n      0x20\n      add\n      0x02\n      dup3\n      add\n      dup1\n      sload\n      tag_65\n      swap1\n      tag_56\n      jump\t// in\n    tag_65:\n      dup1\n      0x1f\n      add\n      0x20\n      dup1\n      swap2\n      div\n      mul\n      0x20\n      add\n      mload(0x40)\n      swap1\n      dup2\n      add\n      0x40\n      mstore\n      dup1\n      swap3\n      swap2\n      swap1\n      dup2\n      dup2\n      mstore\n      0x20\n      add\n      dup3\n      dup1\n      sload\n      tag_66\n      swap1\n      tag_56\n      jump\t// in\n    tag_66:\n      dup1\n      iszero\n      tag_67\n      jumpi\n      dup1\n      0x1f\n      lt\n      tag_68\n      jumpi\n      0x0100\n      dup1\n      dup4\n      sload\n      div\n      mul\n      dup4\n      mstore\n      swap2\n      0x20\n      add\n      swap2\n      jump(tag_67)\n    tag_68:\n      dup3\n      add\n      swap2\n      swap1\n      0x00\n      mstore\n      keccak256(0x00, 0x20)\n      swap1\n    tag_69:\n      dup2\n      sload\n      dup2\n      mstore\n      swap1\n      0x01\n      add\n      swap1\n      0x20\n      add\n      dup1\n      dup4\n      gt\n      tag_69\n      jumpi\n      dup3\n      swap1\n      sub\n      0x1f\n      and\n      dup3\n      add\n      swap2\n    tag_67:\n      pop\n      pop\n      pop\n      pop\n      pop\n      dup2\n      mstore\n      0x20\n      add\n      0x03\n      dup3\n      add\n      sload\n      dup2\n      mstore\n      0x20\n      add\n      0x04\n      dup3\n      add\n      sload\n      dup2\n      mstore\n      pop\n      pop\n      dup2\n      mstore\n      0x20\n      add\n      swap1\n      0x01\n      add\n      swap1\n      jump(tag_62)\n    tag_63:\n      pop\n      pop\n      pop\n      pop\n      swap1\n      pop\n        /* \"contract/twitter.sol\":2186:2301  function getAllTweets(address _owner) public view returns(Tweet[] memory){... */\n      swap2\n      swap1\n      pop\n      jump\t// out\n        /* \"contract/twitter.sol\":836:954  function changeTweetLength(uint16 newTweetLength) public onlyOwner{... */\n    tag_28:\n        /* \"contract/twitter.sol\":776:781  owner */\n      0x02\n      0x00\n      swap1\n      sload\n      swap1\n      0x0100\n      exp\n      swap1\n      div\n      0xffffffffffffffffffffffffffffffffffffffff\n      and\n        /* \"contract/twitter.sol\":762:781  msg.sender == owner */\n      0xffffffffffffffffffffffffffffffffffffffff\n      and\n        /* \"contract/twitter.sol\":762:772  msg.sender */\n      caller\n        /* \"contract/twitter.sol\":762:781  msg.sender == owner */\n      0xffffffffffffffffffffffffffffffffffffffff\n      and\n      eq\n        /* \"contract/twitter.sol\":754:806  require(msg.sender == owner,\"YOU ARE NOT THE OWNER\") */\n      tag_71\n      jumpi\n      mload(0x40)\n      0x08c379a000000000000000000000000000000000000000000000000000000000\n      dup2\n      mstore\n      0x04\n      add\n      tag_72\n      swap1\n      tag_73\n      jump\t// in\n    tag_72:\n      mload(0x40)\n      dup1\n      swap2\n      sub\n      swap1\n      revert\n    tag_71:\n        /* \"contract/twitter.sol\":932:946  newTweetLength */\n      dup1\n        /* \"contract/twitter.sol\":913:929  MAX_TWEET_LENGTH */\n      0x00\n      dup1\n        /* \"contract/twitter.sol\":913:946  MAX_TWEET_LENGTH = newTweetLength */\n      0x0100\n      exp\n      dup2\n      sload\n      dup2\n      0xffff\n      mul\n      not\n      and\n      swap1\n      dup4\n      0xffff\n      and\n      mul\n      or\n      swap1\n      sstore\n      pop\n        /* \"contract/twitter.sol\":836:954  function changeTweetLength(uint16 newTweetLength) public onlyOwner{... */\n      pop\n      jump\t// out\n        /* \"contract/twitter.sol\":1498:1739  function likeTweet(address author,uint256 id) external {... */\n    tag_31:\n        /* \"contract/twitter.sol\":1595:1597  id */\n      dup1\n        /* \"contract/twitter.sol\":1572:1578  tweets */\n      0x01\n        /* \"contract/twitter.sol\":1572:1586  tweets[author] */\n      0x00\n        /* \"contract/twitter.sol\":1579:1585  author */\n      dup5\n        /* \"contract/twitter.sol\":1572:1586  tweets[author] */\n      0xffffffffffffffffffffffffffffffffffffffff\n      and\n      0xffffffffffffffffffffffffffffffffffffffff\n      and\n      dup2\n      mstore\n      0x20\n      add\n      swap1\n      dup2\n      mstore\n      0x20\n      add\n      0x00\n      keccak256\n        /* \"contract/twitter.sol\":1587:1589  id */\n      dup3\n        /* \"contract/twitter.sol\":1572:1590  tweets[author][id] */\n      dup2\n      sload\n      dup2\n      lt\n      tag_76\n      jumpi\n      tag_77\n      tag_78\n      jump\t// in\n    tag_77:\n    tag_76:\n      swap1\n      0x00\n      mstore\n      keccak256(0x00, 0x20)\n      swap1\n      0x05\n      mul\n      add\n        /* \"contract/twitter.sol\":1572:1593  tweets[author][id].id */\n      0x00\n      add\n      sload\n        /* \"contract/twitter.sol\":1572:1597  tweets[author][id].id==id */\n      eq\n        /* \"contract/twitter.sol\":1564:1621  require(tweets[author][id].id==id,\"TWEET DOSE NOT EXIST\") */\n      tag_80\n      jumpi\n      mload(0x40)\n      0x08c379a000000000000000000000000000000000000000000000000000000000\n      dup2\n      mstore\n      0x04\n      add\n      tag_81\n      swap1\n      tag_82\n      jump\t// in\n    tag_81:\n      mload(0x40)\n      dup1\n      swap2\n      sub\n      swap1\n      revert\n    tag_80:\n        /* \"contract/twitter.sol\":1632:1638  tweets */\n      0x01\n        /* \"contract/twitter.sol\":1632:1646  tweets[author] */\n      0x00\n        /* \"contract/twitter.sol\":1639:1645  author */\n      dup4\n        /* \"contract/twitter.sol\":1632:1646  tweets[author] */\n      0xffffffffffffffffffffffffffffffffffffffff\n      and\n      0xffffffffffffffffffffffffffffffffffffffff\n      and\n      dup2\n      mstore\n      0x20\n      add\n      swap1\n      dup2\n      mstore\n      0x20\n      add\n      0x00\n      keccak256\n        /* \"contract/twitter.sol\":1647:1649  id */\n      dup2\n        /* \"contract/twitter.sol\":1632:1650  tweets[author][id] */\n      dup2\n      sload\n      dup2\n      lt\n      tag_83\n      jumpi\n      tag_84\n      tag_78\n      jump\t// in\n    tag_84:\n    tag_83:\n      swap1\n      0x00\n      mstore\n      keccak256(0x00, 0x20)\n      swap1\n      0x05\n      mul\n      add\n        /* \"contract/twitter.sol\":1632:1656  tweets[author][id].likes */\n      0x04\n      add\n      0x00\n        /* \"contract/twitter.sol\":1632:1658  tweets[author][id].likes++ */\n      dup2\n      sload\n      dup1\n      swap3\n      swap2\n      swap1\n      tag_86\n      swap1\n      tag_87\n      jump\t// in\n    tag_86:\n      swap2\n      swap1\n      pop\n      sstore\n      pop\n        /* \"contract/twitter.sol\":1674:1731  TweetLiked(msg.sender,author,id,tweets[author][id].likes) */\n      0xe8a76fc0f16d11a00d1e93b689b63d76cf60af914dd3d915375dc41d01a0c3c8\n        /* \"contract/twitter.sol\":1685:1695  msg.sender */\n      caller\n        /* \"contract/twitter.sol\":1696:1702  author */\n      dup4\n        /* \"contract/twitter.sol\":1703:1705  id */\n      dup4\n        /* \"contract/twitter.sol\":1706:1712  tweets */\n      0x01\n        /* \"contract/twitter.sol\":1706:1720  tweets[author] */\n      0x00\n        /* \"contract/twitter.sol\":1713:1719  author */\n      dup8\n        /* \"contract/twitter.sol\":1706:1720  tweets[author] */\n      0xffffffffffffffffffffffffffffffffffffffff\n      and\n      0xffffffffffffffffffffffffffffffffffffffff\n      and\n      dup2\n      mstore\n      0x20\n      add\n      swap1\n      dup2\n      mstore\n      0x20\n      add\n      0x00\n      keccak256\n        /* \"contract/twitter.sol\":1721:1723  id */\n      dup6\n        /* \"contract/twitter.sol\":1706:1724  tweets[author][id] */\n      dup2\n      sload\n      dup2\n      lt\n      tag_88\n      jumpi\n      tag_89\n      tag_78\n      jump\t// in\n    tag_89:\n    tag_88:\n      swap1\n      0x00\n      mstore\n      keccak256(0x00, 0x20)\n      swap1\n      0x05\n      mul\n      add\n        /* \"contract/twitter.sol\":1706:1730  tweets[author][id].likes */\n      0x04\n      add\n      sload\n        /* \"contract/twitter.sol\":1674:1731  TweetLiked(msg.sender,author,id,tweets[author][id].likes) */\n      mload(0x40)\n      tag_91\n      swap5\n      swap4\n      swap3\n      swap2\n      swap1\n      tag_92\n      jump\t// in\n    tag_91:\n      mload(0x40)\n      dup1\n      swap2\n      sub\n      swap1\n      log1\n        /* \"contract/twitter.sol\":1498:1739  function likeTweet(address author,uint256 id) external {... */\n      pop\n      pop\n      jump\t// out\n        /* \"contract/twitter.sol\":89:125  uint16 public MAX_TWEET_LENGTH = 255 */\n    tag_33:\n      0x00\n      dup1\n      sload\n      swap1\n      0x0100\n      exp\n      swap1\n      div\n      0xffff\n      and\n      dup2\n      jump\t// out\n        /* \"contract/twitter.sol\":962:1490  function createTweet(string memory _tweet) public {... */\n    tag_39:\n        /* \"contract/twitter.sol\":1055:1071  MAX_TWEET_LENGTH */\n      0x00\n      dup1\n      sload\n      swap1\n      0x0100\n      exp\n      swap1\n      div\n      0xffff\n      and\n        /* \"contract/twitter.sol\":1033:1071  bytes(_tweet).length<=MAX_TWEET_LENGTH */\n      0xffff\n      and\n        /* \"contract/twitter.sol\":1039:1045  _tweet */\n      dup2\n        /* \"contract/twitter.sol\":1033:1053  bytes(_tweet).length */\n      mload\n        /* \"contract/twitter.sol\":1033:1071  bytes(_tweet).length<=MAX_TWEET_LENGTH */\n      gt\n      iszero\n        /* \"contract/twitter.sol\":1025:1101  require(bytes(_tweet).length<=MAX_TWEET_LENGTH,\"Your tweet is too long bro\") */\n      tag_94\n      jumpi\n      mload(0x40)\n      0x08c379a000000000000000000000000000000000000000000000000000000000\n      dup2\n      mstore\n      0x04\n      add\n      tag_95\n      swap1\n      tag_96\n      jump\t// in\n    tag_95:\n      mload(0x40)\n      dup1\n      swap2\n      sub\n      swap1\n      revert\n    tag_94:\n        /* \"contract/twitter.sol\":1114:1135  Tweet memory newTweet */\n      0x00\n        /* \"contract/twitter.sol\":1138:1343  Tweet({... */\n      mload(0x40)\n      dup1\n      0xa0\n      add\n      0x40\n      mstore\n      dup1\n        /* \"contract/twitter.sol\":1166:1172  tweets */\n      0x01\n        /* \"contract/twitter.sol\":1166:1184  tweets[msg.sender] */\n      0x00\n        /* \"contract/twitter.sol\":1173:1183  msg.sender */\n      caller\n        /* \"contract/twitter.sol\":1166:1184  tweets[msg.sender] */\n      0xffffffffffffffffffffffffffffffffffffffff\n      and\n      0xffffffffffffffffffffffffffffffffffffffff\n      and\n      dup2\n      mstore\n      0x20\n      add\n      swap1\n      dup2\n      mstore\n      0x20\n      add\n      0x00\n      keccak256\n        /* \"contract/twitter.sol\":1166:1191  tweets[msg.sender].length */\n      dup1\n      sload\n      swap1\n      pop\n        /* \"contract/twitter.sol\":1138:1343  Tweet({... */\n      dup2\n      mstore\n      0x20\n      add\n        /* \"contract/twitter.sol\":1218:1228  msg.sender */\n      caller\n        /* \"contract/twitter.sol\":1138:1343  Tweet({... */\n      0xffffffffffffffffffffffffffffffffffffffff\n      and\n      dup2\n      mstore\n      0x20\n      add\n        /* \"contract/twitter.sol\":1255:1261  _tweet */\n      dup4\n        /* \"contract/twitter.sol\":1138:1343  Tweet({... */\n      dup2\n      mstore\n      0x20\n      add\n        /* \"contract/twitter.sol\":1290:1305  block.timestamp */\n      timestamp\n        /* \"contract/twitter.sol\":1138:1343  Tweet({... */\n      dup2\n      mstore\n      0x20\n      add\n        /* \"contract/twitter.sol\":1330:1331  0 */\n      0x00\n        /* \"contract/twitter.sol\":1138:1343  Tweet({... */\n      dup2\n      mstore\n      pop\n        /* \"contract/twitter.sol\":1114:1343  Tweet memory newTweet = Tweet({... */\n      swap1\n      pop\n        /* \"contract/twitter.sol\":1354:1360  tweets */\n      0x01\n        /* \"contract/twitter.sol\":1354:1372  tweets[msg.sender] */\n      0x00\n        /* \"contract/twitter.sol\":1361:1371  msg.sender */\n      caller\n        /* \"contract/twitter.sol\":1354:1372  tweets[msg.sender] */\n      0xffffffffffffffffffffffffffffffffffffffff\n      and\n      0xffffffffffffffffffffffffffffffffffffffff\n      and\n      dup2\n      mstore\n      0x20\n      add\n      swap1\n      dup2\n      mstore\n      0x20\n      add\n      0x00\n      keccak256\n        /* \"contract/twitter.sol\":1378:1386  newTweet */\n      dup2\n        /* \"contract/twitter.sol\":1354:1387  tweets[msg.sender].push(newTweet) */\n      swap1\n      dup1\n      0x01\n      dup2\n      sload\n      add\n      dup1\n      dup3\n      sstore\n      dup1\n      swap2\n      pop\n      pop\n      0x01\n      swap1\n      sub\n      swap1\n      0x00\n      mstore\n      keccak256(0x00, 0x20)\n      swap1\n      0x05\n      mul\n      add\n      0x00\n      swap1\n      swap2\n      swap1\n      swap2\n      swap1\n      swap2\n      pop\n      0x00\n      dup3\n      add\n      mload\n      dup2\n      0x00\n      add\n      sstore\n      0x20\n      dup3\n      add\n      mload\n      dup2\n      0x01\n      add\n      exp(0x0100, 0x00)\n      dup2\n      sload\n      dup2\n      0xffffffffffffffffffffffffffffffffffffffff\n      mul\n      not\n      and\n      swap1\n      dup4\n      0xffffffffffffffffffffffffffffffffffffffff\n      and\n      mul\n      or\n      swap1\n      sstore\n      pop\n      0x40\n      dup3\n      add\n      mload\n      dup2\n      0x02\n      add\n      swap1\n      dup2\n      tag_98\n      swap2\n      swap1\n      tag_99\n      jump\t// in\n    tag_98:\n      pop\n      0x60\n      dup3\n      add\n      mload\n      dup2\n      0x03\n      add\n      sstore\n      0x80\n      dup3\n      add\n      mload\n      dup2\n      0x04\n      add\n      sstore\n      pop\n      pop\n        /* \"contract/twitter.sol\":1405:1482  TweetCreated(newTweet.id,newTweet.author,newTweet.content,newTweet.timestamp) */\n      0x16fd3c13e9d46923e0a8bce11c7b473ec508a72e6c96cd2404b29ce972afc29e\n        /* \"contract/twitter.sol\":1418:1426  newTweet */\n      dup2\n        /* \"contract/twitter.sol\":1418:1429  newTweet.id */\n      0x00\n      add\n      mload\n        /* \"contract/twitter.sol\":1430:1438  newTweet */\n      dup3\n        /* \"contract/twitter.sol\":1430:1445  newTweet.author */\n      0x20\n      add\n      mload\n        /* \"contract/twitter.sol\":1446:1454  newTweet */\n      dup4\n        /* \"contract/twitter.sol\":1446:1462  newTweet.content */\n      0x40\n      add\n      mload\n        /* \"contract/twitter.sol\":1463:1471  newTweet */\n      dup5\n        /* \"contract/twitter.sol\":1463:1481  newTweet.timestamp */\n      0x60\n      add\n      mload\n        /* \"contract/twitter.sol\":1405:1482  TweetCreated(newTweet.id,newTweet.author,newTweet.content,newTweet.timestamp) */\n      mload(0x40)\n      tag_100\n      swap5\n      swap4\n      swap3\n      swap2\n      swap1\n      tag_101\n      jump\t// in\n    tag_100:\n      mload(0x40)\n      dup1\n      swap2\n      sub\n      swap1\n      log1\n        /* \"contract/twitter.sol\":1012:1490  {... */\n      pop\n        /* \"contract/twitter.sol\":962:1490  function createTweet(string memory _tweet) public {... */\n      pop\n      jump\t// out\n        /* \"contract/twitter.sol\":358:378  address public owner */\n    tag_41:\n      0x02\n      0x00\n      swap1\n      sload\n      swap1\n      0x0100\n      exp\n      swap1\n      div\n      0xffffffffffffffffffffffffffffffffffffffff\n      and\n      dup2\n      jump\t// out\n        /* \"contract/twitter.sol\":1745:2060  function unLikeTweet(address author,uint256 id) external  {... */\n    tag_46:\n        /* \"contract/twitter.sol\":1845:1847  id */\n      dup1\n        /* \"contract/twitter.sol\":1822:1828  tweets */\n      0x01\n        /* \"contract/twitter.sol\":1822:1836  tweets[author] */\n      0x00\n        /* \"contract/twitter.sol\":1829:1835  author */\n      dup5\n        /* \"contract/twitter.sol\":1822:1836  tweets[author] */\n      0xffffffffffffffffffffffffffffffffffffffff\n      and\n      0xffffffffffffffffffffffffffffffffffffffff\n      and\n      dup2\n      mstore\n      0x20\n      add\n      swap1\n      dup2\n      mstore\n      0x20\n      add\n      0x00\n      keccak256\n        /* \"contract/twitter.sol\":1837:1839  id */\n      dup3\n        /* \"contract/twitter.sol\":1822:1840  tweets[author][id] */\n      dup2\n      sload\n      dup2\n      lt\n      tag_103\n      jumpi\n      tag_104\n      tag_78\n      jump\t// in\n    tag_104:\n    tag_103:\n      swap1\n      0x00\n      mstore\n      keccak256(0x00, 0x20)\n      swap1\n      0x05\n      mul\n      add\n        /* \"contract/twitter.sol\":1822:1843  tweets[author][id].id */\n      0x00\n      add\n      sload\n        /* \"contract/twitter.sol\":1822:1847  tweets[author][id].id==id */\n      eq\n        /* \"contract/twitter.sol\":1814:1871  require(tweets[author][id].id==id,\"TWEET DOSE NOT EXIST\") */\n      tag_106\n      jumpi\n      mload(0x40)\n      0x08c379a000000000000000000000000000000000000000000000000000000000\n      dup2\n      mstore\n      0x04\n      add\n      tag_107\n      swap1\n      tag_82\n      jump\t// in\n    tag_107:\n      mload(0x40)\n      dup1\n      swap2\n      sub\n      swap1\n      revert\n    tag_106:\n        /* \"contract/twitter.sol\":1915:1916  0 */\n      0x00\n        /* \"contract/twitter.sol\":1890:1896  tweets */\n      0x01\n        /* \"contract/twitter.sol\":1890:1904  tweets[author] */\n      0x00\n        /* \"contract/twitter.sol\":1897:1903  author */\n      dup5\n        /* \"contract/twitter.sol\":1890:1904  tweets[author] */\n      0xffffffffffffffffffffffffffffffffffffffff\n      and\n      0xffffffffffffffffffffffffffffffffffffffff\n      and\n      dup2\n      mstore\n      0x20\n      add\n      swap1\n      dup2\n      mstore\n      0x20\n      add\n      0x00\n      keccak256\n        /* \"contract/twitter.sol\":1905:1907  id */\n      dup3\n        /* \"contract/twitter.sol\":1890:1908  tweets[author][id] */\n      dup2\n      sload\n      dup2\n      lt\n      tag_108\n      jumpi\n      tag_109\n      tag_78\n      jump\t// in\n    tag_109:\n    tag_108:\n      swap1\n      0x00\n      mstore\n      keccak256(0x00, 0x20)\n      swap1\n      0x05\n      mul\n      add\n        /* \"contract/twitter.sol\":1890:1914  tweets[author][id].likes */\n      0x04\n      add\n      sload\n        /* \"contract/twitter.sol\":1890:1916  tweets[author][id].likes>0 */\n      gt\n        /* \"contract/twitter.sol\":1882:1938  require(tweets[author][id].likes>0,\"TWEET HAS NO LIKES\") */\n      tag_111\n      jumpi\n      mload(0x40)\n      0x08c379a000000000000000000000000000000000000000000000000000000000\n      dup2\n      mstore\n      0x04\n      add\n      tag_112\n      swap1\n      tag_113\n      jump\t// in\n    tag_112:\n      mload(0x40)\n      dup1\n      swap2\n      sub\n      swap1\n      revert\n    tag_111:\n        /* \"contract/twitter.sol\":1949:1955  tweets */\n      0x01\n        /* \"contract/twitter.sol\":1949:1963  tweets[author] */\n      0x00\n        /* \"contract/twitter.sol\":1956:1962  author */\n      dup4\n        /* \"contract/twitter.sol\":1949:1963  tweets[author] */\n      0xffffffffffffffffffffffffffffffffffffffff\n      and\n      0xffffffffffffffffffffffffffffffffffffffff\n      and\n      dup2\n      mstore\n      0x20\n      add\n      swap1\n      dup2\n      mstore\n      0x20\n      add\n      0x00\n      keccak256\n        /* \"contract/twitter.sol\":1964:1966  id */\n      dup2\n        /* \"contract/twitter.sol\":1949:1967  tweets[author][id] */\n      dup2\n      sload\n      dup2\n      lt\n      tag_114\n      jumpi\n      tag_115\n      tag_78\n      jump\t// in\n    tag_115:\n    tag_114:\n      swap1\n      0x00\n      mstore\n      keccak256(0x00, 0x20)\n      swap1\n      0x05\n      mul\n      add\n        /* \"contract/twitter.sol\":1949:1973  tweets[author][id].likes */\n      0x04\n      add\n      0x00\n        /* \"contract/twitter.sol\":1949:1975  tweets[author][id].likes-- */\n      dup2\n      sload\n      dup1\n      swap3\n      swap2\n      swap1\n      tag_117\n      swap1\n      tag_118\n      jump\t// in\n    tag_117:\n      swap2\n      swap1\n      pop\n      sstore\n      pop\n        /* \"contract/twitter.sol\":1993:2052  TweetUnliked(msg.sender,author,id,tweets[author][id].likes) */\n      0x762c2616349603ac16eba0de8e6141b79129a07ab63bd99e0a80b3a471716943\n        /* \"contract/twitter.sol\":2006:2016  msg.sender */\n      caller\n        /* \"contract/twitter.sol\":2017:2023  author */\n      dup4\n        /* \"contract/twitter.sol\":2024:2026  id */\n      dup4\n        /* \"contract/twitter.sol\":2027:2033  tweets */\n      0x01\n        /* \"contract/twitter.sol\":2027:2041  tweets[author] */\n      0x00\n        /* \"contract/twitter.sol\":2034:2040  author */\n      dup8\n        /* \"contract/twitter.sol\":2027:2041  tweets[author] */\n      0xffffffffffffffffffffffffffffffffffffffff\n      and\n      0xffffffffffffffffffffffffffffffffffffffff\n      and\n      dup2\n      mstore\n      0x20\n      add\n      swap1\n      dup2\n      mstore\n      0x20\n      add\n      0x00\n      keccak256\n        /* \"contract/twitter.sol\":2042:2044  id */\n      dup6\n        /* \"contract/twitter.sol\":2027:2045  tweets[author][id] */\n      dup2\n      sload\n      dup2\n      lt\n      tag_119\n      jumpi\n      tag_120\n      tag_78\n      jump\t// in\n    tag_120:\n    tag_119:\n      swap1\n      0x00\n      mstore\n      keccak256(0x00, 0x20)\n      swap1\n      0x05\n      mul\n      add\n        /* \"contract/twitter.sol\":2027:2051  tweets[author][id].likes */\n      0x04\n      add\n      sload\n        /* \"contract/twitter.sol\":1993:2052  TweetUnliked(msg.sender,author,id,tweets[author][id].likes) */\n      mload(0x40)\n      tag_122\n      swap5\n      swap4\n      swap3\n      swap2\n      swap1\n      tag_92\n      jump\t// in\n    tag_122:\n      mload(0x40)\n      dup1\n      swap2\n      sub\n      swap1\n      log1\n        /* \"contract/twitter.sol\":1745:2060  function unLikeTweet(address author,uint256 id) external  {... */\n      pop\n      pop\n      jump\t// out\n        /* \"contract/twitter.sol\":2068:2178  function getTweet(uint _i) public view returns (Tweet memory) {... */\n    tag_50:\n        /* \"contract/twitter.sol\":2116:2128  Tweet memory */\n      tag_123\n      tag_124\n      jump\t// in\n    tag_123:\n        /* \"contract/twitter.sol\":2148:2154  tweets */\n      0x01\n        /* \"contract/twitter.sol\":2148:2166  tweets[msg.sender] */\n      0x00\n        /* \"contract/twitter.sol\":2155:2165  msg.sender */\n      caller\n        /* \"contract/twitter.sol\":2148:2166  tweets[msg.sender] */\n      0xffffffffffffffffffffffffffffffffffffffff\n      and\n      0xffffffffffffffffffffffffffffffffffffffff\n      and\n      dup2\n      mstore\n      0x20\n      add\n      swap1\n      dup2\n      mstore\n      0x20\n      add\n      0x00\n      keccak256\n        /* \"contract/twitter.sol\":2167:2169  _i */\n      dup3\n        /* \"contract/twitter.sol\":2148:2170  tweets[msg.sender][_i] */\n      dup2\n      sload\n      dup2\n      lt\n      tag_126\n      jumpi\n      tag_127\n      tag_78\n      jump\t// in\n    tag_127:\n    tag_126:\n      swap1\n      0x00\n      mstore\n      keccak256(0x00, 0x20)\n      swap1\n      0x05\n      mul\n      add\n        /* \"contract/twitter.sol\":2141:2170  return tweets[msg.sender][_i] */\n      mload(0x40)\n      dup1\n      0xa0\n      add\n      0x40\n      mstore\n      swap1\n      dup2\n      0x00\n      dup3\n      add\n      sload\n      dup2\n      mstore\n      0x20\n      add\n      0x01\n      dup3\n      add\n      0x00\n      swap1\n      sload\n      swap1\n      0x0100\n      exp\n      swap1\n      div\n      0xffffffffffffffffffffffffffffffffffffffff\n      and\n      0xffffffffffffffffffffffffffffffffffffffff\n      and\n      0xffffffffffffffffffffffffffffffffffffffff\n      and\n      dup2\n      mstore\n      0x20\n      add\n      0x02\n      dup3\n      add\n      dup1\n      sload\n      tag_129\n      swap1\n      tag_56\n      jump\t// in\n    tag_129:\n      dup1\n      0x1f\n      add\n      0x20\n      dup1\n      swap2\n      div\n      mul\n      0x20\n      add\n      mload(0x40)\n      swap1\n      dup2\n      add\n      0x40\n      mstore\n      dup1\n      swap3\n      swap2\n      swap1\n      dup2\n      dup2\n      mstore\n      0x20\n      add\n      dup3\n      dup1\n      sload\n      tag_130\n      swap1\n      tag_56\n      jump\t// in\n    tag_130:\n      dup1\n      iszero\n      tag_131\n      jumpi\n      dup1\n      0x1f\n      lt\n      tag_132\n      jumpi\n      0x0100\n      dup1\n      dup4\n      sload\n      div\n      mul\n      dup4\n      mstore\n      swap2\n      0x20\n      add\n      swap2\n      jump(tag_131)\n    tag_132:\n      dup3\n      add\n      swap2\n      swap1\n      0x00\n      mstore\n      keccak256(0x00, 0x20)\n      swap1\n    tag_133:\n      dup2\n      sload\n      dup2\n      mstore\n      swap1\n      0x01\n      add\n      swap1\n      0x20\n      add\n      dup1\n      dup4\n      gt\n      tag_133\n      jumpi\n      dup3\n      swap1\n      sub\n      0x1f\n      and\n      dup3\n      add\n      swap2\n    tag_131:\n      pop\n      pop\n      pop\n      pop\n      pop\n      dup2\n      mstore\n      0x20\n      add\n      0x03\n      dup3\n      add\n      sload\n      dup2\n      mstore\n      0x20\n      add\n      0x04\n      dup3\n      add\n      sload\n      dup2\n      mstore\n      pop\n      pop\n      swap1\n      pop\n        /* \"contract/twitter.sol\":2068:2178  function getTweet(uint _i) public view returns (Tweet memory) {... */\n      swap2\n      swap1\n      pop\n      jump\t// out\n    tag_124:\n      mload(0x40)\n      dup1\n      0xa0\n      add\n      0x40\n      mstore\n      dup1\n      0x00\n      dup2\n      mstore\n      0x20\n      add\n      and(0xffffffffffffffffffffffffffffffffffffffff, 0x00)\n      dup2\n      mstore\n      0x20\n      add\n      0x60\n      dup2\n      mstore\n      0x20\n      add\n      0x00\n      dup2\n      mstore\n      0x20\n      add\n      0x00\n      dup2\n      mstore\n      pop\n      swap1\n      jump\t// out\n        /* \"#utility.yul\":7:82   */\n    tag_134:\n        /* \"#utility.yul\":40:46   */\n      0x00\n        /* \"#utility.yul\":73:75   */\n      0x40\n        /* \"#utility.yul\":67:76   */\n      mload\n        /* \"#utility.yul\":57:76   */\n      swap1\n      pop\n        /* \"#utility.yul\":7:82   */\n      swap1\n      jump\t// out\n        /* \"#utility.yul\":88:205   */\n    tag_135:\n        /* \"#utility.yul\":197:198   */\n      0x00\n        /* \"#utility.yul\":194:195   */\n      dup1\n        /* \"#utility.yul\":187:199   */\n      revert\n        /* \"#utility.yul\":211:328   */\n    tag_136:\n        /* \"#utility.yul\":320:321   */\n      0x00\n        /* \"#utility.yul\":317:318   */\n      dup1\n        /* \"#utility.yul\":310:322   */\n      revert\n        /* \"#utility.yul\":334:460   */\n    tag_137:\n        /* \"#utility.yul\":371:378   */\n      0x00\n        /* \"#utility.yul\":411:453   */\n      0xffffffffffffffffffffffffffffffffffffffff\n        /* \"#utility.yul\":404:409   */\n      dup3\n        /* \"#utility.yul\":400:454   */\n      and\n        /* \"#utility.yul\":389:454   */\n      swap1\n      pop\n        /* \"#utility.yul\":334:460   */\n      swap2\n      swap1\n      pop\n      jump\t// out\n        /* \"#utility.yul\":466:562   */\n    tag_138:\n        /* \"#utility.yul\":503:510   */\n      0x00\n        /* \"#utility.yul\":532:556   */\n      tag_207\n        /* \"#utility.yul\":550:555   */\n      dup3\n        /* \"#utility.yul\":532:556   */\n      tag_137\n      jump\t// in\n    tag_207:\n        /* \"#utility.yul\":521:556   */\n      swap1\n      pop\n        /* \"#utility.yul\":466:562   */\n      swap2\n      swap1\n      pop\n      jump\t// out\n        /* \"#utility.yul\":568:690   */\n    tag_139:\n        /* \"#utility.yul\":641:665   */\n      tag_209\n        /* \"#utility.yul\":659:664   */\n      dup2\n        /* \"#utility.yul\":641:665   */\n      tag_138\n      jump\t// in\n    tag_209:\n        /* \"#utility.yul\":634:639   */\n      dup2\n        /* \"#utility.yul\":631:666   */\n      eq\n        /* \"#utility.yul\":621:684   */\n      tag_210\n      jumpi\n        /* \"#utility.yul\":680:681   */\n      0x00\n        /* \"#utility.yul\":677:678   */\n      dup1\n        /* \"#utility.yul\":670:682   */\n      revert\n        /* \"#utility.yul\":621:684   */\n    tag_210:\n        /* \"#utility.yul\":568:690   */\n      pop\n      jump\t// out\n        /* \"#utility.yul\":696:835   */\n    tag_140:\n        /* \"#utility.yul\":742:747   */\n      0x00\n        /* \"#utility.yul\":780:786   */\n      dup2\n        /* \"#utility.yul\":767:787   */\n      calldataload\n        /* \"#utility.yul\":758:787   */\n      swap1\n      pop\n        /* \"#utility.yul\":796:829   */\n      tag_212\n        /* \"#utility.yul\":823:828   */\n      dup2\n        /* \"#utility.yul\":796:829   */\n      tag_139\n      jump\t// in\n    tag_212:\n        /* \"#utility.yul\":696:835   */\n      swap3\n      swap2\n      pop\n      pop\n      jump\t// out\n        /* \"#utility.yul\":841:918   */\n    tag_141:\n        /* \"#utility.yul\":878:885   */\n      0x00\n        /* \"#utility.yul\":907:912   */\n      dup2\n        /* \"#utility.yul\":896:912   */\n      swap1\n      pop\n        /* \"#utility.yul\":841:918   */\n      swap2\n      swap1\n      pop\n      jump\t// out\n        /* \"#utility.yul\":924:1046   */\n    tag_142:\n        /* \"#utility.yul\":997:1021   */\n      tag_215\n        /* \"#utility.yul\":1015:1020   */\n      dup2\n        /* \"#utility.yul\":997:1021   */\n      tag_141\n      jump\t// in\n    tag_215:\n        /* \"#utility.yul\":990:995   */\n      dup2\n        /* \"#utility.yul\":987:1022   */\n      eq\n        /* \"#utility.yul\":977:1040   */\n      tag_216\n      jumpi\n        /* \"#utility.yul\":1036:1037   */\n      0x00\n        /* \"#utility.yul\":1033:1034   */\n      dup1\n        /* \"#utility.yul\":1026:1038   */\n      revert\n        /* \"#utility.yul\":977:1040   */\n    tag_216:\n        /* \"#utility.yul\":924:1046   */\n      pop\n      jump\t// out\n        /* \"#utility.yul\":1052:1191   */\n    tag_143:\n        /* \"#utility.yul\":1098:1103   */\n      0x00\n        /* \"#utility.yul\":1136:1142   */\n      dup2\n        /* \"#utility.yul\":1123:1143   */\n      calldataload\n        /* \"#utility.yul\":1114:1143   */\n      swap1\n      pop\n        /* \"#utility.yul\":1152:1185   */\n      tag_218\n        /* \"#utility.yul\":1179:1184   */\n      dup2\n        /* \"#utility.yul\":1152:1185   */\n      tag_142\n      jump\t// in\n    tag_218:\n        /* \"#utility.yul\":1052:1191   */\n      swap3\n      swap2\n      pop\n      pop\n      jump\t// out\n        /* \"#utility.yul\":1197:1671   */\n    tag_15:\n        /* \"#utility.yul\":1265:1271   */\n      0x00\n        /* \"#utility.yul\":1273:1279   */\n      dup1\n        /* \"#utility.yul\":1322:1324   */\n      0x40\n        /* \"#utility.yul\":1310:1319   */\n      dup4\n        /* \"#utility.yul\":1301:1308   */\n      dup6\n        /* \"#utility.yul\":1297:1320   */\n      sub\n        /* \"#utility.yul\":1293:1325   */\n      slt\n        /* \"#utility.yul\":1290:1409   */\n      iszero\n      tag_220\n      jumpi\n        /* \"#utility.yul\":1328:1407   */\n      tag_221\n      tag_135\n      jump\t// in\n    tag_221:\n        /* \"#utility.yul\":1290:1409   */\n    tag_220:\n        /* \"#utility.yul\":1448:1449   */\n      0x00\n        /* \"#utility.yul\":1473:1526   */\n      tag_222\n        /* \"#utility.yul\":1518:1525   */\n      dup6\n        /* \"#utility.yul\":1509:1515   */\n      dup3\n        /* \"#utility.yul\":1498:1507   */\n      dup7\n        /* \"#utility.yul\":1494:1516   */\n      add\n        /* \"#utility.yul\":1473:1526   */\n      tag_140\n      jump\t// in\n    tag_222:\n        /* \"#utility.yul\":1463:1526   */\n      swap3\n      pop\n        /* \"#utility.yul\":1419:1536   */\n      pop\n        /* \"#utility.yul\":1575:1577   */\n      0x20\n        /* \"#utility.yul\":1601:1654   */\n      tag_223\n        /* \"#utility.yul\":1646:1653   */\n      dup6\n        /* \"#utility.yul\":1637:1643   */\n      dup3\n        /* \"#utility.yul\":1626:1635   */\n      dup7\n        /* \"#utility.yul\":1622:1644   */\n      add\n        /* \"#utility.yul\":1601:1654   */\n      tag_143\n      jump\t// in\n    tag_223:\n        /* \"#utility.yul\":1591:1654   */\n      swap2\n      pop\n        /* \"#utility.yul\":1546:1664   */\n      pop\n        /* \"#utility.yul\":1197:1671   */\n      swap3\n      pop\n      swap3\n      swap1\n      pop\n      jump\t// out\n        /* \"#utility.yul\":1677:1795   */\n    tag_144:\n        /* \"#utility.yul\":1764:1788   */\n      tag_225\n        /* \"#utility.yul\":1782:1787   */\n      dup2\n        /* \"#utility.yul\":1764:1788   */\n      tag_141\n      jump\t// in\n    tag_225:\n        /* \"#utility.yul\":1759:1762   */\n      dup3\n        /* \"#utility.yul\":1752:1789   */\n      mstore\n        /* \"#utility.yul\":1677:1795   */\n      pop\n      pop\n      jump\t// out\n        /* \"#utility.yul\":1801:1919   */\n    tag_145:\n        /* \"#utility.yul\":1888:1912   */\n      tag_227\n        /* \"#utility.yul\":1906:1911   */\n      dup2\n        /* \"#utility.yul\":1888:1912   */\n      tag_138\n      jump\t// in\n    tag_227:\n        /* \"#utility.yul\":1883:1886   */\n      dup3\n        /* \"#utility.yul\":1876:1913   */\n      mstore\n        /* \"#utility.yul\":1801:1919   */\n      pop\n      pop\n      jump\t// out\n        /* \"#utility.yul\":1925:2024   */\n    tag_146:\n        /* \"#utility.yul\":1977:1983   */\n      0x00\n        /* \"#utility.yul\":2011:2016   */\n      dup2\n        /* \"#utility.yul\":2005:2017   */\n      mload\n        /* \"#utility.yul\":1995:2017   */\n      swap1\n      pop\n        /* \"#utility.yul\":1925:2024   */\n      swap2\n      swap1\n      pop\n      jump\t// out\n        /* \"#utility.yul\":2030:2199   */\n    tag_147:\n        /* \"#utility.yul\":2114:2125   */\n      0x00\n        /* \"#utility.yul\":2148:2154   */\n      dup3\n        /* \"#utility.yul\":2143:2146   */\n      dup3\n        /* \"#utility.yul\":2136:2155   */\n      mstore\n        /* \"#utility.yul\":2188:2192   */\n      0x20\n        /* \"#utility.yul\":2183:2186   */\n      dup3\n        /* \"#utility.yul\":2179:2193   */\n      add\n        /* \"#utility.yul\":2164:2193   */\n      swap1\n      pop\n        /* \"#utility.yul\":2030:2199   */\n      swap3\n      swap2\n      pop\n      pop\n      jump\t// out\n        /* \"#utility.yul\":2205:2344   */\n    tag_148:\n        /* \"#utility.yul\":2294:2300   */\n      dup3\n        /* \"#utility.yul\":2289:2292   */\n      dup2\n        /* \"#utility.yul\":2284:2287   */\n      dup4\n        /* \"#utility.yul\":2278:2301   */\n      mcopy\n        /* \"#utility.yul\":2335:2336   */\n      0x00\n        /* \"#utility.yul\":2326:2332   */\n      dup4\n        /* \"#utility.yul\":2321:2324   */\n      dup4\n        /* \"#utility.yul\":2317:2333   */\n      add\n        /* \"#utility.yul\":2310:2337   */\n      mstore\n        /* \"#utility.yul\":2205:2344   */\n      pop\n      pop\n      pop\n      jump\t// out\n        /* \"#utility.yul\":2350:2452   */\n    tag_149:\n        /* \"#utility.yul\":2391:2397   */\n      0x00\n        /* \"#utility.yul\":2442:2444   */\n      0x1f\n        /* \"#utility.yul\":2438:2445   */\n      not\n        /* \"#utility.yul\":2433:2435   */\n      0x1f\n        /* \"#utility.yul\":2426:2431   */\n      dup4\n        /* \"#utility.yul\":2422:2436   */\n      add\n        /* \"#utility.yul\":2418:2446   */\n      and\n        /* \"#utility.yul\":2408:2446   */\n      swap1\n      pop\n        /* \"#utility.yul\":2350:2452   */\n      swap2\n      swap1\n      pop\n      jump\t// out\n        /* \"#utility.yul\":2458:2835   */\n    tag_150:\n        /* \"#utility.yul\":2546:2549   */\n      0x00\n        /* \"#utility.yul\":2574:2613   */\n      tag_233\n        /* \"#utility.yul\":2607:2612   */\n      dup3\n        /* \"#utility.yul\":2574:2613   */\n      tag_146\n      jump\t// in\n    tag_233:\n        /* \"#utility.yul\":2629:2700   */\n      tag_234\n        /* \"#utility.yul\":2693:2699   */\n      dup2\n        /* \"#utility.yul\":2688:2691   */\n      dup6\n        /* \"#utility.yul\":2629:2700   */\n      tag_147\n      jump\t// in\n    tag_234:\n        /* \"#utility.yul\":2622:2700   */\n      swap4\n      pop\n        /* \"#utility.yul\":2709:2774   */\n      tag_235\n        /* \"#utility.yul\":2767:2773   */\n      dup2\n        /* \"#utility.yul\":2762:2765   */\n      dup6\n        /* \"#utility.yul\":2755:2759   */\n      0x20\n        /* \"#utility.yul\":2748:2753   */\n      dup7\n        /* \"#utility.yul\":2744:2760   */\n      add\n        /* \"#utility.yul\":2709:2774   */\n      tag_148\n      jump\t// in\n    tag_235:\n        /* \"#utility.yul\":2799:2828   */\n      tag_236\n        /* \"#utility.yul\":2821:2827   */\n      dup2\n        /* \"#utility.yul\":2799:2828   */\n      tag_149\n      jump\t// in\n    tag_236:\n        /* \"#utility.yul\":2794:2797   */\n      dup5\n        /* \"#utility.yul\":2790:2829   */\n      add\n        /* \"#utility.yul\":2783:2829   */\n      swap2\n      pop\n        /* \"#utility.yul\":2550:2835   */\n      pop\n        /* \"#utility.yul\":2458:2835   */\n      swap3\n      swap2\n      pop\n      pop\n      jump\t// out\n        /* \"#utility.yul\":2841:3596   */\n    tag_18:\n        /* \"#utility.yul\":3066:3070   */\n      0x00\n        /* \"#utility.yul\":3104:3107   */\n      0xa0\n        /* \"#utility.yul\":3093:3102   */\n      dup3\n        /* \"#utility.yul\":3089:3108   */\n      add\n        /* \"#utility.yul\":3081:3108   */\n      swap1\n      pop\n        /* \"#utility.yul\":3118:3189   */\n      tag_238\n        /* \"#utility.yul\":3186:3187   */\n      0x00\n        /* \"#utility.yul\":3175:3184   */\n      dup4\n        /* \"#utility.yul\":3171:3188   */\n      add\n        /* \"#utility.yul\":3162:3168   */\n      dup9\n        /* \"#utility.yul\":3118:3189   */\n      tag_144\n      jump\t// in\n    tag_238:\n        /* \"#utility.yul\":3199:3271   */\n      tag_239\n        /* \"#utility.yul\":3267:3269   */\n      0x20\n        /* \"#utility.yul\":3256:3265   */\n      dup4\n        /* \"#utility.yul\":3252:3270   */\n      add\n        /* \"#utility.yul\":3243:3249   */\n      dup8\n        /* \"#utility.yul\":3199:3271   */\n      tag_145\n      jump\t// in\n    tag_239:\n        /* \"#utility.yul\":3318:3327   */\n      dup2\n        /* \"#utility.yul\":3312:3316   */\n      dup2\n        /* \"#utility.yul\":3308:3328   */\n      sub\n        /* \"#utility.yul\":3303:3305   */\n      0x40\n        /* \"#utility.yul\":3292:3301   */\n      dup4\n        /* \"#utility.yul\":3288:3306   */\n      add\n        /* \"#utility.yul\":3281:3329   */\n      mstore\n        /* \"#utility.yul\":3346:3424   */\n      tag_240\n        /* \"#utility.yul\":3419:3423   */\n      dup2\n        /* \"#utility.yul\":3410:3416   */\n      dup7\n        /* \"#utility.yul\":3346:3424   */\n      tag_150\n      jump\t// in\n    tag_240:\n        /* \"#utility.yul\":3338:3424   */\n      swap1\n      pop\n        /* \"#utility.yul\":3434:3506   */\n      tag_241\n        /* \"#utility.yul\":3502:3504   */\n      0x60\n        /* \"#utility.yul\":3491:3500   */\n      dup4\n        /* \"#utility.yul\":3487:3505   */\n      add\n        /* \"#utility.yul\":3478:3484   */\n      dup6\n        /* \"#utility.yul\":3434:3506   */\n      tag_144\n      jump\t// in\n    tag_241:\n        /* \"#utility.yul\":3516:3589   */\n      tag_242\n        /* \"#utility.yul\":3584:3587   */\n      0x80\n        /* \"#utility.yul\":3573:3582   */\n      dup4\n        /* \"#utility.yul\":3569:3588   */\n      add\n        /* \"#utility.yul\":3560:3566   */\n      dup5\n        /* \"#utility.yul\":3516:3589   */\n      tag_144\n      jump\t// in\n    tag_242:\n        /* \"#utility.yul\":2841:3596   */\n      swap7\n      swap6\n      pop\n      pop\n      pop\n      pop\n      pop\n      pop\n      jump\t// out\n        /* \"#utility.yul\":3602:3931   */\n    tag_21:\n        /* \"#utility.yul\":3661:3667   */\n      0x00\n        /* \"#utility.yul\":3710:3712   */\n      0x20\n        /* \"#utility.yul\":3698:3707   */\n      dup3\n        /* \"#utility.yul\":3689:3696   */\n      dup5\n        /* \"#utility.yul\":3685:3708   */\n      sub\n        /* \"#utility.yul\":3681:3713   */\n      slt\n        /* \"#utility.yul\":3678:3797   */\n      iszero\n      tag_244\n      jumpi\n        /* \"#utility.yul\":3716:3795   */\n      tag_245\n      tag_135\n      jump\t// in\n    tag_245:\n        /* \"#utility.yul\":3678:3797   */\n    tag_244:\n        /* \"#utility.yul\":3836:3837   */\n      0x00\n        /* \"#utility.yul\":3861:3914   */\n      tag_246\n        /* \"#utility.yul\":3906:3913   */\n      dup5\n        /* \"#utility.yul\":3897:3903   */\n      dup3\n        /* \"#utility.yul\":3886:3895   */\n      dup6\n        /* \"#utility.yul\":3882:3904   */\n      add\n        /* \"#utility.yul\":3861:3914   */\n      tag_140\n      jump\t// in\n    tag_246:\n        /* \"#utility.yul\":3851:3914   */\n      swap2\n      pop\n        /* \"#utility.yul\":3807:3924   */\n      pop\n        /* \"#utility.yul\":3602:3931   */\n      swap3\n      swap2\n      pop\n      pop\n      jump\t// out\n        /* \"#utility.yul\":3937:4072   */\n    tag_151:\n        /* \"#utility.yul\":4025:4031   */\n      0x00\n        /* \"#utility.yul\":4059:4064   */\n      dup2\n        /* \"#utility.yul\":4053:4065   */\n      mload\n        /* \"#utility.yul\":4043:4065   */\n      swap1\n      pop\n        /* \"#utility.yul\":3937:4072   */\n      swap2\n      swap1\n      pop\n      jump\t// out\n        /* \"#utility.yul\":4078:4283   */\n    tag_152:\n        /* \"#utility.yul\":4198:4209   */\n      0x00\n        /* \"#utility.yul\":4232:4238   */\n      dup3\n        /* \"#utility.yul\":4227:4230   */\n      dup3\n        /* \"#utility.yul\":4220:4239   */\n      mstore\n        /* \"#utility.yul\":4272:4276   */\n      0x20\n        /* \"#utility.yul\":4267:4270   */\n      dup3\n        /* \"#utility.yul\":4263:4277   */\n      add\n        /* \"#utility.yul\":4248:4277   */\n      swap1\n      pop\n        /* \"#utility.yul\":4078:4283   */\n      swap3\n      swap2\n      pop\n      pop\n      jump\t// out\n        /* \"#utility.yul\":4289:4442   */\n    tag_153:\n        /* \"#utility.yul\":4377:4381   */\n      0x00\n        /* \"#utility.yul\":4400:4403   */\n      dup2\n        /* \"#utility.yul\":4392:4403   */\n      swap1\n      pop\n        /* \"#utility.yul\":4430:4434   */\n      0x20\n        /* \"#utility.yul\":4425:4428   */\n      dup3\n        /* \"#utility.yul\":4421:4435   */\n      add\n        /* \"#utility.yul\":4413:4435   */\n      swap1\n      pop\n        /* \"#utility.yul\":4289:4442   */\n      swap2\n      swap1\n      pop\n      jump\t// out\n        /* \"#utility.yul\":4448:4556   */\n    tag_154:\n        /* \"#utility.yul\":4525:4549   */\n      tag_251\n        /* \"#utility.yul\":4543:4548   */\n      dup2\n        /* \"#utility.yul\":4525:4549   */\n      tag_141\n      jump\t// in\n    tag_251:\n        /* \"#utility.yul\":4520:4523   */\n      dup3\n        /* \"#utility.yul\":4513:4550   */\n      mstore\n        /* \"#utility.yul\":4448:4556   */\n      pop\n      pop\n      jump\t// out\n        /* \"#utility.yul\":4562:4670   */\n    tag_155:\n        /* \"#utility.yul\":4639:4663   */\n      tag_253\n        /* \"#utility.yul\":4657:4662   */\n      dup2\n        /* \"#utility.yul\":4639:4663   */\n      tag_138\n      jump\t// in\n    tag_253:\n        /* \"#utility.yul\":4634:4637   */\n      dup3\n        /* \"#utility.yul\":4627:4664   */\n      mstore\n        /* \"#utility.yul\":4562:4670   */\n      pop\n      pop\n      jump\t// out\n        /* \"#utility.yul\":4676:4835   */\n    tag_156:\n        /* \"#utility.yul\":4750:4761   */\n      0x00\n        /* \"#utility.yul\":4784:4790   */\n      dup3\n        /* \"#utility.yul\":4779:4782   */\n      dup3\n        /* \"#utility.yul\":4772:4791   */\n      mstore\n        /* \"#utility.yul\":4824:4828   */\n      0x20\n        /* \"#utility.yul\":4819:4822   */\n      dup3\n        /* \"#utility.yul\":4815:4829   */\n      add\n        /* \"#utility.yul\":4800:4829   */\n      swap1\n      pop\n        /* \"#utility.yul\":4676:4835   */\n      swap3\n      swap2\n      pop\n      pop\n      jump\t// out\n        /* \"#utility.yul\":4841:5198   */\n    tag_157:\n        /* \"#utility.yul\":4919:4922   */\n      0x00\n        /* \"#utility.yul\":4947:4986   */\n      tag_256\n        /* \"#utility.yul\":4980:4985   */\n      dup3\n        /* \"#utility.yul\":4947:4986   */\n      tag_146\n      jump\t// in\n    tag_256:\n        /* \"#utility.yul\":5002:5063   */\n      tag_257\n        /* \"#utility.yul\":5056:5062   */\n      dup2\n        /* \"#utility.yul\":5051:5054   */\n      dup6\n        /* \"#utility.yul\":5002:5063   */\n      tag_156\n      jump\t// in\n    tag_257:\n        /* \"#utility.yul\":4995:5063   */\n      swap4\n      pop\n        /* \"#utility.yul\":5072:5137   */\n      tag_258\n        /* \"#utility.yul\":5130:5136   */\n      dup2\n        /* \"#utility.yul\":5125:5128   */\n      dup6\n        /* \"#utility.yul\":5118:5122   */\n      0x20\n        /* \"#utility.yul\":5111:5116   */\n      dup7\n        /* \"#utility.yul\":5107:5123   */\n      add\n        /* \"#utility.yul\":5072:5137   */\n      tag_148\n      jump\t// in\n    tag_258:\n        /* \"#utility.yul\":5162:5191   */\n      tag_259\n        /* \"#utility.yul\":5184:5190   */\n      dup2\n        /* \"#utility.yul\":5162:5191   */\n      tag_149\n      jump\t// in\n    tag_259:\n        /* \"#utility.yul\":5157:5160   */\n      dup5\n        /* \"#utility.yul\":5153:5192   */\n      add\n        /* \"#utility.yul\":5146:5192   */\n      swap2\n      pop\n        /* \"#utility.yul\":4923:5198   */\n      pop\n        /* \"#utility.yul\":4841:5198   */\n      swap3\n      swap2\n      pop\n      pop\n      jump\t// out\n        /* \"#utility.yul\":5256:6375   */\n    tag_158:\n        /* \"#utility.yul\":5357:5360   */\n      0x00\n        /* \"#utility.yul\":5393:5397   */\n      0xa0\n        /* \"#utility.yul\":5388:5391   */\n      dup4\n        /* \"#utility.yul\":5384:5398   */\n      add\n        /* \"#utility.yul\":5478:5482   */\n      0x00\n        /* \"#utility.yul\":5471:5476   */\n      dup4\n        /* \"#utility.yul\":5467:5483   */\n      add\n        /* \"#utility.yul\":5461:5484   */\n      mload\n        /* \"#utility.yul\":5497:5560   */\n      tag_261\n        /* \"#utility.yul\":5554:5558   */\n      0x00\n        /* \"#utility.yul\":5549:5552   */\n      dup7\n        /* \"#utility.yul\":5545:5559   */\n      add\n        /* \"#utility.yul\":5531:5543   */\n      dup3\n        /* \"#utility.yul\":5497:5560   */\n      tag_154\n      jump\t// in\n    tag_261:\n        /* \"#utility.yul\":5408:5570   */\n      pop\n        /* \"#utility.yul\":5654:5658   */\n      0x20\n        /* \"#utility.yul\":5647:5652   */\n      dup4\n        /* \"#utility.yul\":5643:5659   */\n      add\n        /* \"#utility.yul\":5637:5660   */\n      mload\n        /* \"#utility.yul\":5673:5736   */\n      tag_262\n        /* \"#utility.yul\":5730:5734   */\n      0x20\n        /* \"#utility.yul\":5725:5728   */\n      dup7\n        /* \"#utility.yul\":5721:5735   */\n      add\n        /* \"#utility.yul\":5707:5719   */\n      dup3\n        /* \"#utility.yul\":5673:5736   */\n      tag_155\n      jump\t// in\n    tag_262:\n        /* \"#utility.yul\":5580:5746   */\n      pop\n        /* \"#utility.yul\":5831:5835   */\n      0x40\n        /* \"#utility.yul\":5824:5829   */\n      dup4\n        /* \"#utility.yul\":5820:5836   */\n      add\n        /* \"#utility.yul\":5814:5837   */\n      mload\n        /* \"#utility.yul\":5884:5887   */\n      dup5\n        /* \"#utility.yul\":5878:5882   */\n      dup3\n        /* \"#utility.yul\":5874:5888   */\n      sub\n        /* \"#utility.yul\":5867:5871   */\n      0x40\n        /* \"#utility.yul\":5862:5865   */\n      dup7\n        /* \"#utility.yul\":5858:5872   */\n      add\n        /* \"#utility.yul\":5851:5889   */\n      mstore\n        /* \"#utility.yul\":5910:5983   */\n      tag_263\n        /* \"#utility.yul\":5978:5982   */\n      dup3\n        /* \"#utility.yul\":5964:5976   */\n      dup3\n        /* \"#utility.yul\":5910:5983   */\n      tag_157\n      jump\t// in\n    tag_263:\n        /* \"#utility.yul\":5902:5983   */\n      swap2\n      pop\n        /* \"#utility.yul\":5756:5994   */\n      pop\n        /* \"#utility.yul\":6081:6085   */\n      0x60\n        /* \"#utility.yul\":6074:6079   */\n      dup4\n        /* \"#utility.yul\":6070:6086   */\n      add\n        /* \"#utility.yul\":6064:6087   */\n      mload\n        /* \"#utility.yul\":6100:6163   */\n      tag_264\n        /* \"#utility.yul\":6157:6161   */\n      0x60\n        /* \"#utility.yul\":6152:6155   */\n      dup7\n        /* \"#utility.yul\":6148:6162   */\n      add\n        /* \"#utility.yul\":6134:6146   */\n      dup3\n        /* \"#utility.yul\":6100:6163   */\n      tag_154\n      jump\t// in\n    tag_264:\n        /* \"#utility.yul\":6004:6173   */\n      pop\n        /* \"#utility.yul\":6256:6260   */\n      0x80\n        /* \"#utility.yul\":6249:6254   */\n      dup4\n        /* \"#utility.yul\":6245:6261   */\n      add\n        /* \"#utility.yul\":6239:6262   */\n      mload\n        /* \"#utility.yul\":6275:6338   */\n      tag_265\n        /* \"#utility.yul\":6332:6336   */\n      0x80\n        /* \"#utility.yul\":6327:6330   */\n      dup7\n        /* \"#utility.yul\":6323:6337   */\n      add\n        /* \"#utility.yul\":6309:6321   */\n      dup3\n        /* \"#utility.yul\":6275:6338   */\n      tag_154\n      jump\t// in\n    tag_265:\n        /* \"#utility.yul\":6183:6348   */\n      pop\n        /* \"#utility.yul\":6365:6369   */\n      dup1\n        /* \"#utility.yul\":6358:6369   */\n      swap2\n      pop\n        /* \"#utility.yul\":5362:6375   */\n      pop\n        /* \"#utility.yul\":5256:6375   */\n      swap3\n      swap2\n      pop\n      pop\n      jump\t// out\n        /* \"#utility.yul\":6381:6621   */\n    tag_159:\n        /* \"#utility.yul\":6492:6502   */\n      0x00\n        /* \"#utility.yul\":6527:6615   */\n      tag_267\n        /* \"#utility.yul\":6611:6614   */\n      dup4\n        /* \"#utility.yul\":6603:6609   */\n      dup4\n        /* \"#utility.yul\":6527:6615   */\n      tag_158\n      jump\t// in\n    tag_267:\n        /* \"#utility.yul\":6513:6615   */\n      swap1\n      pop\n        /* \"#utility.yul\":6381:6621   */\n      swap3\n      swap2\n      pop\n      pop\n      jump\t// out\n        /* \"#utility.yul\":6627:6761   */\n    tag_160:\n        /* \"#utility.yul\":6718:6722   */\n      0x00\n        /* \"#utility.yul\":6750:6754   */\n      0x20\n        /* \"#utility.yul\":6745:6748   */\n      dup3\n        /* \"#utility.yul\":6741:6755   */\n      add\n        /* \"#utility.yul\":6733:6755   */\n      swap1\n      pop\n        /* \"#utility.yul\":6627:6761   */\n      swap2\n      swap1\n      pop\n      jump\t// out\n        /* \"#utility.yul\":6823:7902   */\n    tag_161:\n        /* \"#utility.yul\":6984:6987   */\n      0x00\n        /* \"#utility.yul\":7013:7088   */\n      tag_270\n        /* \"#utility.yul\":7082:7087   */\n      dup3\n        /* \"#utility.yul\":7013:7088   */\n      tag_151\n      jump\t// in\n    tag_270:\n        /* \"#utility.yul\":7104:7211   */\n      tag_271\n        /* \"#utility.yul\":7204:7210   */\n      dup2\n        /* \"#utility.yul\":7199:7202   */\n      dup6\n        /* \"#utility.yul\":7104:7211   */\n      tag_152\n      jump\t// in\n    tag_271:\n        /* \"#utility.yul\":7097:7211   */\n      swap4\n      pop\n        /* \"#utility.yul\":7237:7240   */\n      dup4\n        /* \"#utility.yul\":7282:7286   */\n      0x20\n        /* \"#utility.yul\":7274:7280   */\n      dup3\n        /* \"#utility.yul\":7270:7287   */\n      mul\n        /* \"#utility.yul\":7265:7268   */\n      dup6\n        /* \"#utility.yul\":7261:7288   */\n      add\n        /* \"#utility.yul\":7312:7389   */\n      tag_272\n        /* \"#utility.yul\":7383:7388   */\n      dup6\n        /* \"#utility.yul\":7312:7389   */\n      tag_153\n      jump\t// in\n    tag_272:\n        /* \"#utility.yul\":7412:7419   */\n      dup1\n        /* \"#utility.yul\":7443:7444   */\n      0x00\n        /* \"#utility.yul\":7428:7857   */\n    tag_273:\n        /* \"#utility.yul\":7453:7459   */\n      dup6\n        /* \"#utility.yul\":7450:7451   */\n      dup2\n        /* \"#utility.yul\":7447:7460   */\n      lt\n        /* \"#utility.yul\":7428:7857   */\n      iszero\n      tag_275\n      jumpi\n        /* \"#utility.yul\":7524:7533   */\n      dup5\n        /* \"#utility.yul\":7518:7522   */\n      dup5\n        /* \"#utility.yul\":7514:7534   */\n      sub\n        /* \"#utility.yul\":7509:7512   */\n      dup10\n        /* \"#utility.yul\":7502:7535   */\n      mstore\n        /* \"#utility.yul\":7575:7581   */\n      dup2\n        /* \"#utility.yul\":7569:7582   */\n      mload\n        /* \"#utility.yul\":7603:7709   */\n      tag_276\n        /* \"#utility.yul\":7704:7708   */\n      dup6\n        /* \"#utility.yul\":7689:7702   */\n      dup3\n        /* \"#utility.yul\":7603:7709   */\n      tag_159\n      jump\t// in\n    tag_276:\n        /* \"#utility.yul\":7595:7709   */\n      swap5\n      pop\n        /* \"#utility.yul\":7732:7813   */\n      tag_277\n        /* \"#utility.yul\":7806:7812   */\n      dup4\n        /* \"#utility.yul\":7732:7813   */\n      tag_160\n      jump\t// in\n    tag_277:\n        /* \"#utility.yul\":7722:7813   */\n      swap3\n      pop\n        /* \"#utility.yul\":7842:7846   */\n      0x20\n        /* \"#utility.yul\":7837:7840   */\n      dup11\n        /* \"#utility.yul\":7833:7847   */\n      add\n        /* \"#utility.yul\":7826:7847   */\n      swap10\n      pop\n        /* \"#utility.yul\":7488:7857   */\n      pop\n        /* \"#utility.yul\":7475:7476   */\n      0x01\n        /* \"#utility.yul\":7472:7473   */\n      dup2\n        /* \"#utility.yul\":7468:7477   */\n      add\n        /* \"#utility.yul\":7463:7477   */\n      swap1\n      pop\n        /* \"#utility.yul\":7428:7857   */\n      jump(tag_273)\n    tag_275:\n        /* \"#utility.yul\":7432:7446   */\n      pop\n        /* \"#utility.yul\":7873:7877   */\n      dup3\n        /* \"#utility.yul\":7866:7877   */\n      swap8\n      pop\n        /* \"#utility.yul\":7893:7896   */\n      dup8\n        /* \"#utility.yul\":7886:7896   */\n      swap6\n      pop\n        /* \"#utility.yul\":6989:7902   */\n      pop\n      pop\n      pop\n      pop\n      pop\n        /* \"#utility.yul\":6823:7902   */\n      swap3\n      swap2\n      pop\n      pop\n      jump\t// out\n        /* \"#utility.yul\":7908:8365   */\n    tag_24:\n        /* \"#utility.yul\":8093:8097   */\n      0x00\n        /* \"#utility.yul\":8131:8133   */\n      0x20\n        /* \"#utility.yul\":8120:8129   */\n      dup3\n        /* \"#utility.yul\":8116:8134   */\n      add\n        /* \"#utility.yul\":8108:8134   */\n      swap1\n      pop\n        /* \"#utility.yul\":8180:8189   */\n      dup2\n        /* \"#utility.yul\":8174:8178   */\n      dup2\n        /* \"#utility.yul\":8170:8190   */\n      sub\n        /* \"#utility.yul\":8166:8167   */\n      0x00\n        /* \"#utility.yul\":8155:8164   */\n      dup4\n        /* \"#utility.yul\":8151:8168   */\n      add\n        /* \"#utility.yul\":8144:8191   */\n      mstore\n        /* \"#utility.yul\":8208:8358   */\n      tag_279\n        /* \"#utility.yul\":8353:8357   */\n      dup2\n        /* \"#utility.yul\":8344:8350   */\n      dup5\n        /* \"#utility.yul\":8208:8358   */\n      tag_161\n      jump\t// in\n    tag_279:\n        /* \"#utility.yul\":8200:8358   */\n      swap1\n      pop\n        /* \"#utility.yul\":7908:8365   */\n      swap3\n      swap2\n      pop\n      pop\n      jump\t// out\n        /* \"#utility.yul\":8371:8460   */\n    tag_162:\n        /* \"#utility.yul\":8407:8414   */\n      0x00\n        /* \"#utility.yul\":8447:8453   */\n      0xffff\n        /* \"#utility.yul\":8440:8445   */\n      dup3\n        /* \"#utility.yul\":8436:8454   */\n      and\n        /* \"#utility.yul\":8425:8454   */\n      swap1\n      pop\n        /* \"#utility.yul\":8371:8460   */\n      swap2\n      swap1\n      pop\n      jump\t// out\n        /* \"#utility.yul\":8466:8586   */\n    tag_163:\n        /* \"#utility.yul\":8538:8561   */\n      tag_282\n        /* \"#utility.yul\":8555:8560   */\n      dup2\n        /* \"#utility.yul\":8538:8561   */\n      tag_162\n      jump\t// in\n    tag_282:\n        /* \"#utility.yul\":8531:8536   */\n      dup2\n        /* \"#utility.yul\":8528:8562   */\n      eq\n        /* \"#utility.yul\":8518:8580   */\n      tag_283\n      jumpi\n        /* \"#utility.yul\":8576:8577   */\n      0x00\n        /* \"#utility.yul\":8573:8574   */\n      dup1\n        /* \"#utility.yul\":8566:8578   */\n      revert\n        /* \"#utility.yul\":8518:8580   */\n    tag_283:\n        /* \"#utility.yul\":8466:8586   */\n      pop\n      jump\t// out\n        /* \"#utility.yul\":8592:8729   */\n    tag_164:\n        /* \"#utility.yul\":8637:8642   */\n      0x00\n        /* \"#utility.yul\":8675:8681   */\n      dup2\n        /* \"#utility.yul\":8662:8682   */\n      calldataload\n        /* \"#utility.yul\":8653:8682   */\n      swap1\n      pop\n        /* \"#utility.yul\":8691:8723   */\n      tag_285\n        /* \"#utility.yul\":8717:8722   */\n      dup2\n        /* \"#utility.yul\":8691:8723   */\n      tag_163\n      jump\t// in\n    tag_285:\n        /* \"#utility.yul\":8592:8729   */\n      swap3\n      swap2\n      pop\n      pop\n      jump\t// out\n        /* \"#utility.yul\":8735:9062   */\n    tag_27:\n        /* \"#utility.yul\":8793:8799   */\n      0x00\n        /* \"#utility.yul\":8842:8844   */\n      0x20\n        /* \"#utility.yul\":8830:8839   */\n      dup3\n        /* \"#utility.yul\":8821:8828   */\n      dup5\n        /* \"#utility.yul\":8817:8840   */\n      sub\n        /* \"#utility.yul\":8813:8845   */\n      slt\n        /* \"#utility.yul\":8810:8929   */\n      iszero\n      tag_287\n      jumpi\n        /* \"#utility.yul\":8848:8927   */\n      tag_288\n      tag_135\n      jump\t// in\n    tag_288:\n        /* \"#utility.yul\":8810:8929   */\n    tag_287:\n        /* \"#utility.yul\":8968:8969   */\n      0x00\n        /* \"#utility.yul\":8993:9045   */\n      tag_289\n        /* \"#utility.yul\":9037:9044   */\n      dup5\n        /* \"#utility.yul\":9028:9034   */\n      dup3\n        /* \"#utility.yul\":9017:9026   */\n      dup6\n        /* \"#utility.yul\":9013:9035   */\n      add\n        /* \"#utility.yul\":8993:9045   */\n      tag_164\n      jump\t// in\n    tag_289:\n        /* \"#utility.yul\":8983:9045   */\n      swap2\n      pop\n        /* \"#utility.yul\":8939:9055   */\n      pop\n        /* \"#utility.yul\":8735:9062   */\n      swap3\n      swap2\n      pop\n      pop\n      jump\t// out\n        /* \"#utility.yul\":9068:9183   */\n    tag_165:\n        /* \"#utility.yul\":9153:9176   */\n      tag_291\n        /* \"#utility.yul\":9170:9175   */\n      dup2\n        /* \"#utility.yul\":9153:9176   */\n      tag_162\n      jump\t// in\n    tag_291:\n        /* \"#utility.yul\":9148:9151   */\n      dup3\n        /* \"#utility.yul\":9141:9177   */\n      mstore\n        /* \"#utility.yul\":9068:9183   */\n      pop\n      pop\n      jump\t// out\n        /* \"#utility.yul\":9189:9407   */\n    tag_35:\n        /* \"#utility.yul\":9280:9284   */\n      0x00\n        /* \"#utility.yul\":9318:9320   */\n      0x20\n        /* \"#utility.yul\":9307:9316   */\n      dup3\n        /* \"#utility.yul\":9303:9321   */\n      add\n        /* \"#utility.yul\":9295:9321   */\n      swap1\n      pop\n        /* \"#utility.yul\":9331:9400   */\n      tag_293\n        /* \"#utility.yul\":9397:9398   */\n      0x00\n        /* \"#utility.yul\":9386:9395   */\n      dup4\n        /* \"#utility.yul\":9382:9399   */\n      add\n        /* \"#utility.yul\":9373:9379   */\n      dup5\n        /* \"#utility.yul\":9331:9400   */\n      tag_165\n      jump\t// in\n    tag_293:\n        /* \"#utility.yul\":9189:9407   */\n      swap3\n      swap2\n      pop\n      pop\n      jump\t// out\n        /* \"#utility.yul\":9413:9530   */\n    tag_166:\n        /* \"#utility.yul\":9522:9523   */\n      0x00\n        /* \"#utility.yul\":9519:9520   */\n      dup1\n        /* \"#utility.yul\":9512:9524   */\n      revert\n        /* \"#utility.yul\":9536:9653   */\n    tag_167:\n        /* \"#utility.yul\":9645:9646   */\n      0x00\n        /* \"#utility.yul\":9642:9643   */\n      dup1\n        /* \"#utility.yul\":9635:9647   */\n      revert\n        /* \"#utility.yul\":9659:9839   */\n    tag_168:\n        /* \"#utility.yul\":9707:9784   */\n      0x4e487b7100000000000000000000000000000000000000000000000000000000\n        /* \"#utility.yul\":9704:9705   */\n      0x00\n        /* \"#utility.yul\":9697:9785   */\n      mstore\n        /* \"#utility.yul\":9804:9808   */\n      0x41\n        /* \"#utility.yul\":9801:9802   */\n      0x04\n        /* \"#utility.yul\":9794:9809   */\n      mstore\n        /* \"#utility.yul\":9828:9832   */\n      0x24\n        /* \"#utility.yul\":9825:9826   */\n      0x00\n        /* \"#utility.yul\":9818:9833   */\n      revert\n        /* \"#utility.yul\":9845:10126   */\n    tag_169:\n        /* \"#utility.yul\":9928:9955   */\n      tag_298\n        /* \"#utility.yul\":9950:9954   */\n      dup3\n        /* \"#utility.yul\":9928:9955   */\n      tag_149\n      jump\t// in\n    tag_298:\n        /* \"#utility.yul\":9920:9926   */\n      dup2\n        /* \"#utility.yul\":9916:9956   */\n      add\n        /* \"#utility.yul\":10058:10064   */\n      dup2\n        /* \"#utility.yul\":10046:10056   */\n      dup2\n        /* \"#utility.yul\":10043:10065   */\n      lt\n        /* \"#utility.yul\":10022:10040   */\n      0xffffffffffffffff\n        /* \"#utility.yul\":10010:10020   */\n      dup3\n        /* \"#utility.yul\":10007:10041   */\n      gt\n        /* \"#utility.yul\":10004:10066   */\n      or\n        /* \"#utility.yul\":10001:10089   */\n      iszero\n      tag_299\n      jumpi\n        /* \"#utility.yul\":10069:10087   */\n      tag_300\n      tag_168\n      jump\t// in\n    tag_300:\n        /* \"#utility.yul\":10001:10089   */\n    tag_299:\n        /* \"#utility.yul\":10109:10119   */\n      dup1\n        /* \"#utility.yul\":10105:10107   */\n      0x40\n        /* \"#utility.yul\":10098:10120   */\n      mstore\n        /* \"#utility.yul\":9888:10126   */\n      pop\n        /* \"#utility.yul\":9845:10126   */\n      pop\n      pop\n      jump\t// out\n        /* \"#utility.yul\":10132:10261   */\n    tag_170:\n        /* \"#utility.yul\":10166:10172   */\n      0x00\n        /* \"#utility.yul\":10193:10213   */\n      tag_302\n      tag_134\n      jump\t// in\n    tag_302:\n        /* \"#utility.yul\":10183:10213   */\n      swap1\n      pop\n        /* \"#utility.yul\":10222:10255   */\n      tag_303\n        /* \"#utility.yul\":10250:10254   */\n      dup3\n        /* \"#utility.yul\":10242:10248   */\n      dup3\n        /* \"#utility.yul\":10222:10255   */\n      tag_169\n      jump\t// in\n    tag_303:\n        /* \"#utility.yul\":10132:10261   */\n      swap2\n      swap1\n      pop\n      jump\t// out\n        /* \"#utility.yul\":10267:10575   */\n    tag_171:\n        /* \"#utility.yul\":10329:10333   */\n      0x00\n        /* \"#utility.yul\":10419:10437   */\n      0xffffffffffffffff\n        /* \"#utility.yul\":10411:10417   */\n      dup3\n        /* \"#utility.yul\":10408:10438   */\n      gt\n        /* \"#utility.yul\":10405:10461   */\n      iszero\n      tag_305\n      jumpi\n        /* \"#utility.yul\":10441:10459   */\n      tag_306\n      tag_168\n      jump\t// in\n    tag_306:\n        /* \"#utility.yul\":10405:10461   */\n    tag_305:\n        /* \"#utility.yul\":10479:10508   */\n      tag_307\n        /* \"#utility.yul\":10501:10507   */\n      dup3\n        /* \"#utility.yul\":10479:10508   */\n      tag_149\n      jump\t// in\n    tag_307:\n        /* \"#utility.yul\":10471:10508   */\n      swap1\n      pop\n        /* \"#utility.yul\":10563:10567   */\n      0x20\n        /* \"#utility.yul\":10557:10561   */\n      dup2\n        /* \"#utility.yul\":10553:10568   */\n      add\n        /* \"#utility.yul\":10545:10568   */\n      swap1\n      pop\n        /* \"#utility.yul\":10267:10575   */\n      swap2\n      swap1\n      pop\n      jump\t// out\n        /* \"#utility.yul\":10581:10729   */\n    tag_172:\n        /* \"#utility.yul\":10679:10685   */\n      dup3\n        /* \"#utility.yul\":10674:10677   */\n      dup2\n        /* \"#utility.yul\":10669:10672   */\n      dup4\n        /* \"#utility.yul\":10656:10686   */\n      calldatacopy\n        /* \"#utility.yul\":10720:10721   */\n      0x00\n        /* \"#utility.yul\":10711:10717   */\n      dup4\n        /* \"#utility.yul\":10706:10709   */\n      dup4\n        /* \"#utility.yul\":10702:10718   */\n      add\n        /* \"#utility.yul\":10695:10722   */\n      mstore\n        /* \"#utility.yul\":10581:10729   */\n      pop\n      pop\n      pop\n      jump\t// out\n        /* \"#utility.yul\":10735:11160   */\n    tag_173:\n        /* \"#utility.yul\":10813:10818   */\n      0x00\n        /* \"#utility.yul\":10838:10904   */\n      tag_310\n        /* \"#utility.yul\":10854:10903   */\n      tag_311\n        /* \"#utility.yul\":10896:10902   */\n      dup5\n        /* \"#utility.yul\":10854:10903   */\n      tag_171\n      jump\t// in\n    tag_311:\n        /* \"#utility.yul\":10838:10904   */\n      tag_170\n      jump\t// in\n    tag_310:\n        /* \"#utility.yul\":10829:10904   */\n      swap1\n      pop\n        /* \"#utility.yul\":10927:10933   */\n      dup3\n        /* \"#utility.yul\":10920:10925   */\n      dup2\n        /* \"#utility.yul\":10913:10934   */\n      mstore\n        /* \"#utility.yul\":10965:10969   */\n      0x20\n        /* \"#utility.yul\":10958:10963   */\n      dup2\n        /* \"#utility.yul\":10954:10970   */\n      add\n        /* \"#utility.yul\":11003:11006   */\n      dup5\n        /* \"#utility.yul\":10994:11000   */\n      dup5\n        /* \"#utility.yul\":10989:10992   */\n      dup5\n        /* \"#utility.yul\":10985:11001   */\n      add\n        /* \"#utility.yul\":10982:11007   */\n      gt\n        /* \"#utility.yul\":10979:11091   */\n      iszero\n      tag_312\n      jumpi\n        /* \"#utility.yul\":11010:11089   */\n      tag_313\n      tag_167\n      jump\t// in\n    tag_313:\n        /* \"#utility.yul\":10979:11091   */\n    tag_312:\n        /* \"#utility.yul\":11100:11154   */\n      tag_314\n        /* \"#utility.yul\":11147:11153   */\n      dup5\n        /* \"#utility.yul\":11142:11145   */\n      dup3\n        /* \"#utility.yul\":11137:11140   */\n      dup6\n        /* \"#utility.yul\":11100:11154   */\n      tag_172\n      jump\t// in\n    tag_314:\n        /* \"#utility.yul\":10819:11160   */\n      pop\n        /* \"#utility.yul\":10735:11160   */\n      swap4\n      swap3\n      pop\n      pop\n      pop\n      jump\t// out\n        /* \"#utility.yul\":11180:11520   */\n    tag_174:\n        /* \"#utility.yul\":11236:11241   */\n      0x00\n        /* \"#utility.yul\":11285:11288   */\n      dup3\n        /* \"#utility.yul\":11278:11282   */\n      0x1f\n        /* \"#utility.yul\":11270:11276   */\n      dup4\n        /* \"#utility.yul\":11266:11283   */\n      add\n        /* \"#utility.yul\":11262:11289   */\n      slt\n        /* \"#utility.yul\":11252:11374   */\n      tag_316\n      jumpi\n        /* \"#utility.yul\":11293:11372   */\n      tag_317\n      tag_166\n      jump\t// in\n    tag_317:\n        /* \"#utility.yul\":11252:11374   */\n    tag_316:\n        /* \"#utility.yul\":11410:11416   */\n      dup2\n        /* \"#utility.yul\":11397:11417   */\n      calldataload\n        /* \"#utility.yul\":11435:11514   */\n      tag_318\n        /* \"#utility.yul\":11510:11513   */\n      dup5\n        /* \"#utility.yul\":11502:11508   */\n      dup3\n        /* \"#utility.yul\":11495:11499   */\n      0x20\n        /* \"#utility.yul\":11487:11493   */\n      dup7\n        /* \"#utility.yul\":11483:11500   */\n      add\n        /* \"#utility.yul\":11435:11514   */\n      tag_173\n      jump\t// in\n    tag_318:\n        /* \"#utility.yul\":11426:11514   */\n      swap2\n      pop\n        /* \"#utility.yul\":11242:11520   */\n      pop\n        /* \"#utility.yul\":11180:11520   */\n      swap3\n      swap2\n      pop\n      pop\n      jump\t// out\n        /* \"#utility.yul\":11526:12035   */\n    tag_38:\n        /* \"#utility.yul\":11595:11601   */\n      0x00\n        /* \"#utility.yul\":11644:11646   */\n      0x20\n        /* \"#utility.yul\":11632:11641   */\n      dup3\n        /* \"#utility.yul\":11623:11630   */\n      dup5\n        /* \"#utility.yul\":11619:11642   */\n      sub\n        /* \"#utility.yul\":11615:11647   */\n      slt\n        /* \"#utility.yul\":11612:11731   */\n      iszero\n      tag_320\n      jumpi\n        /* \"#utility.yul\":11650:11729   */\n      tag_321\n      tag_135\n      jump\t// in\n    tag_321:\n        /* \"#utility.yul\":11612:11731   */\n    tag_320:\n        /* \"#utility.yul\":11798:11799   */\n      0x00\n        /* \"#utility.yul\":11787:11796   */\n      dup3\n        /* \"#utility.yul\":11783:11800   */\n      add\n        /* \"#utility.yul\":11770:11801   */\n      calldataload\n        /* \"#utility.yul\":11828:11846   */\n      0xffffffffffffffff\n        /* \"#utility.yul\":11820:11826   */\n      dup2\n        /* \"#utility.yul\":11817:11847   */\n      gt\n        /* \"#utility.yul\":11814:11931   */\n      iszero\n      tag_322\n      jumpi\n        /* \"#utility.yul\":11850:11929   */\n      tag_323\n      tag_136\n      jump\t// in\n    tag_323:\n        /* \"#utility.yul\":11814:11931   */\n    tag_322:\n        /* \"#utility.yul\":11955:12018   */\n      tag_324\n        /* \"#utility.yul\":12010:12017   */\n      dup5\n        /* \"#utility.yul\":12001:12007   */\n      dup3\n        /* \"#utility.yul\":11990:11999   */\n      dup6\n        /* \"#utility.yul\":11986:12008   */\n      add\n        /* \"#utility.yul\":11955:12018   */\n      tag_174\n      jump\t// in\n    tag_324:\n        /* \"#utility.yul\":11945:12018   */\n      swap2\n      pop\n        /* \"#utility.yul\":11741:12028   */\n      pop\n        /* \"#utility.yul\":11526:12035   */\n      swap3\n      swap2\n      pop\n      pop\n      jump\t// out\n        /* \"#utility.yul\":12041:12263   */\n    tag_43:\n        /* \"#utility.yul\":12134:12138   */\n      0x00\n        /* \"#utility.yul\":12172:12174   */\n      0x20\n        /* \"#utility.yul\":12161:12170   */\n      dup3\n        /* \"#utility.yul\":12157:12175   */\n      add\n        /* \"#utility.yul\":12149:12175   */\n      swap1\n      pop\n        /* \"#utility.yul\":12185:12256   */\n      tag_326\n        /* \"#utility.yul\":12253:12254   */\n      0x00\n        /* \"#utility.yul\":12242:12251   */\n      dup4\n        /* \"#utility.yul\":12238:12255   */\n      add\n        /* \"#utility.yul\":12229:12235   */\n      dup5\n        /* \"#utility.yul\":12185:12256   */\n      tag_145\n      jump\t// in\n    tag_326:\n        /* \"#utility.yul\":12041:12263   */\n      swap3\n      swap2\n      pop\n      pop\n      jump\t// out\n        /* \"#utility.yul\":12269:12598   */\n    tag_49:\n        /* \"#utility.yul\":12328:12334   */\n      0x00\n        /* \"#utility.yul\":12377:12379   */\n      0x20\n        /* \"#utility.yul\":12365:12374   */\n      dup3\n        /* \"#utility.yul\":12356:12363   */\n      dup5\n        /* \"#utility.yul\":12352:12375   */\n      sub\n        /* \"#utility.yul\":12348:12380   */\n      slt\n        /* \"#utility.yul\":12345:12464   */\n      iszero\n      tag_328\n      jumpi\n        /* \"#utility.yul\":12383:12462   */\n      tag_329\n      tag_135\n      jump\t// in\n    tag_329:\n        /* \"#utility.yul\":12345:12464   */\n    tag_328:\n        /* \"#utility.yul\":12503:12504   */\n      0x00\n        /* \"#utility.yul\":12528:12581   */\n      tag_330\n        /* \"#utility.yul\":12573:12580   */\n      dup5\n        /* \"#utility.yul\":12564:12570   */\n      dup3\n        /* \"#utility.yul\":12553:12562   */\n      dup6\n        /* \"#utility.yul\":12549:12571   */\n      add\n        /* \"#utility.yul\":12528:12581   */\n      tag_143\n      jump\t// in\n    tag_330:\n        /* \"#utility.yul\":12518:12581   */\n      swap2\n      pop\n        /* \"#utility.yul\":12474:12591   */\n      pop\n        /* \"#utility.yul\":12269:12598   */\n      swap3\n      swap2\n      pop\n      pop\n      jump\t// out\n        /* \"#utility.yul\":12656:13785   */\n    tag_175:\n        /* \"#utility.yul\":12767:12770   */\n      0x00\n        /* \"#utility.yul\":12803:12807   */\n      0xa0\n        /* \"#utility.yul\":12798:12801   */\n      dup4\n        /* \"#utility.yul\":12794:12808   */\n      add\n        /* \"#utility.yul\":12888:12892   */\n      0x00\n        /* \"#utility.yul\":12881:12886   */\n      dup4\n        /* \"#utility.yul\":12877:12893   */\n      add\n        /* \"#utility.yul\":12871:12894   */\n      mload\n        /* \"#utility.yul\":12907:12970   */\n      tag_332\n        /* \"#utility.yul\":12964:12968   */\n      0x00\n        /* \"#utility.yul\":12959:12962   */\n      dup7\n        /* \"#utility.yul\":12955:12969   */\n      add\n        /* \"#utility.yul\":12941:12953   */\n      dup3\n        /* \"#utility.yul\":12907:12970   */\n      tag_154\n      jump\t// in\n    tag_332:\n        /* \"#utility.yul\":12818:12980   */\n      pop\n        /* \"#utility.yul\":13064:13068   */\n      0x20\n        /* \"#utility.yul\":13057:13062   */\n      dup4\n        /* \"#utility.yul\":13053:13069   */\n      add\n        /* \"#utility.yul\":13047:13070   */\n      mload\n        /* \"#utility.yul\":13083:13146   */\n      tag_333\n        /* \"#utility.yul\":13140:13144   */\n      0x20\n        /* \"#utility.yul\":13135:13138   */\n      dup7\n        /* \"#utility.yul\":13131:13145   */\n      add\n        /* \"#utility.yul\":13117:13129   */\n      dup3\n        /* \"#utility.yul\":13083:13146   */\n      tag_155\n      jump\t// in\n    tag_333:\n        /* \"#utility.yul\":12990:13156   */\n      pop\n        /* \"#utility.yul\":13241:13245   */\n      0x40\n        /* \"#utility.yul\":13234:13239   */\n      dup4\n        /* \"#utility.yul\":13230:13246   */\n      add\n        /* \"#utility.yul\":13224:13247   */\n      mload\n        /* \"#utility.yul\":13294:13297   */\n      dup5\n        /* \"#utility.yul\":13288:13292   */\n      dup3\n        /* \"#utility.yul\":13284:13298   */\n      sub\n        /* \"#utility.yul\":13277:13281   */\n      0x40\n        /* \"#utility.yul\":13272:13275   */\n      dup7\n        /* \"#utility.yul\":13268:13282   */\n      add\n        /* \"#utility.yul\":13261:13299   */\n      mstore\n        /* \"#utility.yul\":13320:13393   */\n      tag_334\n        /* \"#utility.yul\":13388:13392   */\n      dup3\n        /* \"#utility.yul\":13374:13386   */\n      dup3\n        /* \"#utility.yul\":13320:13393   */\n      tag_157\n      jump\t// in\n    tag_334:\n        /* \"#utility.yul\":13312:13393   */\n      swap2\n      pop\n        /* \"#utility.yul\":13166:13404   */\n      pop\n        /* \"#utility.yul\":13491:13495   */\n      0x60\n        /* \"#utility.yul\":13484:13489   */\n      dup4\n        /* \"#utility.yul\":13480:13496   */\n      add\n        /* \"#utility.yul\":13474:13497   */\n      mload\n        /* \"#utility.yul\":13510:13573   */\n      tag_335\n        /* \"#utility.yul\":13567:13571   */\n      0x60\n        /* \"#utility.yul\":13562:13565   */\n      dup7\n        /* \"#utility.yul\":13558:13572   */\n      add\n        /* \"#utility.yul\":13544:13556   */\n      dup3\n        /* \"#utility.yul\":13510:13573   */\n      tag_154\n      jump\t// in\n    tag_335:\n        /* \"#utility.yul\":13414:13583   */\n      pop\n        /* \"#utility.yul\":13666:13670   */\n      0x80\n        /* \"#utility.yul\":13659:13664   */\n      dup4\n        /* \"#utility.yul\":13655:13671   */\n      add\n        /* \"#utility.yul\":13649:13672   */\n      mload\n        /* \"#utility.yul\":13685:13748   */\n      tag_336\n        /* \"#utility.yul\":13742:13746   */\n      0x80\n        /* \"#utility.yul\":13737:13740   */\n      dup7\n        /* \"#utility.yul\":13733:13747   */\n      add\n        /* \"#utility.yul\":13719:13731   */\n      dup3\n        /* \"#utility.yul\":13685:13748   */\n      tag_154\n      jump\t// in\n    tag_336:\n        /* \"#utility.yul\":13593:13758   */\n      pop\n        /* \"#utility.yul\":13775:13779   */\n      dup1\n        /* \"#utility.yul\":13768:13779   */\n      swap2\n      pop\n        /* \"#utility.yul\":12772:13785   */\n      pop\n        /* \"#utility.yul\":12656:13785   */\n      swap3\n      swap2\n      pop\n      pop\n      jump\t// out\n        /* \"#utility.yul\":13791:14148   */\n    tag_52:\n        /* \"#utility.yul\":13926:13930   */\n      0x00\n        /* \"#utility.yul\":13964:13966   */\n      0x20\n        /* \"#utility.yul\":13953:13962   */\n      dup3\n        /* \"#utility.yul\":13949:13967   */\n      add\n        /* \"#utility.yul\":13941:13967   */\n      swap1\n      pop\n        /* \"#utility.yul\":14013:14022   */\n      dup2\n        /* \"#utility.yul\":14007:14011   */\n      dup2\n        /* \"#utility.yul\":14003:14023   */\n      sub\n        /* \"#utility.yul\":13999:14000   */\n      0x00\n        /* \"#utility.yul\":13988:13997   */\n      dup4\n        /* \"#utility.yul\":13984:14001   */\n      add\n        /* \"#utility.yul\":13977:14024   */\n      mstore\n        /* \"#utility.yul\":14041:14141   */\n      tag_338\n        /* \"#utility.yul\":14136:14140   */\n      dup2\n        /* \"#utility.yul\":14127:14133   */\n      dup5\n        /* \"#utility.yul\":14041:14141   */\n      tag_175\n      jump\t// in\n    tag_338:\n        /* \"#utility.yul\":14033:14141   */\n      swap1\n      pop\n        /* \"#utility.yul\":13791:14148   */\n      swap3\n      swap2\n      pop\n      pop\n      jump\t// out\n        /* \"#utility.yul\":14154:14334   */\n    tag_176:\n        /* \"#utility.yul\":14202:14279   */\n      0x4e487b7100000000000000000000000000000000000000000000000000000000\n        /* \"#utility.yul\":14199:14200   */\n      0x00\n        /* \"#utility.yul\":14192:14280   */\n      mstore\n        /* \"#utility.yul\":14299:14303   */\n      0x22\n        /* \"#utility.yul\":14296:14297   */\n      0x04\n        /* \"#utility.yul\":14289:14304   */\n      mstore\n        /* \"#utility.yul\":14323:14327   */\n      0x24\n        /* \"#utility.yul\":14320:14321   */\n      0x00\n        /* \"#utility.yul\":14313:14328   */\n      revert\n        /* \"#utility.yul\":14340:14660   */\n    tag_56:\n        /* \"#utility.yul\":14384:14390   */\n      0x00\n        /* \"#utility.yul\":14421:14422   */\n      0x02\n        /* \"#utility.yul\":14415:14419   */\n      dup3\n        /* \"#utility.yul\":14411:14423   */\n      div\n        /* \"#utility.yul\":14401:14423   */\n      swap1\n      pop\n        /* \"#utility.yul\":14468:14469   */\n      0x01\n        /* \"#utility.yul\":14462:14466   */\n      dup3\n        /* \"#utility.yul\":14458:14470   */\n      and\n        /* \"#utility.yul\":14489:14507   */\n      dup1\n        /* \"#utility.yul\":14479:14560   */\n      tag_341\n      jumpi\n        /* \"#utility.yul\":14545:14549   */\n      0x7f\n        /* \"#utility.yul\":14537:14543   */\n      dup3\n        /* \"#utility.yul\":14533:14550   */\n      and\n        /* \"#utility.yul\":14523:14550   */\n      swap2\n      pop\n        /* \"#utility.yul\":14479:14560   */\n    tag_341:\n        /* \"#utility.yul\":14607:14609   */\n      0x20\n        /* \"#utility.yul\":14599:14605   */\n      dup3\n        /* \"#utility.yul\":14596:14610   */\n      lt\n        /* \"#utility.yul\":14576:14594   */\n      dup2\n        /* \"#utility.yul\":14573:14611   */\n      sub\n        /* \"#utility.yul\":14570:14654   */\n      tag_342\n      jumpi\n        /* \"#utility.yul\":14626:14644   */\n      tag_343\n      tag_176\n      jump\t// in\n    tag_343:\n        /* \"#utility.yul\":14570:14654   */\n    tag_342:\n        /* \"#utility.yul\":14391:14660   */\n      pop\n        /* \"#utility.yul\":14340:14660   */\n      swap2\n      swap1\n      pop\n      jump\t// out\n        /* \"#utility.yul\":14666:14837   */\n    tag_177:\n        /* \"#utility.yul\":14806:14829   */\n      0x594f5520415245204e4f5420544845204f574e45520000000000000000000000\n        /* \"#utility.yul\":14802:14803   */\n      0x00\n        /* \"#utility.yul\":14794:14800   */\n      dup3\n        /* \"#utility.yul\":14790:14804   */\n      add\n        /* \"#utility.yul\":14783:14830   */\n      mstore\n        /* \"#utility.yul\":14666:14837   */\n      pop\n      jump\t// out\n        /* \"#utility.yul\":14843:15209   */\n    tag_178:\n        /* \"#utility.yul\":14985:14988   */\n      0x00\n        /* \"#utility.yul\":15006:15073   */\n      tag_346\n        /* \"#utility.yul\":15070:15072   */\n      0x15\n        /* \"#utility.yul\":15065:15068   */\n      dup4\n        /* \"#utility.yul\":15006:15073   */\n      tag_147\n      jump\t// in\n    tag_346:\n        /* \"#utility.yul\":14999:15073   */\n      swap2\n      pop\n        /* \"#utility.yul\":15082:15175   */\n      tag_347\n        /* \"#utility.yul\":15171:15174   */\n      dup3\n        /* \"#utility.yul\":15082:15175   */\n      tag_177\n      jump\t// in\n    tag_347:\n        /* \"#utility.yul\":15200:15202   */\n      0x20\n        /* \"#utility.yul\":15195:15198   */\n      dup3\n        /* \"#utility.yul\":15191:15203   */\n      add\n        /* \"#utility.yul\":15184:15203   */\n      swap1\n      pop\n        /* \"#utility.yul\":14843:15209   */\n      swap2\n      swap1\n      pop\n      jump\t// out\n        /* \"#utility.yul\":15215:15634   */\n    tag_73:\n        /* \"#utility.yul\":15381:15385   */\n      0x00\n        /* \"#utility.yul\":15419:15421   */\n      0x20\n        /* \"#utility.yul\":15408:15417   */\n      dup3\n        /* \"#utility.yul\":15404:15422   */\n      add\n        /* \"#utility.yul\":15396:15422   */\n      swap1\n      pop\n        /* \"#utility.yul\":15468:15477   */\n      dup2\n        /* \"#utility.yul\":15462:15466   */\n      dup2\n        /* \"#utility.yul\":15458:15478   */\n      sub\n        /* \"#utility.yul\":15454:15455   */\n      0x00\n        /* \"#utility.yul\":15443:15452   */\n      dup4\n        /* \"#utility.yul\":15439:15456   */\n      add\n        /* \"#utility.yul\":15432:15479   */\n      mstore\n        /* \"#utility.yul\":15496:15627   */\n      tag_349\n        /* \"#utility.yul\":15622:15626   */\n      dup2\n        /* \"#utility.yul\":15496:15627   */\n      tag_178\n      jump\t// in\n    tag_349:\n        /* \"#utility.yul\":15488:15627   */\n      swap1\n      pop\n        /* \"#utility.yul\":15215:15634   */\n      swap2\n      swap1\n      pop\n      jump\t// out\n        /* \"#utility.yul\":15640:15820   */\n    tag_78:\n        /* \"#utility.yul\":15688:15765   */\n      0x4e487b7100000000000000000000000000000000000000000000000000000000\n        /* \"#utility.yul\":15685:15686   */\n      0x00\n        /* \"#utility.yul\":15678:15766   */\n      mstore\n        /* \"#utility.yul\":15785:15789   */\n      0x32\n        /* \"#utility.yul\":15782:15783   */\n      0x04\n        /* \"#utility.yul\":15775:15790   */\n      mstore\n        /* \"#utility.yul\":15809:15813   */\n      0x24\n        /* \"#utility.yul\":15806:15807   */\n      0x00\n        /* \"#utility.yul\":15799:15814   */\n      revert\n        /* \"#utility.yul\":15826:15996   */\n    tag_179:\n        /* \"#utility.yul\":15966:15988   */\n      0x545745455420444f5345204e4f54204558495354000000000000000000000000\n        /* \"#utility.yul\":15962:15963   */\n      0x00\n        /* \"#utility.yul\":15954:15960   */\n      dup3\n        /* \"#utility.yul\":15950:15964   */\n      add\n        /* \"#utility.yul\":15943:15989   */\n      mstore\n        /* \"#utility.yul\":15826:15996   */\n      pop\n      jump\t// out\n        /* \"#utility.yul\":16002:16368   */\n    tag_180:\n        /* \"#utility.yul\":16144:16147   */\n      0x00\n        /* \"#utility.yul\":16165:16232   */\n      tag_353\n        /* \"#utility.yul\":16229:16231   */\n      0x14\n        /* \"#utility.yul\":16224:16227   */\n      dup4\n        /* \"#utility.yul\":16165:16232   */\n      tag_147\n      jump\t// in\n    tag_353:\n        /* \"#utility.yul\":16158:16232   */\n      swap2\n      pop\n        /* \"#utility.yul\":16241:16334   */\n      tag_354\n        /* \"#utility.yul\":16330:16333   */\n      dup3\n        /* \"#utility.yul\":16241:16334   */\n      tag_179\n      jump\t// in\n    tag_354:\n        /* \"#utility.yul\":16359:16361   */\n      0x20\n        /* \"#utility.yul\":16354:16357   */\n      dup3\n        /* \"#utility.yul\":16350:16362   */\n      add\n        /* \"#utility.yul\":16343:16362   */\n      swap1\n      pop\n        /* \"#utility.yul\":16002:16368   */\n      swap2\n      swap1\n      pop\n      jump\t// out\n        /* \"#utility.yul\":16374:16793   */\n    tag_82:\n        /* \"#utility.yul\":16540:16544   */\n      0x00\n        /* \"#utility.yul\":16578:16580   */\n      0x20\n        /* \"#utility.yul\":16567:16576   */\n      dup3\n        /* \"#utility.yul\":16563:16581   */\n      add\n        /* \"#utility.yul\":16555:16581   */\n      swap1\n      pop\n        /* \"#utility.yul\":16627:16636   */\n      dup2\n        /* \"#utility.yul\":16621:16625   */\n      dup2\n        /* \"#utility.yul\":16617:16637   */\n      sub\n        /* \"#utility.yul\":16613:16614   */\n      0x00\n        /* \"#utility.yul\":16602:16611   */\n      dup4\n        /* \"#utility.yul\":16598:16615   */\n      add\n        /* \"#utility.yul\":16591:16638   */\n      mstore\n        /* \"#utility.yul\":16655:16786   */\n      tag_356\n        /* \"#utility.yul\":16781:16785   */\n      dup2\n        /* \"#utility.yul\":16655:16786   */\n      tag_180\n      jump\t// in\n    tag_356:\n        /* \"#utility.yul\":16647:16786   */\n      swap1\n      pop\n        /* \"#utility.yul\":16374:16793   */\n      swap2\n      swap1\n      pop\n      jump\t// out\n        /* \"#utility.yul\":16799:16979   */\n    tag_181:\n        /* \"#utility.yul\":16847:16924   */\n      0x4e487b7100000000000000000000000000000000000000000000000000000000\n        /* \"#utility.yul\":16844:16845   */\n      0x00\n        /* \"#utility.yul\":16837:16925   */\n      mstore\n        /* \"#utility.yul\":16944:16948   */\n      0x11\n        /* \"#utility.yul\":16941:16942   */\n      0x04\n        /* \"#utility.yul\":16934:16949   */\n      mstore\n        /* \"#utility.yul\":16968:16972   */\n      0x24\n        /* \"#utility.yul\":16965:16966   */\n      0x00\n        /* \"#utility.yul\":16958:16973   */\n      revert\n        /* \"#utility.yul\":16985:17218   */\n    tag_87:\n        /* \"#utility.yul\":17024:17027   */\n      0x00\n        /* \"#utility.yul\":17047:17071   */\n      tag_359\n        /* \"#utility.yul\":17065:17070   */\n      dup3\n        /* \"#utility.yul\":17047:17071   */\n      tag_141\n      jump\t// in\n    tag_359:\n        /* \"#utility.yul\":17038:17071   */\n      swap2\n      pop\n        /* \"#utility.yul\":17093:17159   */\n      0xffffffffffffffffffffffffffffffffffffffffffffffffffffffffffffffff\n        /* \"#utility.yul\":17086:17091   */\n      dup3\n        /* \"#utility.yul\":17083:17160   */\n      sub\n        /* \"#utility.yul\":17080:17183   */\n      tag_360\n      jumpi\n        /* \"#utility.yul\":17163:17181   */\n      tag_361\n      tag_181\n      jump\t// in\n    tag_361:\n        /* \"#utility.yul\":17080:17183   */\n    tag_360:\n        /* \"#utility.yul\":17210:17211   */\n      0x01\n        /* \"#utility.yul\":17203:17208   */\n      dup3\n        /* \"#utility.yul\":17199:17212   */\n      add\n        /* \"#utility.yul\":17192:17212   */\n      swap1\n      pop\n        /* \"#utility.yul\":16985:17218   */\n      swap2\n      swap1\n      pop\n      jump\t// out\n        /* \"#utility.yul\":17224:17777   */\n    tag_92:\n        /* \"#utility.yul\":17401:17405   */\n      0x00\n        /* \"#utility.yul\":17439:17442   */\n      0x80\n        /* \"#utility.yul\":17428:17437   */\n      dup3\n        /* \"#utility.yul\":17424:17443   */\n      add\n        /* \"#utility.yul\":17416:17443   */\n      swap1\n      pop\n        /* \"#utility.yul\":17453:17524   */\n      tag_363\n        /* \"#utility.yul\":17521:17522   */\n      0x00\n        /* \"#utility.yul\":17510:17519   */\n      dup4\n        /* \"#utility.yul\":17506:17523   */\n      add\n        /* \"#utility.yul\":17497:17503   */\n      dup8\n        /* \"#utility.yul\":17453:17524   */\n      tag_145\n      jump\t// in\n    tag_363:\n        /* \"#utility.yul\":17534:17606   */\n      tag_364\n        /* \"#utility.yul\":17602:17604   */\n      0x20\n        /* \"#utility.yul\":17591:17600   */\n      dup4\n        /* \"#utility.yul\":17587:17605   */\n      add\n        /* \"#utility.yul\":17578:17584   */\n      dup7\n        /* \"#utility.yul\":17534:17606   */\n      tag_145\n      jump\t// in\n    tag_364:\n        /* \"#utility.yul\":17616:17688   */\n      tag_365\n        /* \"#utility.yul\":17684:17686   */\n      0x40\n        /* \"#utility.yul\":17673:17682   */\n      dup4\n        /* \"#utility.yul\":17669:17687   */\n      add\n        /* \"#utility.yul\":17660:17666   */\n      dup6\n        /* \"#utility.yul\":17616:17688   */\n      tag_144\n      jump\t// in\n    tag_365:\n        /* \"#utility.yul\":17698:17770   */\n      tag_366\n        /* \"#utility.yul\":17766:17768   */\n      0x60\n        /* \"#utility.yul\":17755:17764   */\n      dup4\n        /* \"#utility.yul\":17751:17769   */\n      add\n        /* \"#utility.yul\":17742:17748   */\n      dup5\n        /* \"#utility.yul\":17698:17770   */\n      tag_144\n      jump\t// in\n    tag_366:\n        /* \"#utility.yul\":17224:17777   */\n      swap6\n      swap5\n      pop\n      pop\n      pop\n      pop\n      pop\n      jump\t// out\n        /* \"#utility.yul\":17783:17959   */\n    tag_182:\n        /* \"#utility.yul\":17923:17951   */\n      0x596f757220747765657420697320746f6f206c6f6e672062726f000000000000\n        /* \"#utility.yul\":17919:17920   */\n      0x00\n        /* \"#utility.yul\":17911:17917   */\n      dup3\n        /* \"#utility.yul\":17907:17921   */\n      add\n        /* \"#utility.yul\":17900:17952   */\n      mstore\n        /* \"#utility.yul\":17783:17959   */\n      pop\n      jump\t// out\n        /* \"#utility.yul\":17965:18331   */\n    tag_183:\n        /* \"#utility.yul\":18107:18110   */\n      0x00\n        /* \"#utility.yul\":18128:18195   */\n      tag_369\n        /* \"#utility.yul\":18192:18194   */\n      0x1a\n        /* \"#utility.yul\":18187:18190   */\n      dup4\n        /* \"#utility.yul\":18128:18195   */\n      tag_147\n      jump\t// in\n    tag_369:\n        /* \"#utility.yul\":18121:18195   */\n      swap2\n      pop\n        /* \"#utility.yul\":18204:18297   */\n      tag_370\n        /* \"#utility.yul\":18293:18296   */\n      dup3\n        /* \"#utility.yul\":18204:18297   */\n      tag_182\n      jump\t// in\n    tag_370:\n        /* \"#utility.yul\":18322:18324   */\n      0x20\n        /* \"#utility.yul\":18317:18320   */\n      dup3\n        /* \"#utility.yul\":18313:18325   */\n      add\n        /* \"#utility.yul\":18306:18325   */\n      swap1\n      pop\n        /* \"#utility.yul\":17965:18331   */\n      swap2\n      swap1\n      pop\n      jump\t// out\n        /* \"#utility.yul\":18337:18756   */\n    tag_96:\n        /* \"#utility.yul\":18503:18507   */\n      0x00\n        /* \"#utility.yul\":18541:18543   */\n      0x20\n        /* \"#utility.yul\":18530:18539   */\n      dup3\n        /* \"#utility.yul\":18526:18544   */\n      add\n        /* \"#utility.yul\":18518:18544   */\n      swap1\n      pop\n        /* \"#utility.yul\":18590:18599   */\n      dup2\n        /* \"#utility.yul\":18584:18588   */\n      dup2\n        /* \"#utility.yul\":18580:18600   */\n      sub\n        /* \"#utility.yul\":18576:18577   */\n      0x00\n        /* \"#utility.yul\":18565:18574   */\n      dup4\n        /* \"#utility.yul\":18561:18578   */\n      add\n        /* \"#utility.yul\":18554:18601   */\n      mstore\n        /* \"#utility.yul\":18618:18749   */\n      tag_372\n        /* \"#utility.yul\":18744:18748   */\n      dup2\n        /* \"#utility.yul\":18618:18749   */\n      tag_183\n      jump\t// in\n    tag_372:\n        /* \"#utility.yul\":18610:18749   */\n      swap1\n      pop\n        /* \"#utility.yul\":18337:18756   */\n      swap2\n      swap1\n      pop\n      jump\t// out\n        /* \"#utility.yul\":18762:18903   */\n    tag_184:\n        /* \"#utility.yul\":18811:18815   */\n      0x00\n        /* \"#utility.yul\":18834:18837   */\n      dup2\n        /* \"#utility.yul\":18826:18837   */\n      swap1\n      pop\n        /* \"#utility.yul\":18857:18860   */\n      dup2\n        /* \"#utility.yul\":18854:18855   */\n      0x00\n        /* \"#utility.yul\":18847:18861   */\n      mstore\n        /* \"#utility.yul\":18891:18895   */\n      0x20\n        /* \"#utility.yul\":18888:18889   */\n      0x00\n        /* \"#utility.yul\":18878:18896   */\n      keccak256\n        /* \"#utility.yul\":18870:18896   */\n      swap1\n      pop\n        /* \"#utility.yul\":18762:18903   */\n      swap2\n      swap1\n      pop\n      jump\t// out\n        /* \"#utility.yul\":18909:19002   */\n    tag_185:\n        /* \"#utility.yul\":18946:18952   */\n      0x00\n        /* \"#utility.yul\":18993:18995   */\n      0x20\n        /* \"#utility.yul\":18988:18990   */\n      0x1f\n        /* \"#utility.yul\":18981:18986   */\n      dup4\n        /* \"#utility.yul\":18977:18991   */\n      add\n        /* \"#utility.yul\":18973:18996   */\n      div\n        /* \"#utility.yul\":18963:18996   */\n      swap1\n      pop\n        /* \"#utility.yul\":18909:19002   */\n      swap2\n      swap1\n      pop\n      jump\t// out\n        /* \"#utility.yul\":19008:19115   */\n    tag_186:\n        /* \"#utility.yul\":19052:19060   */\n      0x00\n        /* \"#utility.yul\":19102:19107   */\n      dup3\n        /* \"#utility.yul\":19096:19100   */\n      dup3\n        /* \"#utility.yul\":19092:19108   */\n      shl\n        /* \"#utility.yul\":19071:19108   */\n      swap1\n      pop\n        /* \"#utility.yul\":19008:19115   */\n      swap3\n      swap2\n      pop\n      pop\n      jump\t// out\n        /* \"#utility.yul\":19121:19514   */\n    tag_187:\n        /* \"#utility.yul\":19190:19196   */\n      0x00\n        /* \"#utility.yul\":19240:19241   */\n      0x08\n        /* \"#utility.yul\":19228:19238   */\n      dup4\n        /* \"#utility.yul\":19224:19242   */\n      mul\n        /* \"#utility.yul\":19263:19360   */\n      tag_377\n        /* \"#utility.yul\":19293:19359   */\n      0xffffffffffffffffffffffffffffffffffffffffffffffffffffffffffffffff\n        /* \"#utility.yul\":19282:19291   */\n      dup3\n        /* \"#utility.yul\":19263:19360   */\n      tag_186\n      jump\t// in\n    tag_377:\n        /* \"#utility.yul\":19381:19420   */\n      tag_378\n        /* \"#utility.yul\":19411:19419   */\n      dup7\n        /* \"#utility.yul\":19400:19409   */\n      dup4\n        /* \"#utility.yul\":19381:19420   */\n      tag_186\n      jump\t// in\n    tag_378:\n        /* \"#utility.yul\":19369:19420   */\n      swap6\n      pop\n        /* \"#utility.yul\":19453:19457   */\n      dup1\n        /* \"#utility.yul\":19449:19458   */\n      not\n        /* \"#utility.yul\":19442:19447   */\n      dup5\n        /* \"#utility.yul\":19438:19459   */\n      and\n        /* \"#utility.yul\":19429:19459   */\n      swap4\n      pop\n        /* \"#utility.yul\":19502:19506   */\n      dup1\n        /* \"#utility.yul\":19492:19500   */\n      dup7\n        /* \"#utility.yul\":19488:19507   */\n      and\n        /* \"#utility.yul\":19481:19486   */\n      dup5\n        /* \"#utility.yul\":19478:19508   */\n      or\n        /* \"#utility.yul\":19468:19508   */\n      swap3\n      pop\n        /* \"#utility.yul\":19197:19514   */\n      pop\n      pop\n        /* \"#utility.yul\":19121:19514   */\n      swap4\n      swap3\n      pop\n      pop\n      pop\n      jump\t// out\n        /* \"#utility.yul\":19520:19580   */\n    tag_188:\n        /* \"#utility.yul\":19548:19551   */\n      0x00\n        /* \"#utility.yul\":19569:19574   */\n      dup2\n        /* \"#utility.yul\":19562:19574   */\n      swap1\n      pop\n        /* \"#utility.yul\":19520:19580   */\n      swap2\n      swap1\n      pop\n      jump\t// out\n        /* \"#utility.yul\":19586:19728   */\n    tag_189:\n        /* \"#utility.yul\":19636:19645   */\n      0x00\n        /* \"#utility.yul\":19669:19722   */\n      tag_381\n        /* \"#utility.yul\":19687:19721   */\n      tag_382\n        /* \"#utility.yul\":19696:19720   */\n      tag_383\n        /* \"#utility.yul\":19714:19719   */\n      dup5\n        /* \"#utility.yul\":19696:19720   */\n      tag_141\n      jump\t// in\n    tag_383:\n        /* \"#utility.yul\":19687:19721   */\n      tag_188\n      jump\t// in\n    tag_382:\n        /* \"#utility.yul\":19669:19722   */\n      tag_141\n      jump\t// in\n    tag_381:\n        /* \"#utility.yul\":19656:19722   */\n      swap1\n      pop\n        /* \"#utility.yul\":19586:19728   */\n      swap2\n      swap1\n      pop\n      jump\t// out\n        /* \"#utility.yul\":19734:19809   */\n    tag_190:\n        /* \"#utility.yul\":19777:19780   */\n      0x00\n        /* \"#utility.yul\":19798:19803   */\n      dup2\n        /* \"#utility.yul\":19791:19803   */\n      swap1\n      pop\n        /* \"#utility.yul\":19734:19809   */\n      swap2\n      swap1\n      pop\n      jump\t// out\n        /* \"#utility.yul\":19815:20084   */\n    tag_191:\n        /* \"#utility.yul\":19925:19964   */\n      tag_386\n        /* \"#utility.yul\":19956:19963   */\n      dup4\n        /* \"#utility.yul\":19925:19964   */\n      tag_189\n      jump\t// in\n    tag_386:\n        /* \"#utility.yul\":19986:20077   */\n      tag_387\n        /* \"#utility.yul\":20035:20076   */\n      tag_388\n        /* \"#utility.yul\":20059:20075   */\n      dup3\n        /* \"#utility.yul\":20035:20076   */\n      tag_190\n      jump\t// in\n    tag_388:\n        /* \"#utility.yul\":20027:20033   */\n      dup5\n        /* \"#utility.yul\":20020:20024   */\n      dup5\n        /* \"#utility.yul\":20014:20025   */\n      sload\n        /* \"#utility.yul\":19986:20077   */\n      tag_187\n      jump\t// in\n    tag_387:\n        /* \"#utility.yul\":19980:19984   */\n      dup3\n        /* \"#utility.yul\":19973:20078   */\n      sstore\n        /* \"#utility.yul\":19891:20084   */\n      pop\n        /* \"#utility.yul\":19815:20084   */\n      pop\n      pop\n      pop\n      jump\t// out\n        /* \"#utility.yul\":20090:20163   */\n    tag_192:\n        /* \"#utility.yul\":20135:20138   */\n      0x00\n        /* \"#utility.yul\":20090:20163   */\n      swap1\n      jump\t// out\n        /* \"#utility.yul\":20169:20358   */\n    tag_193:\n        /* \"#utility.yul\":20246:20278   */\n      tag_391\n      tag_192\n      jump\t// in\n    tag_391:\n        /* \"#utility.yul\":20287:20352   */\n      tag_392\n        /* \"#utility.yul\":20345:20351   */\n      dup2\n        /* \"#utility.yul\":20337:20343   */\n      dup5\n        /* \"#utility.yul\":20331:20335   */\n      dup5\n        /* \"#utility.yul\":20287:20352   */\n      tag_191\n      jump\t// in\n    tag_392:\n        /* \"#utility.yul\":20222:20358   */\n      pop\n        /* \"#utility.yul\":20169:20358   */\n      pop\n      pop\n      jump\t// out\n        /* \"#utility.yul\":20364:20550   */\n    tag_194:\n        /* \"#utility.yul\":20424:20544   */\n    tag_394:\n        /* \"#utility.yul\":20441:20444   */\n      dup2\n        /* \"#utility.yul\":20434:20439   */\n      dup2\n        /* \"#utility.yul\":20431:20445   */\n      lt\n        /* \"#utility.yul\":20424:20544   */\n      iszero\n      tag_396\n      jumpi\n        /* \"#utility.yul\":20495:20534   */\n      tag_397\n        /* \"#utility.yul\":20532:20533   */\n      0x00\n        /* \"#utility.yul\":20525:20530   */\n      dup3\n        /* \"#utility.yul\":20495:20534   */\n      tag_193\n      jump\t// in\n    tag_397:\n        /* \"#utility.yul\":20468:20469   */\n      0x01\n        /* \"#utility.yul\":20461:20466   */\n      dup2\n        /* \"#utility.yul\":20457:20470   */\n      add\n        /* \"#utility.yul\":20448:20470   */\n      swap1\n      pop\n        /* \"#utility.yul\":20424:20544   */\n      jump(tag_394)\n    tag_396:\n        /* \"#utility.yul\":20364:20550   */\n      pop\n      pop\n      jump\t// out\n        /* \"#utility.yul\":20556:21099   */\n    tag_195:\n        /* \"#utility.yul\":20657:20659   */\n      0x1f\n        /* \"#utility.yul\":20652:20655   */\n      dup3\n        /* \"#utility.yul\":20649:20660   */\n      gt\n        /* \"#utility.yul\":20646:21092   */\n      iszero\n      tag_399\n      jumpi\n        /* \"#utility.yul\":20691:20729   */\n      tag_400\n        /* \"#utility.yul\":20723:20728   */\n      dup2\n        /* \"#utility.yul\":20691:20729   */\n      tag_184\n      jump\t// in\n    tag_400:\n        /* \"#utility.yul\":20775:20804   */\n      tag_401\n        /* \"#utility.yul\":20793:20803   */\n      dup5\n        /* \"#utility.yul\":20775:20804   */\n      tag_185\n      jump\t// in\n    tag_401:\n        /* \"#utility.yul\":20765:20773   */\n      dup2\n        /* \"#utility.yul\":20761:20805   */\n      add\n        /* \"#utility.yul\":20958:20960   */\n      0x20\n        /* \"#utility.yul\":20946:20956   */\n      dup6\n        /* \"#utility.yul\":20943:20961   */\n      lt\n        /* \"#utility.yul\":20940:20989   */\n      iszero\n      tag_402\n      jumpi\n        /* \"#utility.yul\":20979:20987   */\n      dup2\n        /* \"#utility.yul\":20964:20987   */\n      swap1\n      pop\n        /* \"#utility.yul\":20940:20989   */\n    tag_402:\n        /* \"#utility.yul\":21002:21082   */\n      tag_403\n        /* \"#utility.yul\":21058:21080   */\n      tag_404\n        /* \"#utility.yul\":21076:21079   */\n      dup6\n        /* \"#utility.yul\":21058:21080   */\n      tag_185\n      jump\t// in\n    tag_404:\n        /* \"#utility.yul\":21048:21056   */\n      dup4\n        /* \"#utility.yul\":21044:21081   */\n      add\n        /* \"#utility.yul\":21031:21042   */\n      dup3\n        /* \"#utility.yul\":21002:21082   */\n      tag_194\n      jump\t// in\n    tag_403:\n        /* \"#utility.yul\":20661:21092   */\n      pop\n      pop\n        /* \"#utility.yul\":20646:21092   */\n    tag_399:\n        /* \"#utility.yul\":20556:21099   */\n      pop\n      pop\n      pop\n      jump\t// out\n        /* \"#utility.yul\":21105:21222   */\n    tag_196:\n        /* \"#utility.yul\":21159:21167   */\n      0x00\n        /* \"#utility.yul\":21209:21214   */\n      dup3\n        /* \"#utility.yul\":21203:21207   */\n      dup3\n        /* \"#utility.yul\":21199:21215   */\n      shr\n        /* \"#utility.yul\":21178:21215   */\n      swap1\n      pop\n        /* \"#utility.yul\":21105:21222   */\n      swap3\n      swap2\n      pop\n      pop\n      jump\t// out\n        /* \"#utility.yul\":21228:21397   */\n    tag_197:\n        /* \"#utility.yul\":21272:21278   */\n      0x00\n        /* \"#utility.yul\":21305:21356   */\n      tag_407\n        /* \"#utility.yul\":21353:21354   */\n      0x00\n        /* \"#utility.yul\":21349:21355   */\n      not\n        /* \"#utility.yul\":21341:21346   */\n      dup5\n        /* \"#utility.yul\":21338:21339   */\n      0x08\n        /* \"#utility.yul\":21334:21347   */\n      mul\n        /* \"#utility.yul\":21305:21356   */\n      tag_196\n      jump\t// in\n    tag_407:\n        /* \"#utility.yul\":21301:21357   */\n      not\n        /* \"#utility.yul\":21386:21390   */\n      dup1\n        /* \"#utility.yul\":21380:21384   */\n      dup4\n        /* \"#utility.yul\":21376:21391   */\n      and\n        /* \"#utility.yul\":21366:21391   */\n      swap2\n      pop\n        /* \"#utility.yul\":21279:21397   */\n      pop\n        /* \"#utility.yul\":21228:21397   */\n      swap3\n      swap2\n      pop\n      pop\n      jump\t// out\n        /* \"#utility.yul\":21402:21697   */\n    tag_198:\n        /* \"#utility.yul\":21478:21482   */\n      0x00\n        /* \"#utility.yul\":21624:21653   */\n      tag_409\n        /* \"#utility.yul\":21649:21652   */\n      dup4\n        /* \"#utility.yul\":21643:21647   */\n      dup4\n        /* \"#utility.yul\":21624:21653   */\n      tag_197\n      jump\t// in\n    tag_409:\n        /* \"#utility.yul\":21616:21653   */\n      swap2\n      pop\n        /* \"#utility.yul\":21686:21689   */\n      dup3\n        /* \"#utility.yul\":21683:21684   */\n      0x02\n        /* \"#utility.yul\":21679:21690   */\n      mul\n        /* \"#utility.yul\":21673:21677   */\n      dup3\n        /* \"#utility.yul\":21670:21691   */\n      or\n        /* \"#utility.yul\":21662:21691   */\n      swap1\n      pop\n        /* \"#utility.yul\":21402:21697   */\n      swap3\n      swap2\n      pop\n      pop\n      jump\t// out\n        /* \"#utility.yul\":21702:23097   */\n    tag_99:\n        /* \"#utility.yul\":21819:21856   */\n      tag_411\n        /* \"#utility.yul\":21852:21855   */\n      dup3\n        /* \"#utility.yul\":21819:21856   */\n      tag_146\n      jump\t// in\n    tag_411:\n        /* \"#utility.yul\":21921:21939   */\n      0xffffffffffffffff\n        /* \"#utility.yul\":21913:21919   */\n      dup2\n        /* \"#utility.yul\":21910:21940   */\n      gt\n        /* \"#utility.yul\":21907:21963   */\n      iszero\n      tag_412\n      jumpi\n        /* \"#utility.yul\":21943:21961   */\n      tag_413\n      tag_168\n      jump\t// in\n    tag_413:\n        /* \"#utility.yul\":21907:21963   */\n    tag_412:\n        /* \"#utility.yul\":21987:22025   */\n      tag_414\n        /* \"#utility.yul\":22019:22023   */\n      dup3\n        /* \"#utility.yul\":22013:22024   */\n      sload\n        /* \"#utility.yul\":21987:22025   */\n      tag_56\n      jump\t// in\n    tag_414:\n        /* \"#utility.yul\":22072:22139   */\n      tag_415\n        /* \"#utility.yul\":22132:22138   */\n      dup3\n        /* \"#utility.yul\":22124:22130   */\n      dup3\n        /* \"#utility.yul\":22118:22122   */\n      dup6\n        /* \"#utility.yul\":22072:22139   */\n      tag_195\n      jump\t// in\n    tag_415:\n        /* \"#utility.yul\":22166:22167   */\n      0x00\n        /* \"#utility.yul\":22190:22194   */\n      0x20\n        /* \"#utility.yul\":22177:22194   */\n      swap1\n      pop\n        /* \"#utility.yul\":22222:22224   */\n      0x1f\n        /* \"#utility.yul\":22214:22220   */\n      dup4\n        /* \"#utility.yul\":22211:22225   */\n      gt\n        /* \"#utility.yul\":22239:22240   */\n      0x01\n        /* \"#utility.yul\":22234:22852   */\n      dup2\n      eq\n      tag_417\n      jumpi\n        /* \"#utility.yul\":22896:22897   */\n      0x00\n        /* \"#utility.yul\":22913:22919   */\n      dup5\n        /* \"#utility.yul\":22910:22987   */\n      iszero\n      tag_418\n      jumpi\n        /* \"#utility.yul\":22962:22971   */\n      dup3\n        /* \"#utility.yul\":22957:22960   */\n      dup8\n        /* \"#utility.yul\":22953:22972   */\n      add\n        /* \"#utility.yul\":22947:22973   */\n      mload\n        /* \"#utility.yul\":22938:22973   */\n      swap1\n      pop\n        /* \"#utility.yul\":22910:22987   */\n    tag_418:\n        /* \"#utility.yul\":23013:23080   */\n      tag_419\n        /* \"#utility.yul\":23073:23079   */\n      dup6\n        /* \"#utility.yul\":23066:23071   */\n      dup3\n        /* \"#utility.yul\":23013:23080   */\n      tag_198\n      jump\t// in\n    tag_419:\n        /* \"#utility.yul\":23007:23011   */\n      dup7\n        /* \"#utility.yul\":23000:23081   */\n      sstore\n        /* \"#utility.yul\":22869:23091   */\n      pop\n        /* \"#utility.yul\":22204:23091   */\n      jump(tag_416)\n        /* \"#utility.yul\":22234:22852   */\n    tag_417:\n        /* \"#utility.yul\":22286:22290   */\n      0x1f\n        /* \"#utility.yul\":22282:22291   */\n      not\n        /* \"#utility.yul\":22274:22280   */\n      dup5\n        /* \"#utility.yul\":22270:22292   */\n      and\n        /* \"#utility.yul\":22320:22357   */\n      tag_420\n        /* \"#utility.yul\":22352:22356   */\n      dup7\n        /* \"#utility.yul\":22320:22357   */\n      tag_184\n      jump\t// in\n    tag_420:\n        /* \"#utility.yul\":22379:22380   */\n      0x00\n        /* \"#utility.yul\":22393:22601   */\n    tag_421:\n        /* \"#utility.yul\":22407:22414   */\n      dup3\n        /* \"#utility.yul\":22404:22405   */\n      dup2\n        /* \"#utility.yul\":22401:22415   */\n      lt\n        /* \"#utility.yul\":22393:22601   */\n      iszero\n      tag_423\n      jumpi\n        /* \"#utility.yul\":22486:22495   */\n      dup5\n        /* \"#utility.yul\":22481:22484   */\n      dup10\n        /* \"#utility.yul\":22477:22496   */\n      add\n        /* \"#utility.yul\":22471:22497   */\n      mload\n        /* \"#utility.yul\":22463:22469   */\n      dup3\n        /* \"#utility.yul\":22456:22498   */\n      sstore\n        /* \"#utility.yul\":22537:22538   */\n      0x01\n        /* \"#utility.yul\":22529:22535   */\n      dup3\n        /* \"#utility.yul\":22525:22539   */\n      add\n        /* \"#utility.yul\":22515:22539   */\n      swap2\n      pop\n        /* \"#utility.yul\":22584:22586   */\n      0x20\n        /* \"#utility.yul\":22573:22582   */\n      dup6\n        /* \"#utility.yul\":22569:22587   */\n      add\n        /* \"#utility.yul\":22556:22587   */\n      swap5\n      pop\n        /* \"#utility.yul\":22430:22434   */\n      0x20\n        /* \"#utility.yul\":22427:22428   */\n      dup2\n        /* \"#utility.yul\":22423:22435   */\n      add\n        /* \"#utility.yul\":22418:22435   */\n      swap1\n      pop\n        /* \"#utility.yul\":22393:22601   */\n      jump(tag_421)\n    tag_423:\n        /* \"#utility.yul\":22629:22635   */\n      dup7\n        /* \"#utility.yul\":22620:22627   */\n      dup4\n        /* \"#utility.yul\":22617:22636   */\n      lt\n        /* \"#utility.yul\":22614:22793   */\n      iszero\n      tag_424\n      jumpi\n        /* \"#utility.yul\":22687:22696   */\n      dup5\n        /* \"#utility.yul\":22682:22685   */\n      dup10\n        /* \"#utility.yul\":22678:22697   */\n      add\n        /* \"#utility.yul\":22672:22698   */\n      mload\n        /* \"#utility.yul\":22730:22778   */\n      tag_425\n        /* \"#utility.yul\":22772:22776   */\n      0x1f\n        /* \"#utility.yul\":22764:22770   */\n      dup10\n        /* \"#utility.yul\":22760:22777   */\n      and\n        /* \"#utility.yul\":22749:22758   */\n      dup3\n        /* \"#utility.yul\":22730:22778   */\n      tag_197\n      jump\t// in\n    tag_425:\n        /* \"#utility.yul\":22722:22728   */\n      dup4\n        /* \"#utility.yul\":22715:22779   */\n      sstore\n        /* \"#utility.yul\":22637:22793   */\n      pop\n        /* \"#utility.yul\":22614:22793   */\n    tag_424:\n        /* \"#utility.yul\":22839:22840   */\n      0x01\n        /* \"#utility.yul\":22835:22836   */\n      0x02\n        /* \"#utility.yul\":22827:22833   */\n      dup9\n        /* \"#utility.yul\":22823:22837   */\n      mul\n        /* \"#utility.yul\":22819:22841   */\n      add\n        /* \"#utility.yul\":22813:22817   */\n      dup9\n        /* \"#utility.yul\":22806:22842   */\n      sstore\n        /* \"#utility.yul\":22241:22852   */\n      pop\n      pop\n      pop\n        /* \"#utility.yul\":22204:23091   */\n    tag_416:\n      pop\n        /* \"#utility.yul\":21794:23097   */\n      pop\n      pop\n      pop\n        /* \"#utility.yul\":21702:23097   */\n      pop\n      pop\n      jump\t// out\n        /* \"#utility.yul\":23103:23747   */\n    tag_101:\n        /* \"#utility.yul\":23300:23304   */\n      0x00\n        /* \"#utility.yul\":23338:23341   */\n      0x80\n        /* \"#utility.yul\":23327:23336   */\n      dup3\n        /* \"#utility.yul\":23323:23342   */\n      add\n        /* \"#utility.yul\":23315:23342   */\n      swap1\n      pop\n        /* \"#utility.yul\":23352:23423   */\n      tag_427\n        /* \"#utility.yul\":23420:23421   */\n      0x00\n        /* \"#utility.yul\":23409:23418   */\n      dup4\n        /* \"#utility.yul\":23405:23422   */\n      add\n        /* \"#utility.yul\":23396:23402   */\n      dup8\n        /* \"#utility.yul\":23352:23423   */\n      tag_144\n      jump\t// in\n    tag_427:\n        /* \"#utility.yul\":23433:23505   */\n      tag_428\n        /* \"#utility.yul\":23501:23503   */\n      0x20\n        /* \"#utility.yul\":23490:23499   */\n      dup4\n        /* \"#utility.yul\":23486:23504   */\n      add\n        /* \"#utility.yul\":23477:23483   */\n      dup7\n        /* \"#utility.yul\":23433:23505   */\n      tag_145\n      jump\t// in\n    tag_428:\n        /* \"#utility.yul\":23552:23561   */\n      dup2\n        /* \"#utility.yul\":23546:23550   */\n      dup2\n        /* \"#utility.yul\":23542:23562   */\n      sub\n        /* \"#utility.yul\":23537:23539   */\n      0x40\n        /* \"#utility.yul\":23526:23535   */\n      dup4\n        /* \"#utility.yul\":23522:23540   */\n      add\n        /* \"#utility.yul\":23515:23563   */\n      mstore\n        /* \"#utility.yul\":23580:23658   */\n      tag_429\n        /* \"#utility.yul\":23653:23657   */\n      dup2\n        /* \"#utility.yul\":23644:23650   */\n      dup6\n        /* \"#utility.yul\":23580:23658   */\n      tag_150\n      jump\t// in\n    tag_429:\n        /* \"#utility.yul\":23572:23658   */\n      swap1\n      pop\n        /* \"#utility.yul\":23668:23740   */\n      tag_430\n        /* \"#utility.yul\":23736:23738   */\n      0x60\n        /* \"#utility.yul\":23725:23734   */\n      dup4\n        /* \"#utility.yul\":23721:23739   */\n      add\n        /* \"#utility.yul\":23712:23718   */\n      dup5\n        /* \"#utility.yul\":23668:23740   */\n      tag_144\n      jump\t// in\n    tag_430:\n        /* \"#utility.yul\":23103:23747   */\n      swap6\n      swap5\n      pop\n      pop\n      pop\n      pop\n      pop\n      jump\t// out\n        /* \"#utility.yul\":23753:23921   */\n    tag_199:\n        /* \"#utility.yul\":23893:23913   */\n      0x545745455420484153204e4f204c494b45530000000000000000000000000000\n        /* \"#utility.yul\":23889:23890   */\n      0x00\n        /* \"#utility.yul\":23881:23887   */\n      dup3\n        /* \"#utility.yul\":23877:23891   */\n      add\n        /* \"#utility.yul\":23870:23914   */\n      mstore\n        /* \"#utility.yul\":23753:23921   */\n      pop\n      jump\t// out\n        /* \"#utility.yul\":23927:24293   */\n    tag_200:\n        /* \"#utility.yul\":24069:24072   */\n      0x00\n        /* \"#utility.yul\":24090:24157   */\n      tag_433\n        /* \"#utility.yul\":24154:24156   */\n      0x12\n        /* \"#utility.yul\":24149:24152   */\n      dup4\n        /* \"#utility.yul\":24090:24157   */\n      tag_147\n      jump\t// in\n    tag_433:\n        /* \"#utility.yul\":24083:24157   */\n      swap2\n      pop\n        /* \"#utility.yul\":24166:24259   */\n      tag_434\n        /* \"#utility.yul\":24255:24258   */\n      dup3\n        /* \"#utility.yul\":24166:24259   */\n      tag_199\n      jump\t// in\n    tag_434:\n        /* \"#utility.yul\":24284:24286   */\n      0x20\n        /* \"#utility.yul\":24279:24282   */\n      dup3\n        /* \"#utility.yul\":24275:24287   */\n      add\n        /* \"#utility.yul\":24268:24287   */\n      swap1\n      pop\n        /* \"#utility.yul\":23927:24293   */\n      swap2\n      swap1\n      pop\n      jump\t// out\n        /* \"#utility.yul\":24299:24718   */\n    tag_113:\n        /* \"#utility.yul\":24465:24469   */\n      0x00\n        /* \"#utility.yul\":24503:24505   */\n      0x20\n        /* \"#utility.yul\":24492:24501   */\n      dup3\n        /* \"#utility.yul\":24488:24506   */\n      add\n        /* \"#utility.yul\":24480:24506   */\n      swap1\n      pop\n        /* \"#utility.yul\":24552:24561   */\n      dup2\n        /* \"#utility.yul\":24546:24550   */\n      dup2\n        /* \"#utility.yul\":24542:24562   */\n      sub\n        /* \"#utility.yul\":24538:24539   */\n      0x00\n        /* \"#utility.yul\":24527:24536   */\n      dup4\n        /* \"#utility.yul\":24523:24540   */\n      add\n        /* \"#utility.yul\":24516:24563   */\n      mstore\n        /* \"#utility.yul\":24580:24711   */\n      tag_436\n        /* \"#utility.yul\":24706:24710   */\n      dup2\n        /* \"#utility.yul\":24580:24711   */\n      tag_200\n      jump\t// in\n    tag_436:\n        /* \"#utility.yul\":24572:24711   */\n      swap1\n      pop\n        /* \"#utility.yul\":24299:24718   */\n      swap2\n      swap1\n      pop\n      jump\t// out\n        /* \"#utility.yul\":24724:24895   */\n    tag_118:\n        /* \"#utility.yul\":24763:24766   */\n      0x00\n        /* \"#utility.yul\":24786:24810   */\n      tag_438\n        /* \"#utility.yul\":24804:24809   */\n      dup3\n        /* \"#utility.yul\":24786:24810   */\n      tag_141\n      jump\t// in\n    tag_438:\n        /* \"#utility.yul\":24777:24810   */\n      swap2\n      pop\n        /* \"#utility.yul\":24832:24836   */\n      0x00\n        /* \"#utility.yul\":24825:24830   */\n      dup3\n        /* \"#utility.yul\":24822:24837   */\n      sub\n        /* \"#utility.yul\":24819:24860   */\n      tag_439\n      jumpi\n        /* \"#utility.yul\":24840:24858   */\n      tag_440\n      tag_181\n      jump\t// in\n    tag_440:\n        /* \"#utility.yul\":24819:24860   */\n    tag_439:\n        /* \"#utility.yul\":24887:24888   */\n      0x01\n        /* \"#utility.yul\":24880:24885   */\n      dup3\n        /* \"#utility.yul\":24876:24889   */\n      sub\n        /* \"#utility.yul\":24869:24889   */\n      swap1\n      pop\n        /* \"#utility.yul\":24724:24895   */\n      swap2\n      swap1\n      pop\n      jump\t// out\n\n    auxdata: 0xa2646970667358221220b41eba9a3db47a2d2e1b0c70b680aecb4937454965bf44d31282e9e104564d2d64736f6c634300081a0033\n}\n",
				"bytecode": {
					"linkReferences": {},
					"object": "608060405260ff5f806101000a81548161ffff021916908361ffff160217905550348015602a575f80fd5b503360025f6101000a81548173ffffffffffffffffffffffffffffffffffffffff021916908373ffffffffffffffffffffffffffffffffffffffff16021790555061196a806100785f395ff3fe608060405234801561000f575f80fd5b5060043610610091575f3560e01c80636eb10797116100645780636eb10797146101315780637c9cd2bc1461014f5780638da5cb5b1461016b5780639ef8633f14610189578063c3ad5ecb146101a557610091565b806305a1b4a91461009557806312e7ee1c146100c957806358bfa4ab146100f95780636337821614610115575b5f80fd5b6100af60048036038101906100aa9190610d9f565b6101d5565b6040516100c0959493929190610e6b565b60405180910390f35b6100e360048036038101906100de9190610ec3565b6102c6565b6040516100f09190611082565b60405180910390f35b610113600480360381019061010e91906110d9565b610461565b005b61012f600480360381019061012a9190610d9f565b61050e565b005b6101396106bf565b6040516101469190611113565b60405180910390f35b61016960048036038101906101649190611258565b6106d0565b005b6101736108d3565b604051610180919061129f565b60405180910390f35b6101a3600480360381019061019e9190610d9f565b6108f8565b005b6101bf60048036038101906101ba91906112b8565b610b49565b6040516101cc9190611356565b60405180910390f35b6001602052815f5260405f2081815481106101ee575f80fd5b905f5260205f2090600502015f9150915050805f015490806001015f9054906101000a900473ffffffffffffffffffffffffffffffffffffffff1690806002018054610239906113a3565b80601f0160208091040260200160405190810160405280929190818152602001828054610265906113a3565b80156102b05780601f10610287576101008083540402835291602001916102b0565b820191905f5260205f20905b81548152906001019060200180831161029357829003601f168201915b5050505050908060030154908060040154905085565b606060015f8373ffffffffffffffffffffffffffffffffffffffff1673ffffffffffffffffffffffffffffffffffffffff1681526020019081526020015f20805480602002602001604051908101604052809291908181526020015f905b82821015610456578382905f5260205f2090600502016040518060a00160405290815f8201548152602001600182015f9054906101000a900473ffffffffffffffffffffffffffffffffffffffff1673ffffffffffffffffffffffffffffffffffffffff1673ffffffffffffffffffffffffffffffffffffffff1681526020016002820180546103b3906113a3565b80601f01602080910402602001604051908101604052809291908181526020018280546103df906113a3565b801561042a5780601f106104015761010080835404028352916020019161042a565b820191905f5260205f20905b81548152906001019060200180831161040d57829003601f168201915b505050505081526020016003820154815260200160048201548152505081526020019060010190610324565b505050509050919050565b60025f9054906101000a900473ffffffffffffffffffffffffffffffffffffffff1673ffffffffffffffffffffffffffffffffffffffff163373ffffffffffffffffffffffffffffffffffffffff16146104f0576040517f08c379a00000000000000000000000000000000000000000000000000000000081526004016104e79061141d565b60405180910390fd5b805f806101000a81548161ffff021916908361ffff16021790555050565b8060015f8473ffffffffffffffffffffffffffffffffffffffff1673ffffffffffffffffffffffffffffffffffffffff1681526020019081526020015f20828154811061055e5761055d61143b565b5b905f5260205f2090600502015f0154146105ad576040517f08c379a00000000000000000000000000000000000000000000000000000000081526004016105a4906114b2565b60405180910390fd5b60015f8373ffffffffffffffffffffffffffffffffffffffff1673ffffffffffffffffffffffffffffffffffffffff1681526020019081526020015f2081815481106105fc576105fb61143b565b5b905f5260205f2090600502016004015f81548092919061061b906114fd565b91905055507fe8a76fc0f16d11a00d1e93b689b63d76cf60af914dd3d915375dc41d01a0c3c833838360015f8773ffffffffffffffffffffffffffffffffffffffff1673ffffffffffffffffffffffffffffffffffffffff1681526020019081526020015f2085815481106106935761069261143b565b5b905f5260205f209060050201600401546040516106b39493929190611544565b60405180910390a15050565b5f8054906101000a900461ffff1681565b5f8054906101000a900461ffff1661ffff1681511115610725576040517f08c379a000000000000000000000000000000000000000000000000000000000815260040161071c906115d1565b60405180910390fd5b5f6040518060a0016040528060015f3373ffffffffffffffffffffffffffffffffffffffff1673ffffffffffffffffffffffffffffffffffffffff1681526020019081526020015f208054905081526020013373ffffffffffffffffffffffffffffffffffffffff1681526020018381526020014281526020015f815250905060015f3373ffffffffffffffffffffffffffffffffffffffff1673ffffffffffffffffffffffffffffffffffffffff1681526020019081526020015f2081908060018154018082558091505060019003905f5260205f2090600502015f909190919091505f820151815f01556020820151816001015f6101000a81548173ffffffffffffffffffffffffffffffffffffffff021916908373ffffffffffffffffffffffffffffffffffffffff160217905550604082015181600201908161086c919061178c565b50606082015181600301556080820151816004015550507f16fd3c13e9d46923e0a8bce11c7b473ec508a72e6c96cd2404b29ce972afc29e815f01518260200151836040015184606001516040516108c7949392919061185b565b60405180910390a15050565b60025f9054906101000a900473ffffffffffffffffffffffffffffffffffffffff1681565b8060015f8473ffffffffffffffffffffffffffffffffffffffff1673ffffffffffffffffffffffffffffffffffffffff1681526020019081526020015f2082815481106109485761094761143b565b5b905f5260205f2090600502015f015414610997576040517f08c379a000000000000000000000000000000000000000000000000000000000815260040161098e906114b2565b60405180910390fd5b5f60015f8473ffffffffffffffffffffffffffffffffffffffff1673ffffffffffffffffffffffffffffffffffffffff1681526020019081526020015f2082815481106109e7576109e661143b565b5b905f5260205f2090600502016004015411610a37576040517f08c379a0000000000000000000000000000000000000000000000000000000008152600401610a2e906118ef565b60405180910390fd5b60015f8373ffffffffffffffffffffffffffffffffffffffff1673ffffffffffffffffffffffffffffffffffffffff1681526020019081526020015f208181548110610a8657610a8561143b565b5b905f5260205f2090600502016004015f815480929190610aa59061190d565b91905055507f762c2616349603ac16eba0de8e6141b79129a07ab63bd99e0a80b3a47171694333838360015f8773ffffffffffffffffffffffffffffffffffffffff1673ffffffffffffffffffffffffffffffffffffffff1681526020019081526020015f208581548110610b1d57610b1c61143b565b5b905f5260205f20906005020160040154604051610b3d9493929190611544565b60405180910390a15050565b610b51610cc0565b60015f3373ffffffffffffffffffffffffffffffffffffffff1673ffffffffffffffffffffffffffffffffffffffff1681526020019081526020015f208281548110610ba057610b9f61143b565b5b905f5260205f2090600502016040518060a00160405290815f8201548152602001600182015f9054906101000a900473ffffffffffffffffffffffffffffffffffffffff1673ffffffffffffffffffffffffffffffffffffffff1673ffffffffffffffffffffffffffffffffffffffff168152602001600282018054610c25906113a3565b80601f0160208091040260200160405190810160405280929190818152602001828054610c51906113a3565b8015610c9c5780601f10610c7357610100808354040283529160200191610c9c565b820191905f5260205f20905b815481529060010190602001808311610c7f57829003601f168201915b50505050508152602001600382015481526020016004820154815250509050919050565b6040518060a001604052805f81526020015f73ffffffffffffffffffffffffffffffffffffffff168152602001606081526020015f81526020015f81525090565b5f604051905090565b5f80fd5b5f80fd5b5f73ffffffffffffffffffffffffffffffffffffffff82169050919050565b5f610d3b82610d12565b9050919050565b610d4b81610d31565b8114610d55575f80fd5b50565b5f81359050610d6681610d42565b92915050565b5f819050919050565b610d7e81610d6c565b8114610d88575f80fd5b50565b5f81359050610d9981610d75565b92915050565b5f8060408385031215610db557610db4610d0a565b5b5f610dc285828601610d58565b9250506020610dd385828601610d8b565b9150509250929050565b610de681610d6c565b82525050565b610df581610d31565b82525050565b5f81519050919050565b5f82825260208201905092915050565b8281835e5f83830152505050565b5f601f19601f8301169050919050565b5f610e3d82610dfb565b610e478185610e05565b9350610e57818560208601610e15565b610e6081610e23565b840191505092915050565b5f60a082019050610e7e5f830188610ddd565b610e8b6020830187610dec565b8181036040830152610e9d8186610e33565b9050610eac6060830185610ddd565b610eb96080830184610ddd565b9695505050505050565b5f60208284031215610ed857610ed7610d0a565b5b5f610ee584828501610d58565b91505092915050565b5f81519050919050565b5f82825260208201905092915050565b5f819050602082019050919050565b610f2081610d6c565b82525050565b610f2f81610d31565b82525050565b5f82825260208201905092915050565b5f610f4f82610dfb565b610f598185610f35565b9350610f69818560208601610e15565b610f7281610e23565b840191505092915050565b5f60a083015f830151610f925f860182610f17565b506020830151610fa56020860182610f26565b5060408301518482036040860152610fbd8282610f45565b9150506060830151610fd26060860182610f17565b506080830151610fe56080860182610f17565b508091505092915050565b5f610ffb8383610f7d565b905092915050565b5f602082019050919050565b5f61101982610eee565b6110238185610ef8565b93508360208202850161103585610f08565b805f5b8581101561107057848403895281516110518582610ff0565b945061105c83611003565b925060208a01995050600181019050611038565b50829750879550505050505092915050565b5f6020820190508181035f83015261109a818461100f565b905092915050565b5f61ffff82169050919050565b6110b8816110a2565b81146110c2575f80fd5b50565b5f813590506110d3816110af565b92915050565b5f602082840312156110ee576110ed610d0a565b5b5f6110fb848285016110c5565b91505092915050565b61110d816110a2565b82525050565b5f6020820190506111265f830184611104565b92915050565b5f80fd5b5f80fd5b7f4e487b71000000000000000000000000000000000000000000000000000000005f52604160045260245ffd5b61116a82610e23565b810181811067ffffffffffffffff8211171561118957611188611134565b5b80604052505050565b5f61119b610d01565b90506111a78282611161565b919050565b5f67ffffffffffffffff8211156111c6576111c5611134565b5b6111cf82610e23565b9050602081019050919050565b828183375f83830152505050565b5f6111fc6111f7846111ac565b611192565b90508281526020810184848401111561121857611217611130565b5b6112238482856111dc565b509392505050565b5f82601f83011261123f5761123e61112c565b5b813561124f8482602086016111ea565b91505092915050565b5f6020828403121561126d5761126c610d0a565b5b5f82013567ffffffffffffffff81111561128a57611289610d0e565b5b6112968482850161122b565b91505092915050565b5f6020820190506112b25f830184610dec565b92915050565b5f602082840312156112cd576112cc610d0a565b5b5f6112da84828501610d8b565b91505092915050565b5f60a083015f8301516112f85f860182610f17565b50602083015161130b6020860182610f26565b50604083015184820360408601526113238282610f45565b91505060608301516113386060860182610f17565b50608083015161134b6080860182610f17565b508091505092915050565b5f6020820190508181035f83015261136e81846112e3565b905092915050565b7f4e487b71000000000000000000000000000000000000000000000000000000005f52602260045260245ffd5b5f60028204905060018216806113ba57607f821691505b6020821081036113cd576113cc611376565b5b50919050565b7f594f5520415245204e4f5420544845204f574e455200000000000000000000005f82015250565b5f611407601583610e05565b9150611412826113d3565b602082019050919050565b5f6020820190508181035f830152611434816113fb565b9050919050565b7f4e487b71000000000000000000000000000000000000000000000000000000005f52603260045260245ffd5b7f545745455420444f5345204e4f542045584953540000000000000000000000005f82015250565b5f61149c601483610e05565b91506114a782611468565b602082019050919050565b5f6020820190508181035f8301526114c981611490565b9050919050565b7f4e487b71000000000000000000000000000000000000000000000000000000005f52601160045260245ffd5b5f61150782610d6c565b91507fffffffffffffffffffffffffffffffffffffffffffffffffffffffffffffffff8203611539576115386114d0565b5b600182019050919050565b5f6080820190506115575f830187610dec565b6115646020830186610dec565b6115716040830185610ddd565b61157e6060830184610ddd565b95945050505050565b7f596f757220747765657420697320746f6f206c6f6e672062726f0000000000005f82015250565b5f6115bb601a83610e05565b91506115c682611587565b602082019050919050565b5f6020820190508181035f8301526115e8816115af565b9050919050565b5f819050815f5260205f209050919050565b5f6020601f8301049050919050565b5f82821b905092915050565b5f6008830261164b7fffffffffffffffffffffffffffffffffffffffffffffffffffffffffffffffff82611610565b6116558683611610565b95508019841693508086168417925050509392505050565b5f819050919050565b5f61169061168b61168684610d6c565b61166d565b610d6c565b9050919050565b5f819050919050565b6116a983611676565b6116bd6116b582611697565b84845461161c565b825550505050565b5f90565b6116d16116c5565b6116dc8184846116a0565b505050565b5b818110156116ff576116f45f826116c9565b6001810190506116e2565b5050565b601f82111561174457611715816115ef565b61171e84611601565b8101602085101561172d578190505b61174161173985611601565b8301826116e1565b50505b505050565b5f82821c905092915050565b5f6117645f1984600802611749565b1980831691505092915050565b5f61177c8383611755565b9150826002028217905092915050565b61179582610dfb565b67ffffffffffffffff8111156117ae576117ad611134565b5b6117b882546113a3565b6117c3828285611703565b5f60209050601f8311600181146117f4575f84156117e2578287015190505b6117ec8582611771565b865550611853565b601f198416611802866115ef565b5f5b8281101561182957848901518255600182019150602085019450602081019050611804565b868310156118465784890151611842601f891682611755565b8355505b6001600288020188555050505b505050505050565b5f60808201905061186e5f830187610ddd565b61187b6020830186610dec565b818103604083015261188d8185610e33565b905061189c6060830184610ddd565b95945050505050565b7f545745455420484153204e4f204c494b455300000000000000000000000000005f82015250565b5f6118d9601283610e05565b91506118e4826118a5565b602082019050919050565b5f6020820190508181035f830152611906816118cd565b9050919050565b5f61191782610d6c565b91505f8203611929576119286114d0565b5b60018203905091905056fea2646970667358221220b41eba9a3db47a2d2e1b0c70b680aecb4937454965bf44d31282e9e104564d2d64736f6c634300081a0033",
					"opcodes": "PUSH1 0x80 PUSH1 0x40 MSTORE PUSH1 0xFF PUSH0 DUP1 PUSH2 0x100 EXP DUP2 SLOAD DUP2 PUSH2 0xFFFF MUL NOT AND SWAP1 DUP4 PUSH2 0xFFFF AND MUL OR SWAP1 SSTORE POP CALLVALUE DUP1 ISZERO PUSH1 0x2A JUMPI PUSH0 DUP1 REVERT JUMPDEST POP CALLER PUSH1 0x2 PUSH0 PUSH2 0x100 EXP DUP2 SLOAD DUP2 PUSH20 0xFFFFFFFFFFFFFFFFFFFFFFFFFFFFFFFFFFFFFFFF MUL NOT AND SWAP1 DUP4 PUSH20 0xFFFFFFFFFFFFFFFFFFFFFFFFFFFFFFFFFFFFFFFF AND MUL OR SWAP1 SSTORE POP PUSH2 0x196A DUP1 PUSH2 0x78 PUSH0 CODECOPY PUSH0 RETURN INVALID PUSH1 0x80 PUSH1 0x40 MSTORE CALLVALUE DUP1 ISZERO PUSH2 0xF JUMPI PUSH0 DUP1 REVERT JUMPDEST POP PUSH1 0x4 CALLDATASIZE LT PUSH2 0x91 JUMPI PUSH0 CALLDATALOAD PUSH1 0xE0 SHR DUP1 PUSH4 0x6EB10797 GT PUSH2 0x64 JUMPI DUP1 PUSH4 0x6EB10797 EQ PUSH2 0x131 JUMPI DUP1 PUSH4 0x7C9CD2BC EQ PUSH2 0x14F JUMPI DUP1 PUSH4 0x8DA5CB5B EQ PUSH2 0x16B JUMPI DUP1 PUSH4 0x9EF8633F EQ PUSH2 0x189 JUMPI DUP1 PUSH4 0xC3AD5ECB EQ PUSH2 0x1A5 JUMPI PUSH2 0x91 JUMP JUMPDEST DUP1 PUSH4 0x5A1B4A9 EQ PUSH2 0x95 JUMPI DUP1 PUSH4 0x12E7EE1C EQ PUSH2 0xC9 JUMPI DUP1 PUSH4 0x58BFA4AB EQ PUSH2 0xF9 JUMPI DUP1 PUSH4 0x63378216 EQ PUSH2 0x115 JUMPI JUMPDEST PUSH0 DUP1 REVERT JUMPDEST PUSH2 0xAF PUSH1 0x4 DUP1 CALLDATASIZE SUB DUP2 ADD SWAP1 PUSH2 0xAA SWAP2 SWAP1 PUSH2 0xD9F JUMP JUMPDEST PUSH2 0x1D5 JUMP JUMPDEST PUSH1 0x40 MLOAD PUSH2 0xC0 SWAP6 SWAP5 SWAP4 SWAP3 SWAP2 SWAP1 PUSH2 0xE6B JUMP JUMPDEST PUSH1 0x40 MLOAD DUP1 SWAP2 SUB SWAP1 RETURN JUMPDEST PUSH2 0xE3 PUSH1 0x4 DUP1 CALLDATASIZE SUB DUP2 ADD SWAP1 PUSH2 0xDE SWAP2 SWAP1 PUSH2 0xEC3 JUMP JUMPDEST PUSH2 0x2C6 JUMP JUMPDEST PUSH1 0x40 MLOAD PUSH2 0xF0 SWAP2 SWAP1 PUSH2 0x1082 JUMP JUMPDEST PUSH1 0x40 MLOAD DUP1 SWAP2 SUB SWAP1 RETURN JUMPDEST PUSH2 0x113 PUSH1 0x4 DUP1 CALLDATASIZE SUB DUP2 ADD SWAP1 PUSH2 0x10E SWAP2 SWAP1 PUSH2 0x10D9 JUMP JUMPDEST PUSH2 0x461 JUMP JUMPDEST STOP JUMPDEST PUSH2 0x12F PUSH1 0x4 DUP1 CALLDATASIZE SUB DUP2 ADD SWAP1 PUSH2 0x12A SWAP2 SWAP1 PUSH2 0xD9F JUMP JUMPDEST PUSH2 0x50E JUMP JUMPDEST STOP JUMPDEST PUSH2 0x139 PUSH2 0x6BF JUMP JUMPDEST PUSH1 0x40 MLOAD PUSH2 0x146 SWAP2 SWAP1 PUSH2 0x1113 JUMP JUMPDEST PUSH1 0x40 MLOAD DUP1 SWAP2 SUB SWAP1 RETURN JUMPDEST PUSH2 0x169 PUSH1 0x4 DUP1 CALLDATASIZE SUB DUP2 ADD SWAP1 PUSH2 0x164 SWAP2 SWAP1 PUSH2 0x1258 JUMP JUMPDEST PUSH2 0x6D0 JUMP JUMPDEST STOP JUMPDEST PUSH2 0x173 PUSH2 0x8D3 JUMP JUMPDEST PUSH1 0x40 MLOAD PUSH2 0x180 SWAP2 SWAP1 PUSH2 0x129F JUMP JUMPDEST PUSH1 0x40 MLOAD DUP1 SWAP2 SUB SWAP1 RETURN JUMPDEST PUSH2 0x1A3 PUSH1 0x4 DUP1 CALLDATASIZE SUB DUP2 ADD SWAP1 PUSH2 0x19E SWAP2 SWAP1 PUSH2 0xD9F JUMP JUMPDEST PUSH2 0x8F8 JUMP JUMPDEST STOP JUMPDEST PUSH2 0x1BF PUSH1 0x4 DUP1 CALLDATASIZE SUB DUP2 ADD SWAP1 PUSH2 0x1BA SWAP2 SWAP1 PUSH2 0x12B8 JUMP JUMPDEST PUSH2 0xB49 JUMP JUMPDEST PUSH1 0x40 MLOAD PUSH2 0x1CC SWAP2 SWAP1 PUSH2 0x1356 JUMP JUMPDEST PUSH1 0x40 MLOAD DUP1 SWAP2 SUB SWAP1 RETURN JUMPDEST PUSH1 0x1 PUSH1 0x20 MSTORE DUP2 PUSH0 MSTORE PUSH1 0x40 PUSH0 KECCAK256 DUP2 DUP2 SLOAD DUP2 LT PUSH2 0x1EE JUMPI PUSH0 DUP1 REVERT JUMPDEST SWAP1 PUSH0 MSTORE PUSH1 0x20 PUSH0 KECCAK256 SWAP1 PUSH1 0x5 MUL ADD PUSH0 SWAP2 POP SWAP2 POP POP DUP1 PUSH0 ADD SLOAD SWAP1 DUP1 PUSH1 0x1 ADD PUSH0 SWAP1 SLOAD SWAP1 PUSH2 0x100 EXP SWAP1 DIV PUSH20 0xFFFFFFFFFFFFFFFFFFFFFFFFFFFFFFFFFFFFFFFF AND SWAP1 DUP1 PUSH1 0x2 ADD DUP1 SLOAD PUSH2 0x239 SWAP1 PUSH2 0x13A3 JUMP JUMPDEST DUP1 PUSH1 0x1F ADD PUSH1 0x20 DUP1 SWAP2 DIV MUL PUSH1 0x20 ADD PUSH1 0x40 MLOAD SWAP1 DUP2 ADD PUSH1 0x40 MSTORE DUP1 SWAP3 SWAP2 SWAP1 DUP2 DUP2 MSTORE PUSH1 0x20 ADD DUP3 DUP1 SLOAD PUSH2 0x265 SWAP1 PUSH2 0x13A3 JUMP JUMPDEST DUP1 ISZERO PUSH2 0x2B0 JUMPI DUP1 PUSH1 0x1F LT PUSH2 0x287 JUMPI PUSH2 0x100 DUP1 DUP4 SLOAD DIV MUL DUP4 MSTORE SWAP2 PUSH1 0x20 ADD SWAP2 PUSH2 0x2B0 JUMP JUMPDEST DUP3 ADD SWAP2 SWAP1 PUSH0 MSTORE PUSH1 0x20 PUSH0 KECCAK256 SWAP1 JUMPDEST DUP2 SLOAD DUP2 MSTORE SWAP1 PUSH1 0x1 ADD SWAP1 PUSH1 0x20 ADD DUP1 DUP4 GT PUSH2 0x293 JUMPI DUP3 SWAP1 SUB PUSH1 0x1F AND DUP3 ADD SWAP2 JUMPDEST POP POP POP POP POP SWAP1 DUP1 PUSH1 0x3 ADD SLOAD SWAP1 DUP1 PUSH1 0x4 ADD SLOAD SWAP1 POP DUP6 JUMP JUMPDEST PUSH1 0x60 PUSH1 0x1 PUSH0 DUP4 PUSH20 0xFFFFFFFFFFFFFFFFFFFFFFFFFFFFFFFFFFFFFFFF AND PUSH20 0xFFFFFFFFFFFFFFFFFFFFFFFFFFFFFFFFFFFFFFFF AND DUP2 MSTORE PUSH1 0x20 ADD SWAP1 DUP2 MSTORE PUSH1 0x20 ADD PUSH0 KECCAK256 DUP1 SLOAD DUP1 PUSH1 0x20 MUL PUSH1 0x20 ADD PUSH1 0x40 MLOAD SWAP1 DUP2 ADD PUSH1 0x40 MSTORE DUP1 SWAP3 SWAP2 SWAP1 DUP2 DUP2 MSTORE PUSH1 0x20 ADD PUSH0 SWAP1 JUMPDEST DUP3 DUP3 LT ISZERO PUSH2 0x456 JUMPI DUP4 DUP3 SWAP1 PUSH0 MSTORE PUSH1 0x20 PUSH0 KECCAK256 SWAP1 PUSH1 0x5 MUL ADD PUSH1 0x40 MLOAD DUP1 PUSH1 0xA0 ADD PUSH1 0x40 MSTORE SWAP1 DUP2 PUSH0 DUP3 ADD SLOAD DUP2 MSTORE PUSH1 0x20 ADD PUSH1 0x1 DUP3 ADD PUSH0 SWAP1 SLOAD SWAP1 PUSH2 0x100 EXP SWAP1 DIV PUSH20 0xFFFFFFFFFFFFFFFFFFFFFFFFFFFFFFFFFFFFFFFF AND PUSH20 0xFFFFFFFFFFFFFFFFFFFFFFFFFFFFFFFFFFFFFFFF AND PUSH20 0xFFFFFFFFFFFFFFFFFFFFFFFFFFFFFFFFFFFFFFFF AND DUP2 MSTORE PUSH1 0x20 ADD PUSH1 0x2 DUP3 ADD DUP1 SLOAD PUSH2 0x3B3 SWAP1 PUSH2 0x13A3 JUMP JUMPDEST DUP1 PUSH1 0x1F ADD PUSH1 0x20 DUP1 SWAP2 DIV MUL PUSH1 0x20 ADD PUSH1 0x40 MLOAD SWAP1 DUP2 ADD PUSH1 0x40 MSTORE DUP1 SWAP3 SWAP2 SWAP1 DUP2 DUP2 MSTORE PUSH1 0x20 ADD DUP3 DUP1 SLOAD PUSH2 0x3DF SWAP1 PUSH2 0x13A3 JUMP JUMPDEST DUP1 ISZERO PUSH2 0x42A JUMPI DUP1 PUSH1 0x1F LT PUSH2 0x401 JUMPI PUSH2 0x100 DUP1 DUP4 SLOAD DIV MUL DUP4 MSTORE SWAP2 PUSH1 0x20 ADD SWAP2 PUSH2 0x42A JUMP JUMPDEST DUP3 ADD SWAP2 SWAP1 PUSH0 MSTORE PUSH1 0x20 PUSH0 KECCAK256 SWAP1 JUMPDEST DUP2 SLOAD DUP2 MSTORE SWAP1 PUSH1 0x1 ADD SWAP1 PUSH1 0x20 ADD DUP1 DUP4 GT PUSH2 0x40D JUMPI DUP3 SWAP1 SUB PUSH1 0x1F AND DUP3 ADD SWAP2 JUMPDEST POP POP POP POP POP DUP2 MSTORE PUSH1 0x20 ADD PUSH1 0x3 DUP3 ADD SLOAD DUP2 MSTORE PUSH1 0x20 ADD PUSH1 0x4 DUP3 ADD SLOAD DUP2 MSTORE POP POP DUP2 MSTORE PUSH1 0x20 ADD SWAP1 PUSH1 0x1 ADD SWAP1 PUSH2 0x324 JUMP JUMPDEST POP POP POP POP SWAP1 POP SWAP2 SWAP1 POP JUMP JUMPDEST PUSH1 0x2 PUSH0 SWAP1 SLOAD SWAP1 PUSH2 0x100 EXP SWAP1 DIV PUSH20 0xFFFFFFFFFFFFFFFFFFFFFFFFFFFFFFFFFFFFFFFF AND PUSH20 0xFFFFFFFFFFFFFFFFFFFFFFFFFFFFFFFFFFFFFFFF AND CALLER PUSH20 0xFFFFFFFFFFFFFFFFFFFFFFFFFFFFFFFFFFFFFFFF AND EQ PUSH2 0x4F0 JUMPI PUSH1 0x40 MLOAD PUSH32 0x8C379A000000000000000000000000000000000000000000000000000000000 DUP2 MSTORE PUSH1 0x4 ADD PUSH2 0x4E7 SWAP1 PUSH2 0x141D JUMP JUMPDEST PUSH1 0x40 MLOAD DUP1 SWAP2 SUB SWAP1 REVERT JUMPDEST DUP1 PUSH0 DUP1 PUSH2 0x100 EXP DUP2 SLOAD DUP2 PUSH2 0xFFFF MUL NOT AND SWAP1 DUP4 PUSH2 0xFFFF AND MUL OR SWAP1 SSTORE POP POP JUMP JUMPDEST DUP1 PUSH1 0x1 PUSH0 DUP5 PUSH20 0xFFFFFFFFFFFFFFFFFFFFFFFFFFFFFFFFFFFFFFFF AND PUSH20 0xFFFFFFFFFFFFFFFFFFFFFFFFFFFFFFFFFFFFFFFF AND DUP2 MSTORE PUSH1 0x20 ADD SWAP1 DUP2 MSTORE PUSH1 0x20 ADD PUSH0 KECCAK256 DUP3 DUP2 SLOAD DUP2 LT PUSH2 0x55E JUMPI PUSH2 0x55D PUSH2 0x143B JUMP JUMPDEST JUMPDEST SWAP1 PUSH0 MSTORE PUSH1 0x20 PUSH0 KECCAK256 SWAP1 PUSH1 0x5 MUL ADD PUSH0 ADD SLOAD EQ PUSH2 0x5AD JUMPI PUSH1 0x40 MLOAD PUSH32 0x8C379A000000000000000000000000000000000000000000000000000000000 DUP2 MSTORE PUSH1 0x4 ADD PUSH2 0x5A4 SWAP1 PUSH2 0x14B2 JUMP JUMPDEST PUSH1 0x40 MLOAD DUP1 SWAP2 SUB SWAP1 REVERT JUMPDEST PUSH1 0x1 PUSH0 DUP4 PUSH20 0xFFFFFFFFFFFFFFFFFFFFFFFFFFFFFFFFFFFFFFFF AND PUSH20 0xFFFFFFFFFFFFFFFFFFFFFFFFFFFFFFFFFFFFFFFF AND DUP2 MSTORE PUSH1 0x20 ADD SWAP1 DUP2 MSTORE PUSH1 0x20 ADD PUSH0 KECCAK256 DUP2 DUP2 SLOAD DUP2 LT PUSH2 0x5FC JUMPI PUSH2 0x5FB PUSH2 0x143B JUMP JUMPDEST JUMPDEST SWAP1 PUSH0 MSTORE PUSH1 0x20 PUSH0 KECCAK256 SWAP1 PUSH1 0x5 MUL ADD PUSH1 0x4 ADD PUSH0 DUP2 SLOAD DUP1 SWAP3 SWAP2 SWAP1 PUSH2 0x61B SWAP1 PUSH2 0x14FD JUMP JUMPDEST SWAP2 SWAP1 POP SSTORE POP PUSH32 0xE8A76FC0F16D11A00D1E93B689B63D76CF60AF914DD3D915375DC41D01A0C3C8 CALLER DUP4 DUP4 PUSH1 0x1 PUSH0 DUP8 PUSH20 0xFFFFFFFFFFFFFFFFFFFFFFFFFFFFFFFFFFFFFFFF AND PUSH20 0xFFFFFFFFFFFFFFFFFFFFFFFFFFFFFFFFFFFFFFFF AND DUP2 MSTORE PUSH1 0x20 ADD SWAP1 DUP2 MSTORE PUSH1 0x20 ADD PUSH0 KECCAK256 DUP6 DUP2 SLOAD DUP2 LT PUSH2 0x693 JUMPI PUSH2 0x692 PUSH2 0x143B JUMP JUMPDEST JUMPDEST SWAP1 PUSH0 MSTORE PUSH1 0x20 PUSH0 KECCAK256 SWAP1 PUSH1 0x5 MUL ADD PUSH1 0x4 ADD SLOAD PUSH1 0x40 MLOAD PUSH2 0x6B3 SWAP5 SWAP4 SWAP3 SWAP2 SWAP1 PUSH2 0x1544 JUMP JUMPDEST PUSH1 0x40 MLOAD DUP1 SWAP2 SUB SWAP1 LOG1 POP POP JUMP JUMPDEST PUSH0 DUP1 SLOAD SWAP1 PUSH2 0x100 EXP SWAP1 DIV PUSH2 0xFFFF AND DUP2 JUMP JUMPDEST PUSH0 DUP1 SLOAD SWAP1 PUSH2 0x100 EXP SWAP1 DIV PUSH2 0xFFFF AND PUSH2 0xFFFF AND DUP2 MLOAD GT ISZERO PUSH2 0x725 JUMPI PUSH1 0x40 MLOAD PUSH32 0x8C379A000000000000000000000000000000000000000000000000000000000 DUP2 MSTORE PUSH1 0x4 ADD PUSH2 0x71C SWAP1 PUSH2 0x15D1 JUMP JUMPDEST PUSH1 0x40 MLOAD DUP1 SWAP2 SUB SWAP1 REVERT JUMPDEST PUSH0 PUSH1 0x40 MLOAD DUP1 PUSH1 0xA0 ADD PUSH1 0x40 MSTORE DUP1 PUSH1 0x1 PUSH0 CALLER PUSH20 0xFFFFFFFFFFFFFFFFFFFFFFFFFFFFFFFFFFFFFFFF AND PUSH20 0xFFFFFFFFFFFFFFFFFFFFFFFFFFFFFFFFFFFFFFFF AND DUP2 MSTORE PUSH1 0x20 ADD SWAP1 DUP2 MSTORE PUSH1 0x20 ADD PUSH0 KECCAK256 DUP1 SLOAD SWAP1 POP DUP2 MSTORE PUSH1 0x20 ADD CALLER PUSH20 0xFFFFFFFFFFFFFFFFFFFFFFFFFFFFFFFFFFFFFFFF AND DUP2 MSTORE PUSH1 0x20 ADD DUP4 DUP2 MSTORE PUSH1 0x20 ADD TIMESTAMP DUP2 MSTORE PUSH1 0x20 ADD PUSH0 DUP2 MSTORE POP SWAP1 POP PUSH1 0x1 PUSH0 CALLER PUSH20 0xFFFFFFFFFFFFFFFFFFFFFFFFFFFFFFFFFFFFFFFF AND PUSH20 0xFFFFFFFFFFFFFFFFFFFFFFFFFFFFFFFFFFFFFFFF AND DUP2 MSTORE PUSH1 0x20 ADD SWAP1 DUP2 MSTORE PUSH1 0x20 ADD PUSH0 KECCAK256 DUP2 SWAP1 DUP1 PUSH1 0x1 DUP2 SLOAD ADD DUP1 DUP3 SSTORE DUP1 SWAP2 POP POP PUSH1 0x1 SWAP1 SUB SWAP1 PUSH0 MSTORE PUSH1 0x20 PUSH0 KECCAK256 SWAP1 PUSH1 0x5 MUL ADD PUSH0 SWAP1 SWAP2 SWAP1 SWAP2 SWAP1 SWAP2 POP PUSH0 DUP3 ADD MLOAD DUP2 PUSH0 ADD SSTORE PUSH1 0x20 DUP3 ADD MLOAD DUP2 PUSH1 0x1 ADD PUSH0 PUSH2 0x100 EXP DUP2 SLOAD DUP2 PUSH20 0xFFFFFFFFFFFFFFFFFFFFFFFFFFFFFFFFFFFFFFFF MUL NOT AND SWAP1 DUP4 PUSH20 0xFFFFFFFFFFFFFFFFFFFFFFFFFFFFFFFFFFFFFFFF AND MUL OR SWAP1 SSTORE POP PUSH1 0x40 DUP3 ADD MLOAD DUP2 PUSH1 0x2 ADD SWAP1 DUP2 PUSH2 0x86C SWAP2 SWAP1 PUSH2 0x178C JUMP JUMPDEST POP PUSH1 0x60 DUP3 ADD MLOAD DUP2 PUSH1 0x3 ADD SSTORE PUSH1 0x80 DUP3 ADD MLOAD DUP2 PUSH1 0x4 ADD SSTORE POP POP PUSH32 0x16FD3C13E9D46923E0A8BCE11C7B473EC508A72E6C96CD2404B29CE972AFC29E DUP2 PUSH0 ADD MLOAD DUP3 PUSH1 0x20 ADD MLOAD DUP4 PUSH1 0x40 ADD MLOAD DUP5 PUSH1 0x60 ADD MLOAD PUSH1 0x40 MLOAD PUSH2 0x8C7 SWAP5 SWAP4 SWAP3 SWAP2 SWAP1 PUSH2 0x185B JUMP JUMPDEST PUSH1 0x40 MLOAD DUP1 SWAP2 SUB SWAP1 LOG1 POP POP JUMP JUMPDEST PUSH1 0x2 PUSH0 SWAP1 SLOAD SWAP1 PUSH2 0x100 EXP SWAP1 DIV PUSH20 0xFFFFFFFFFFFFFFFFFFFFFFFFFFFFFFFFFFFFFFFF AND DUP2 JUMP JUMPDEST DUP1 PUSH1 0x1 PUSH0 DUP5 PUSH20 0xFFFFFFFFFFFFFFFFFFFFFFFFFFFFFFFFFFFFFFFF AND PUSH20 0xFFFFFFFFFFFFFFFFFFFFFFFFFFFFFFFFFFFFFFFF AND DUP2 MSTORE PUSH1 0x20 ADD SWAP1 DUP2 MSTORE PUSH1 0x20 ADD PUSH0 KECCAK256 DUP3 DUP2 SLOAD DUP2 LT PUSH2 0x948 JUMPI PUSH2 0x947 PUSH2 0x143B JUMP JUMPDEST JUMPDEST SWAP1 PUSH0 MSTORE PUSH1 0x20 PUSH0 KECCAK256 SWAP1 PUSH1 0x5 MUL ADD PUSH0 ADD SLOAD EQ PUSH2 0x997 JUMPI PUSH1 0x40 MLOAD PUSH32 0x8C379A000000000000000000000000000000000000000000000000000000000 DUP2 MSTORE PUSH1 0x4 ADD PUSH2 0x98E SWAP1 PUSH2 0x14B2 JUMP JUMPDEST PUSH1 0x40 MLOAD DUP1 SWAP2 SUB SWAP1 REVERT JUMPDEST PUSH0 PUSH1 0x1 PUSH0 DUP5 PUSH20 0xFFFFFFFFFFFFFFFFFFFFFFFFFFFFFFFFFFFFFFFF AND PUSH20 0xFFFFFFFFFFFFFFFFFFFFFFFFFFFFFFFFFFFFFFFF AND DUP2 MSTORE PUSH1 0x20 ADD SWAP1 DUP2 MSTORE PUSH1 0x20 ADD PUSH0 KECCAK256 DUP3 DUP2 SLOAD DUP2 LT PUSH2 0x9E7 JUMPI PUSH2 0x9E6 PUSH2 0x143B JUMP JUMPDEST JUMPDEST SWAP1 PUSH0 MSTORE PUSH1 0x20 PUSH0 KECCAK256 SWAP1 PUSH1 0x5 MUL ADD PUSH1 0x4 ADD SLOAD GT PUSH2 0xA37 JUMPI PUSH1 0x40 MLOAD PUSH32 0x8C379A000000000000000000000000000000000000000000000000000000000 DUP2 MSTORE PUSH1 0x4 ADD PUSH2 0xA2E SWAP1 PUSH2 0x18EF JUMP JUMPDEST PUSH1 0x40 MLOAD DUP1 SWAP2 SUB SWAP1 REVERT JUMPDEST PUSH1 0x1 PUSH0 DUP4 PUSH20 0xFFFFFFFFFFFFFFFFFFFFFFFFFFFFFFFFFFFFFFFF AND PUSH20 0xFFFFFFFFFFFFFFFFFFFFFFFFFFFFFFFFFFFFFFFF AND DUP2 MSTORE PUSH1 0x20 ADD SWAP1 DUP2 MSTORE PUSH1 0x20 ADD PUSH0 KECCAK256 DUP2 DUP2 SLOAD DUP2 LT PUSH2 0xA86 JUMPI PUSH2 0xA85 PUSH2 0x143B JUMP JUMPDEST JUMPDEST SWAP1 PUSH0 MSTORE PUSH1 0x20 PUSH0 KECCAK256 SWAP1 PUSH1 0x5 MUL ADD PUSH1 0x4 ADD PUSH0 DUP2 SLOAD DUP1 SWAP3 SWAP2 SWAP1 PUSH2 0xAA5 SWAP1 PUSH2 0x190D JUMP JUMPDEST SWAP2 SWAP1 POP SSTORE POP PUSH32 0x762C2616349603AC16EBA0DE8E6141B79129A07AB63BD99E0A80B3A471716943 CALLER DUP4 DUP4 PUSH1 0x1 PUSH0 DUP8 PUSH20 0xFFFFFFFFFFFFFFFFFFFFFFFFFFFFFFFFFFFFFFFF AND PUSH20 0xFFFFFFFFFFFFFFFFFFFFFFFFFFFFFFFFFFFFFFFF AND DUP2 MSTORE PUSH1 0x20 ADD SWAP1 DUP2 MSTORE PUSH1 0x20 ADD PUSH0 KECCAK256 DUP6 DUP2 SLOAD DUP2 LT PUSH2 0xB1D JUMPI PUSH2 0xB1C PUSH2 0x143B JUMP JUMPDEST JUMPDEST SWAP1 PUSH0 MSTORE PUSH1 0x20 PUSH0 KECCAK256 SWAP1 PUSH1 0x5 MUL ADD PUSH1 0x4 ADD SLOAD PUSH1 0x40 MLOAD PUSH2 0xB3D SWAP5 SWAP4 SWAP3 SWAP2 SWAP1 PUSH2 0x1544 JUMP JUMPDEST PUSH1 0x40 MLOAD DUP1 SWAP2 SUB SWAP1 LOG1 POP POP JUMP JUMPDEST PUSH2 0xB51 PUSH2 0xCC0 JUMP JUMPDEST PUSH1 0x1 PUSH0 CALLER PUSH20 0xFFFFFFFFFFFFFFFFFFFFFFFFFFFFFFFFFFFFFFFF AND PUSH20 0xFFFFFFFFFFFFFFFFFFFFFFFFFFFFFFFFFFFFFFFF AND DUP2 MSTORE PUSH1 0x20 ADD SWAP1 DUP2 MSTORE PUSH1 0x20 ADD PUSH0 KECCAK256 DUP3 DUP2 SLOAD DUP2 LT PUSH2 0xBA0 JUMPI PUSH2 0xB9F PUSH2 0x143B JUMP JUMPDEST JUMPDEST SWAP1 PUSH0 MSTORE PUSH1 0x20 PUSH0 KECCAK256 SWAP1 PUSH1 0x5 MUL ADD PUSH1 0x40 MLOAD DUP1 PUSH1 0xA0 ADD PUSH1 0x40 MSTORE SWAP1 DUP2 PUSH0 DUP3 ADD SLOAD DUP2 MSTORE PUSH1 0x20 ADD PUSH1 0x1 DUP3 ADD PUSH0 SWAP1 SLOAD SWAP1 PUSH2 0x100 EXP SWAP1 DIV PUSH20 0xFFFFFFFFFFFFFFFFFFFFFFFFFFFFFFFFFFFFFFFF AND PUSH20 0xFFFFFFFFFFFFFFFFFFFFFFFFFFFFFFFFFFFFFFFF AND PUSH20 0xFFFFFFFFFFFFFFFFFFFFFFFFFFFFFFFFFFFFFFFF AND DUP2 MSTORE PUSH1 0x20 ADD PUSH1 0x2 DUP3 ADD DUP1 SLOAD PUSH2 0xC25 SWAP1 PUSH2 0x13A3 JUMP JUMPDEST DUP1 PUSH1 0x1F ADD PUSH1 0x20 DUP1 SWAP2 DIV MUL PUSH1 0x20 ADD PUSH1 0x40 MLOAD SWAP1 DUP2 ADD PUSH1 0x40 MSTORE DUP1 SWAP3 SWAP2 SWAP1 DUP2 DUP2 MSTORE PUSH1 0x20 ADD DUP3 DUP1 SLOAD PUSH2 0xC51 SWAP1 PUSH2 0x13A3 JUMP JUMPDEST DUP1 ISZERO PUSH2 0xC9C JUMPI DUP1 PUSH1 0x1F LT PUSH2 0xC73 JUMPI PUSH2 0x100 DUP1 DUP4 SLOAD DIV MUL DUP4 MSTORE SWAP2 PUSH1 0x20 ADD SWAP2 PUSH2 0xC9C JUMP JUMPDEST DUP3 ADD SWAP2 SWAP1 PUSH0 MSTORE PUSH1 0x20 PUSH0 KECCAK256 SWAP1 JUMPDEST DUP2 SLOAD DUP2 MSTORE SWAP1 PUSH1 0x1 ADD SWAP1 PUSH1 0x20 ADD DUP1 DUP4 GT PUSH2 0xC7F JUMPI DUP3 SWAP1 SUB PUSH1 0x1F AND DUP3 ADD SWAP2 JUMPDEST POP POP POP POP POP DUP2 MSTORE PUSH1 0x20 ADD PUSH1 0x3 DUP3 ADD SLOAD DUP2 MSTORE PUSH1 0x20 ADD PUSH1 0x4 DUP3 ADD SLOAD DUP2 MSTORE POP POP SWAP1 POP SWAP2 SWAP1 POP JUMP JUMPDEST PUSH1 0x40 MLOAD DUP1 PUSH1 0xA0 ADD PUSH1 0x40 MSTORE DUP1 PUSH0 DUP2 MSTORE PUSH1 0x20 ADD PUSH0 PUSH20 0xFFFFFFFFFFFFFFFFFFFFFFFFFFFFFFFFFFFFFFFF AND DUP2 MSTORE PUSH1 0x20 ADD PUSH1 0x60 DUP2 MSTORE PUSH1 0x20 ADD PUSH0 DUP2 MSTORE PUSH1 0x20 ADD PUSH0 DUP2 MSTORE POP SWAP1 JUMP JUMPDEST PUSH0 PUSH1 0x40 MLOAD SWAP1 POP SWAP1 JUMP JUMPDEST PUSH0 DUP1 REVERT JUMPDEST PUSH0 DUP1 REVERT JUMPDEST PUSH0 PUSH20 0xFFFFFFFFFFFFFFFFFFFFFFFFFFFFFFFFFFFFFFFF DUP3 AND SWAP1 POP SWAP2 SWAP1 POP JUMP JUMPDEST PUSH0 PUSH2 0xD3B DUP3 PUSH2 0xD12 JUMP JUMPDEST SWAP1 POP SWAP2 SWAP1 POP JUMP JUMPDEST PUSH2 0xD4B DUP2 PUSH2 0xD31 JUMP JUMPDEST DUP2 EQ PUSH2 0xD55 JUMPI PUSH0 DUP1 REVERT JUMPDEST POP JUMP JUMPDEST PUSH0 DUP2 CALLDATALOAD SWAP1 POP PUSH2 0xD66 DUP2 PUSH2 0xD42 JUMP JUMPDEST SWAP3 SWAP2 POP POP JUMP JUMPDEST PUSH0 DUP2 SWAP1 POP SWAP2 SWAP1 POP JUMP JUMPDEST PUSH2 0xD7E DUP2 PUSH2 0xD6C JUMP JUMPDEST DUP2 EQ PUSH2 0xD88 JUMPI PUSH0 DUP1 REVERT JUMPDEST POP JUMP JUMPDEST PUSH0 DUP2 CALLDATALOAD SWAP1 POP PUSH2 0xD99 DUP2 PUSH2 0xD75 JUMP JUMPDEST SWAP3 SWAP2 POP POP JUMP JUMPDEST PUSH0 DUP1 PUSH1 0x40 DUP4 DUP6 SUB SLT ISZERO PUSH2 0xDB5 JUMPI PUSH2 0xDB4 PUSH2 0xD0A JUMP JUMPDEST JUMPDEST PUSH0 PUSH2 0xDC2 DUP6 DUP3 DUP7 ADD PUSH2 0xD58 JUMP JUMPDEST SWAP3 POP POP PUSH1 0x20 PUSH2 0xDD3 DUP6 DUP3 DUP7 ADD PUSH2 0xD8B JUMP JUMPDEST SWAP2 POP POP SWAP3 POP SWAP3 SWAP1 POP JUMP JUMPDEST PUSH2 0xDE6 DUP2 PUSH2 0xD6C JUMP JUMPDEST DUP3 MSTORE POP POP JUMP JUMPDEST PUSH2 0xDF5 DUP2 PUSH2 0xD31 JUMP JUMPDEST DUP3 MSTORE POP POP JUMP JUMPDEST PUSH0 DUP2 MLOAD SWAP1 POP SWAP2 SWAP1 POP JUMP JUMPDEST PUSH0 DUP3 DUP3 MSTORE PUSH1 0x20 DUP3 ADD SWAP1 POP SWAP3 SWAP2 POP POP JUMP JUMPDEST DUP3 DUP2 DUP4 MCOPY PUSH0 DUP4 DUP4 ADD MSTORE POP POP POP JUMP JUMPDEST PUSH0 PUSH1 0x1F NOT PUSH1 0x1F DUP4 ADD AND SWAP1 POP SWAP2 SWAP1 POP JUMP JUMPDEST PUSH0 PUSH2 0xE3D DUP3 PUSH2 0xDFB JUMP JUMPDEST PUSH2 0xE47 DUP2 DUP6 PUSH2 0xE05 JUMP JUMPDEST SWAP4 POP PUSH2 0xE57 DUP2 DUP6 PUSH1 0x20 DUP7 ADD PUSH2 0xE15 JUMP JUMPDEST PUSH2 0xE60 DUP2 PUSH2 0xE23 JUMP JUMPDEST DUP5 ADD SWAP2 POP POP SWAP3 SWAP2 POP POP JUMP JUMPDEST PUSH0 PUSH1 0xA0 DUP3 ADD SWAP1 POP PUSH2 0xE7E PUSH0 DUP4 ADD DUP9 PUSH2 0xDDD JUMP JUMPDEST PUSH2 0xE8B PUSH1 0x20 DUP4 ADD DUP8 PUSH2 0xDEC JUMP JUMPDEST DUP2 DUP2 SUB PUSH1 0x40 DUP4 ADD MSTORE PUSH2 0xE9D DUP2 DUP7 PUSH2 0xE33 JUMP JUMPDEST SWAP1 POP PUSH2 0xEAC PUSH1 0x60 DUP4 ADD DUP6 PUSH2 0xDDD JUMP JUMPDEST PUSH2 0xEB9 PUSH1 0x80 DUP4 ADD DUP5 PUSH2 0xDDD JUMP JUMPDEST SWAP7 SWAP6 POP POP POP POP POP POP JUMP JUMPDEST PUSH0 PUSH1 0x20 DUP3 DUP5 SUB SLT ISZERO PUSH2 0xED8 JUMPI PUSH2 0xED7 PUSH2 0xD0A JUMP JUMPDEST JUMPDEST PUSH0 PUSH2 0xEE5 DUP5 DUP3 DUP6 ADD PUSH2 0xD58 JUMP JUMPDEST SWAP2 POP POP SWAP3 SWAP2 POP POP JUMP JUMPDEST PUSH0 DUP2 MLOAD SWAP1 POP SWAP2 SWAP1 POP JUMP JUMPDEST PUSH0 DUP3 DUP3 MSTORE PUSH1 0x20 DUP3 ADD SWAP1 POP SWAP3 SWAP2 POP POP JUMP JUMPDEST PUSH0 DUP2 SWAP1 POP PUSH1 0x20 DUP3 ADD SWAP1 POP SWAP2 SWAP1 POP JUMP JUMPDEST PUSH2 0xF20 DUP2 PUSH2 0xD6C JUMP JUMPDEST DUP3 MSTORE POP POP JUMP JUMPDEST PUSH2 0xF2F DUP2 PUSH2 0xD31 JUMP JUMPDEST DUP3 MSTORE POP POP JUMP JUMPDEST PUSH0 DUP3 DUP3 MSTORE PUSH1 0x20 DUP3 ADD SWAP1 POP SWAP3 SWAP2 POP POP JUMP JUMPDEST PUSH0 PUSH2 0xF4F DUP3 PUSH2 0xDFB JUMP JUMPDEST PUSH2 0xF59 DUP2 DUP6 PUSH2 0xF35 JUMP JUMPDEST SWAP4 POP PUSH2 0xF69 DUP2 DUP6 PUSH1 0x20 DUP7 ADD PUSH2 0xE15 JUMP JUMPDEST PUSH2 0xF72 DUP2 PUSH2 0xE23 JUMP JUMPDEST DUP5 ADD SWAP2 POP POP SWAP3 SWAP2 POP POP JUMP JUMPDEST PUSH0 PUSH1 0xA0 DUP4 ADD PUSH0 DUP4 ADD MLOAD PUSH2 0xF92 PUSH0 DUP7 ADD DUP3 PUSH2 0xF17 JUMP JUMPDEST POP PUSH1 0x20 DUP4 ADD MLOAD PUSH2 0xFA5 PUSH1 0x20 DUP7 ADD DUP3 PUSH2 0xF26 JUMP JUMPDEST POP PUSH1 0x40 DUP4 ADD MLOAD DUP5 DUP3 SUB PUSH1 0x40 DUP7 ADD MSTORE PUSH2 0xFBD DUP3 DUP3 PUSH2 0xF45 JUMP JUMPDEST SWAP2 POP POP PUSH1 0x60 DUP4 ADD MLOAD PUSH2 0xFD2 PUSH1 0x60 DUP7 ADD DUP3 PUSH2 0xF17 JUMP JUMPDEST POP PUSH1 0x80 DUP4 ADD MLOAD PUSH2 0xFE5 PUSH1 0x80 DUP7 ADD DUP3 PUSH2 0xF17 JUMP JUMPDEST POP DUP1 SWAP2 POP POP SWAP3 SWAP2 POP POP JUMP JUMPDEST PUSH0 PUSH2 0xFFB DUP4 DUP4 PUSH2 0xF7D JUMP JUMPDEST SWAP1 POP SWAP3 SWAP2 POP POP JUMP JUMPDEST PUSH0 PUSH1 0x20 DUP3 ADD SWAP1 POP SWAP2 SWAP1 POP JUMP JUMPDEST PUSH0 PUSH2 0x1019 DUP3 PUSH2 0xEEE JUMP JUMPDEST PUSH2 0x1023 DUP2 DUP6 PUSH2 0xEF8 JUMP JUMPDEST SWAP4 POP DUP4 PUSH1 0x20 DUP3 MUL DUP6 ADD PUSH2 0x1035 DUP6 PUSH2 0xF08 JUMP JUMPDEST DUP1 PUSH0 JUMPDEST DUP6 DUP2 LT ISZERO PUSH2 0x1070 JUMPI DUP5 DUP5 SUB DUP10 MSTORE DUP2 MLOAD PUSH2 0x1051 DUP6 DUP3 PUSH2 0xFF0 JUMP JUMPDEST SWAP5 POP PUSH2 0x105C DUP4 PUSH2 0x1003 JUMP JUMPDEST SWAP3 POP PUSH1 0x20 DUP11 ADD SWAP10 POP POP PUSH1 0x1 DUP2 ADD SWAP1 POP PUSH2 0x1038 JUMP JUMPDEST POP DUP3 SWAP8 POP DUP8 SWAP6 POP POP POP POP POP POP SWAP3 SWAP2 POP POP JUMP JUMPDEST PUSH0 PUSH1 0x20 DUP3 ADD SWAP1 POP DUP2 DUP2 SUB PUSH0 DUP4 ADD MSTORE PUSH2 0x109A DUP2 DUP5 PUSH2 0x100F JUMP JUMPDEST SWAP1 POP SWAP3 SWAP2 POP POP JUMP JUMPDEST PUSH0 PUSH2 0xFFFF DUP3 AND SWAP1 POP SWAP2 SWAP1 POP JUMP JUMPDEST PUSH2 0x10B8 DUP2 PUSH2 0x10A2 JUMP JUMPDEST DUP2 EQ PUSH2 0x10C2 JUMPI PUSH0 DUP1 REVERT JUMPDEST POP JUMP JUMPDEST PUSH0 DUP2 CALLDATALOAD SWAP1 POP PUSH2 0x10D3 DUP2 PUSH2 0x10AF JUMP JUMPDEST SWAP3 SWAP2 POP POP JUMP JUMPDEST PUSH0 PUSH1 0x20 DUP3 DUP5 SUB SLT ISZERO PUSH2 0x10EE JUMPI PUSH2 0x10ED PUSH2 0xD0A JUMP JUMPDEST JUMPDEST PUSH0 PUSH2 0x10FB DUP5 DUP3 DUP6 ADD PUSH2 0x10C5 JUMP JUMPDEST SWAP2 POP POP SWAP3 SWAP2 POP POP JUMP JUMPDEST PUSH2 0x110D DUP2 PUSH2 0x10A2 JUMP JUMPDEST DUP3 MSTORE POP POP JUMP JUMPDEST PUSH0 PUSH1 0x20 DUP3 ADD SWAP1 POP PUSH2 0x1126 PUSH0 DUP4 ADD DUP5 PUSH2 0x1104 JUMP JUMPDEST SWAP3 SWAP2 POP POP JUMP JUMPDEST PUSH0 DUP1 REVERT JUMPDEST PUSH0 DUP1 REVERT JUMPDEST PUSH32 0x4E487B7100000000000000000000000000000000000000000000000000000000 PUSH0 MSTORE PUSH1 0x41 PUSH1 0x4 MSTORE PUSH1 0x24 PUSH0 REVERT JUMPDEST PUSH2 0x116A DUP3 PUSH2 0xE23 JUMP JUMPDEST DUP2 ADD DUP2 DUP2 LT PUSH8 0xFFFFFFFFFFFFFFFF DUP3 GT OR ISZERO PUSH2 0x1189 JUMPI PUSH2 0x1188 PUSH2 0x1134 JUMP JUMPDEST JUMPDEST DUP1 PUSH1 0x40 MSTORE POP POP POP JUMP JUMPDEST PUSH0 PUSH2 0x119B PUSH2 0xD01 JUMP JUMPDEST SWAP1 POP PUSH2 0x11A7 DUP3 DUP3 PUSH2 0x1161 JUMP JUMPDEST SWAP2 SWAP1 POP JUMP JUMPDEST PUSH0 PUSH8 0xFFFFFFFFFFFFFFFF DUP3 GT ISZERO PUSH2 0x11C6 JUMPI PUSH2 0x11C5 PUSH2 0x1134 JUMP JUMPDEST JUMPDEST PUSH2 0x11CF DUP3 PUSH2 0xE23 JUMP JUMPDEST SWAP1 POP PUSH1 0x20 DUP2 ADD SWAP1 POP SWAP2 SWAP1 POP JUMP JUMPDEST DUP3 DUP2 DUP4 CALLDATACOPY PUSH0 DUP4 DUP4 ADD MSTORE POP POP POP JUMP JUMPDEST PUSH0 PUSH2 0x11FC PUSH2 0x11F7 DUP5 PUSH2 0x11AC JUMP JUMPDEST PUSH2 0x1192 JUMP JUMPDEST SWAP1 POP DUP3 DUP2 MSTORE PUSH1 0x20 DUP2 ADD DUP5 DUP5 DUP5 ADD GT ISZERO PUSH2 0x1218 JUMPI PUSH2 0x1217 PUSH2 0x1130 JUMP JUMPDEST JUMPDEST PUSH2 0x1223 DUP5 DUP3 DUP6 PUSH2 0x11DC JUMP JUMPDEST POP SWAP4 SWAP3 POP POP POP JUMP JUMPDEST PUSH0 DUP3 PUSH1 0x1F DUP4 ADD SLT PUSH2 0x123F JUMPI PUSH2 0x123E PUSH2 0x112C JUMP JUMPDEST JUMPDEST DUP2 CALLDATALOAD PUSH2 0x124F DUP5 DUP3 PUSH1 0x20 DUP7 ADD PUSH2 0x11EA JUMP JUMPDEST SWAP2 POP POP SWAP3 SWAP2 POP POP JUMP JUMPDEST PUSH0 PUSH1 0x20 DUP3 DUP5 SUB SLT ISZERO PUSH2 0x126D JUMPI PUSH2 0x126C PUSH2 0xD0A JUMP JUMPDEST JUMPDEST PUSH0 DUP3 ADD CALLDATALOAD PUSH8 0xFFFFFFFFFFFFFFFF DUP2 GT ISZERO PUSH2 0x128A JUMPI PUSH2 0x1289 PUSH2 0xD0E JUMP JUMPDEST JUMPDEST PUSH2 0x1296 DUP5 DUP3 DUP6 ADD PUSH2 0x122B JUMP JUMPDEST SWAP2 POP POP SWAP3 SWAP2 POP POP JUMP JUMPDEST PUSH0 PUSH1 0x20 DUP3 ADD SWAP1 POP PUSH2 0x12B2 PUSH0 DUP4 ADD DUP5 PUSH2 0xDEC JUMP JUMPDEST SWAP3 SWAP2 POP POP JUMP JUMPDEST PUSH0 PUSH1 0x20 DUP3 DUP5 SUB SLT ISZERO PUSH2 0x12CD JUMPI PUSH2 0x12CC PUSH2 0xD0A JUMP JUMPDEST JUMPDEST PUSH0 PUSH2 0x12DA DUP5 DUP3 DUP6 ADD PUSH2 0xD8B JUMP JUMPDEST SWAP2 POP POP SWAP3 SWAP2 POP POP JUMP JUMPDEST PUSH0 PUSH1 0xA0 DUP4 ADD PUSH0 DUP4 ADD MLOAD PUSH2 0x12F8 PUSH0 DUP7 ADD DUP3 PUSH2 0xF17 JUMP JUMPDEST POP PUSH1 0x20 DUP4 ADD MLOAD PUSH2 0x130B PUSH1 0x20 DUP7 ADD DUP3 PUSH2 0xF26 JUMP JUMPDEST POP PUSH1 0x40 DUP4 ADD MLOAD DUP5 DUP3 SUB PUSH1 0x40 DUP7 ADD MSTORE PUSH2 0x1323 DUP3 DUP3 PUSH2 0xF45 JUMP JUMPDEST SWAP2 POP POP PUSH1 0x60 DUP4 ADD MLOAD PUSH2 0x1338 PUSH1 0x60 DUP7 ADD DUP3 PUSH2 0xF17 JUMP JUMPDEST POP PUSH1 0x80 DUP4 ADD MLOAD PUSH2 0x134B PUSH1 0x80 DUP7 ADD DUP3 PUSH2 0xF17 JUMP JUMPDEST POP DUP1 SWAP2 POP POP SWAP3 SWAP2 POP POP JUMP JUMPDEST PUSH0 PUSH1 0x20 DUP3 ADD SWAP1 POP DUP2 DUP2 SUB PUSH0 DUP4 ADD MSTORE PUSH2 0x136E DUP2 DUP5 PUSH2 0x12E3 JUMP JUMPDEST SWAP1 POP SWAP3 SWAP2 POP POP JUMP JUMPDEST PUSH32 0x4E487B7100000000000000000000000000000000000000000000000000000000 PUSH0 MSTORE PUSH1 0x22 PUSH1 0x4 MSTORE PUSH1 0x24 PUSH0 REVERT JUMPDEST PUSH0 PUSH1 0x2 DUP3 DIV SWAP1 POP PUSH1 0x1 DUP3 AND DUP1 PUSH2 0x13BA JUMPI PUSH1 0x7F DUP3 AND SWAP2 POP JUMPDEST PUSH1 0x20 DUP3 LT DUP2 SUB PUSH2 0x13CD JUMPI PUSH2 0x13CC PUSH2 0x1376 JUMP JUMPDEST JUMPDEST POP SWAP2 SWAP1 POP JUMP JUMPDEST PUSH32 0x594F5520415245204E4F5420544845204F574E45520000000000000000000000 PUSH0 DUP3 ADD MSTORE POP JUMP JUMPDEST PUSH0 PUSH2 0x1407 PUSH1 0x15 DUP4 PUSH2 0xE05 JUMP JUMPDEST SWAP2 POP PUSH2 0x1412 DUP3 PUSH2 0x13D3 JUMP JUMPDEST PUSH1 0x20 DUP3 ADD SWAP1 POP SWAP2 SWAP1 POP JUMP JUMPDEST PUSH0 PUSH1 0x20 DUP3 ADD SWAP1 POP DUP2 DUP2 SUB PUSH0 DUP4 ADD MSTORE PUSH2 0x1434 DUP2 PUSH2 0x13FB JUMP JUMPDEST SWAP1 POP SWAP2 SWAP1 POP JUMP JUMPDEST PUSH32 0x4E487B7100000000000000000000000000000000000000000000000000000000 PUSH0 MSTORE PUSH1 0x32 PUSH1 0x4 MSTORE PUSH1 0x24 PUSH0 REVERT JUMPDEST PUSH32 0x545745455420444F5345204E4F54204558495354000000000000000000000000 PUSH0 DUP3 ADD MSTORE POP JUMP JUMPDEST PUSH0 PUSH2 0x149C PUSH1 0x14 DUP4 PUSH2 0xE05 JUMP JUMPDEST SWAP2 POP PUSH2 0x14A7 DUP3 PUSH2 0x1468 JUMP JUMPDEST PUSH1 0x20 DUP3 ADD SWAP1 POP SWAP2 SWAP1 POP JUMP JUMPDEST PUSH0 PUSH1 0x20 DUP3 ADD SWAP1 POP DUP2 DUP2 SUB PUSH0 DUP4 ADD MSTORE PUSH2 0x14C9 DUP2 PUSH2 0x1490 JUMP JUMPDEST SWAP1 POP SWAP2 SWAP1 POP JUMP JUMPDEST PUSH32 0x4E487B7100000000000000000000000000000000000000000000000000000000 PUSH0 MSTORE PUSH1 0x11 PUSH1 0x4 MSTORE PUSH1 0x24 PUSH0 REVERT JUMPDEST PUSH0 PUSH2 0x1507 DUP3 PUSH2 0xD6C JUMP JUMPDEST SWAP2 POP PUSH32 0xFFFFFFFFFFFFFFFFFFFFFFFFFFFFFFFFFFFFFFFFFFFFFFFFFFFFFFFFFFFFFFFF DUP3 SUB PUSH2 0x1539 JUMPI PUSH2 0x1538 PUSH2 0x14D0 JUMP JUMPDEST JUMPDEST PUSH1 0x1 DUP3 ADD SWAP1 POP SWAP2 SWAP1 POP JUMP JUMPDEST PUSH0 PUSH1 0x80 DUP3 ADD SWAP1 POP PUSH2 0x1557 PUSH0 DUP4 ADD DUP8 PUSH2 0xDEC JUMP JUMPDEST PUSH2 0x1564 PUSH1 0x20 DUP4 ADD DUP7 PUSH2 0xDEC JUMP JUMPDEST PUSH2 0x1571 PUSH1 0x40 DUP4 ADD DUP6 PUSH2 0xDDD JUMP JUMPDEST PUSH2 0x157E PUSH1 0x60 DUP4 ADD DUP5 PUSH2 0xDDD JUMP JUMPDEST SWAP6 SWAP5 POP POP POP POP POP JUMP JUMPDEST PUSH32 0x596F757220747765657420697320746F6F206C6F6E672062726F000000000000 PUSH0 DUP3 ADD MSTORE POP JUMP JUMPDEST PUSH0 PUSH2 0x15BB PUSH1 0x1A DUP4 PUSH2 0xE05 JUMP JUMPDEST SWAP2 POP PUSH2 0x15C6 DUP3 PUSH2 0x1587 JUMP JUMPDEST PUSH1 0x20 DUP3 ADD SWAP1 POP SWAP2 SWAP1 POP JUMP JUMPDEST PUSH0 PUSH1 0x20 DUP3 ADD SWAP1 POP DUP2 DUP2 SUB PUSH0 DUP4 ADD MSTORE PUSH2 0x15E8 DUP2 PUSH2 0x15AF JUMP JUMPDEST SWAP1 POP SWAP2 SWAP1 POP JUMP JUMPDEST PUSH0 DUP2 SWAP1 POP DUP2 PUSH0 MSTORE PUSH1 0x20 PUSH0 KECCAK256 SWAP1 POP SWAP2 SWAP1 POP JUMP JUMPDEST PUSH0 PUSH1 0x20 PUSH1 0x1F DUP4 ADD DIV SWAP1 POP SWAP2 SWAP1 POP JUMP JUMPDEST PUSH0 DUP3 DUP3 SHL SWAP1 POP SWAP3 SWAP2 POP POP JUMP JUMPDEST PUSH0 PUSH1 0x8 DUP4 MUL PUSH2 0x164B PUSH32 0xFFFFFFFFFFFFFFFFFFFFFFFFFFFFFFFFFFFFFFFFFFFFFFFFFFFFFFFFFFFFFFFF DUP3 PUSH2 0x1610 JUMP JUMPDEST PUSH2 0x1655 DUP7 DUP4 PUSH2 0x1610 JUMP JUMPDEST SWAP6 POP DUP1 NOT DUP5 AND SWAP4 POP DUP1 DUP7 AND DUP5 OR SWAP3 POP POP POP SWAP4 SWAP3 POP POP POP JUMP JUMPDEST PUSH0 DUP2 SWAP1 POP SWAP2 SWAP1 POP JUMP JUMPDEST PUSH0 PUSH2 0x1690 PUSH2 0x168B PUSH2 0x1686 DUP5 PUSH2 0xD6C JUMP JUMPDEST PUSH2 0x166D JUMP JUMPDEST PUSH2 0xD6C JUMP JUMPDEST SWAP1 POP SWAP2 SWAP1 POP JUMP JUMPDEST PUSH0 DUP2 SWAP1 POP SWAP2 SWAP1 POP JUMP JUMPDEST PUSH2 0x16A9 DUP4 PUSH2 0x1676 JUMP JUMPDEST PUSH2 0x16BD PUSH2 0x16B5 DUP3 PUSH2 0x1697 JUMP JUMPDEST DUP5 DUP5 SLOAD PUSH2 0x161C JUMP JUMPDEST DUP3 SSTORE POP POP POP POP JUMP JUMPDEST PUSH0 SWAP1 JUMP JUMPDEST PUSH2 0x16D1 PUSH2 0x16C5 JUMP JUMPDEST PUSH2 0x16DC DUP2 DUP5 DUP5 PUSH2 0x16A0 JUMP JUMPDEST POP POP POP JUMP JUMPDEST JUMPDEST DUP2 DUP2 LT ISZERO PUSH2 0x16FF JUMPI PUSH2 0x16F4 PUSH0 DUP3 PUSH2 0x16C9 JUMP JUMPDEST PUSH1 0x1 DUP2 ADD SWAP1 POP PUSH2 0x16E2 JUMP JUMPDEST POP POP JUMP JUMPDEST PUSH1 0x1F DUP3 GT ISZERO PUSH2 0x1744 JUMPI PUSH2 0x1715 DUP2 PUSH2 0x15EF JUMP JUMPDEST PUSH2 0x171E DUP5 PUSH2 0x1601 JUMP JUMPDEST DUP2 ADD PUSH1 0x20 DUP6 LT ISZERO PUSH2 0x172D JUMPI DUP2 SWAP1 POP JUMPDEST PUSH2 0x1741 PUSH2 0x1739 DUP6 PUSH2 0x1601 JUMP JUMPDEST DUP4 ADD DUP3 PUSH2 0x16E1 JUMP JUMPDEST POP POP JUMPDEST POP POP POP JUMP JUMPDEST PUSH0 DUP3 DUP3 SHR SWAP1 POP SWAP3 SWAP2 POP POP JUMP JUMPDEST PUSH0 PUSH2 0x1764 PUSH0 NOT DUP5 PUSH1 0x8 MUL PUSH2 0x1749 JUMP JUMPDEST NOT DUP1 DUP4 AND SWAP2 POP POP SWAP3 SWAP2 POP POP JUMP JUMPDEST PUSH0 PUSH2 0x177C DUP4 DUP4 PUSH2 0x1755 JUMP JUMPDEST SWAP2 POP DUP3 PUSH1 0x2 MUL DUP3 OR SWAP1 POP SWAP3 SWAP2 POP POP JUMP JUMPDEST PUSH2 0x1795 DUP3 PUSH2 0xDFB JUMP JUMPDEST PUSH8 0xFFFFFFFFFFFFFFFF DUP2 GT ISZERO PUSH2 0x17AE JUMPI PUSH2 0x17AD PUSH2 0x1134 JUMP JUMPDEST JUMPDEST PUSH2 0x17B8 DUP3 SLOAD PUSH2 0x13A3 JUMP JUMPDEST PUSH2 0x17C3 DUP3 DUP3 DUP6 PUSH2 0x1703 JUMP JUMPDEST PUSH0 PUSH1 0x20 SWAP1 POP PUSH1 0x1F DUP4 GT PUSH1 0x1 DUP2 EQ PUSH2 0x17F4 JUMPI PUSH0 DUP5 ISZERO PUSH2 0x17E2 JUMPI DUP3 DUP8 ADD MLOAD SWAP1 POP JUMPDEST PUSH2 0x17EC DUP6 DUP3 PUSH2 0x1771 JUMP JUMPDEST DUP7 SSTORE POP PUSH2 0x1853 JUMP JUMPDEST PUSH1 0x1F NOT DUP5 AND PUSH2 0x1802 DUP7 PUSH2 0x15EF JUMP JUMPDEST PUSH0 JUMPDEST DUP3 DUP2 LT ISZERO PUSH2 0x1829 JUMPI DUP5 DUP10 ADD MLOAD DUP3 SSTORE PUSH1 0x1 DUP3 ADD SWAP2 POP PUSH1 0x20 DUP6 ADD SWAP5 POP PUSH1 0x20 DUP2 ADD SWAP1 POP PUSH2 0x1804 JUMP JUMPDEST DUP7 DUP4 LT ISZERO PUSH2 0x1846 JUMPI DUP5 DUP10 ADD MLOAD PUSH2 0x1842 PUSH1 0x1F DUP10 AND DUP3 PUSH2 0x1755 JUMP JUMPDEST DUP4 SSTORE POP JUMPDEST PUSH1 0x1 PUSH1 0x2 DUP9 MUL ADD DUP9 SSTORE POP POP POP JUMPDEST POP POP POP POP POP POP JUMP JUMPDEST PUSH0 PUSH1 0x80 DUP3 ADD SWAP1 POP PUSH2 0x186E PUSH0 DUP4 ADD DUP8 PUSH2 0xDDD JUMP JUMPDEST PUSH2 0x187B PUSH1 0x20 DUP4 ADD DUP7 PUSH2 0xDEC JUMP JUMPDEST DUP2 DUP2 SUB PUSH1 0x40 DUP4 ADD MSTORE PUSH2 0x188D DUP2 DUP6 PUSH2 0xE33 JUMP JUMPDEST SWAP1 POP PUSH2 0x189C PUSH1 0x60 DUP4 ADD DUP5 PUSH2 0xDDD JUMP JUMPDEST SWAP6 SWAP5 POP POP POP POP POP JUMP JUMPDEST PUSH32 0x545745455420484153204E4F204C494B45530000000000000000000000000000 PUSH0 DUP3 ADD MSTORE POP JUMP JUMPDEST PUSH0 PUSH2 0x18D9 PUSH1 0x12 DUP4 PUSH2 0xE05 JUMP JUMPDEST SWAP2 POP PUSH2 0x18E4 DUP3 PUSH2 0x18A5 JUMP JUMPDEST PUSH1 0x20 DUP3 ADD SWAP1 POP SWAP2 SWAP1 POP JUMP JUMPDEST PUSH0 PUSH1 0x20 DUP3 ADD SWAP1 POP DUP2 DUP2 SUB PUSH0 DUP4 ADD MSTORE PUSH2 0x1906 DUP2 PUSH2 0x18CD JUMP JUMPDEST SWAP1 POP SWAP2 SWAP1 POP JUMP JUMPDEST PUSH0 PUSH2 0x1917 DUP3 PUSH2 0xD6C JUMP JUMPDEST SWAP2 POP PUSH0 DUP3 SUB PUSH2 0x1929 JUMPI PUSH2 0x1928 PUSH2 0x14D0 JUMP JUMPDEST JUMPDEST PUSH1 0x1 DUP3 SUB SWAP1 POP SWAP2 SWAP1 POP JUMP INVALID LOG2 PUSH5 0x6970667358 0x22 SLT KECCAK256 0xB4 0x1E 0xBA SWAP11 RETURNDATASIZE 0xB4 PUSH27 0x2D2E1B0C70B680AECB4937454965BF44D31282E9E104564D2D6473 PUSH16 0x6C634300081A00330000000000000000 "
				},
				"gasEstimates": {
					"creation": {
						"codeDepositCost": "1301200",
						"executionCost": "49885",
						"totalCost": "1351085"
					},
					"external": {
						"MAX_TWEET_LENGTH()": "2463",
						"changeTweetLength(uint16)": "26887",
						"createTweet(string)": "infinite",
						"getAllTweets(address)": "infinite",
						"getTweet(uint256)": "infinite",
						"likeTweet(address,uint256)": "infinite",
						"owner()": "2552",
						"tweets(address,uint256)": "infinite",
						"unLikeTweet(address,uint256)": "infinite"
					}
				},
				"methodIdentifiers": {
					"MAX_TWEET_LENGTH()": "6eb10797",
					"changeTweetLength(uint16)": "58bfa4ab",
					"createTweet(string)": "7c9cd2bc",
					"getAllTweets(address)": "12e7ee1c",
					"getTweet(uint256)": "c3ad5ecb",
					"likeTweet(address,uint256)": "63378216",
					"owner()": "8da5cb5b",
					"tweets(address,uint256)": "05a1b4a9",
					"unLikeTweet(address,uint256)": "9ef8633f"
				}
			},
			"storageLayout": {
				"storage": [
					{
						"astId": 4,
						"contract": "contract/twitter.sol:Twitter",
						"label": "MAX_TWEET_LENGTH",
						"offset": 0,
						"slot": "0",
						"type": "t_uint16"
					},
					{
						"astId": 21,
						"contract": "contract/twitter.sol:Twitter",
						"label": "tweets",
						"offset": 0,
						"slot": "1",
						"type": "t_mapping(t_address,t_array(t_struct(Tweet)15_storage)dyn_storage)"
					},
					{
						"astId": 23,
						"contract": "contract/twitter.sol:Twitter",
						"label": "owner",
						"offset": 0,
						"slot": "2",
						"type": "t_address"
					}
				],
				"types": {
					"t_address": {
						"encoding": "inplace",
						"label": "address",
						"numberOfBytes": "20"
					},
					"t_array(t_struct(Tweet)15_storage)dyn_storage": {
						"base": "t_struct(Tweet)15_storage",
						"encoding": "dynamic_array",
						"label": "struct Twitter.Tweet[]",
						"numberOfBytes": "32"
					},
					"t_mapping(t_address,t_array(t_struct(Tweet)15_storage)dyn_storage)": {
						"encoding": "mapping",
						"key": "t_address",
						"label": "mapping(address => struct Twitter.Tweet[])",
						"numberOfBytes": "32",
						"value": "t_array(t_struct(Tweet)15_storage)dyn_storage"
					},
					"t_string_storage": {
						"encoding": "bytes",
						"label": "string",
						"numberOfBytes": "32"
					},
					"t_struct(Tweet)15_storage": {
						"encoding": "inplace",
						"label": "struct Twitter.Tweet",
						"members": [
							{
								"astId": 6,
								"contract": "contract/twitter.sol:Twitter",
								"label": "id",
								"offset": 0,
								"slot": "0",
								"type": "t_uint256"
							},
							{
								"astId": 8,
								"contract": "contract/twitter.sol:Twitter",
								"label": "author",
								"offset": 0,
								"slot": "1",
								"type": "t_address"
							},
							{
								"astId": 10,
								"contract": "contract/twitter.sol:Twitter",
								"label": "content",
								"offset": 0,
								"slot": "2",
								"type": "t_string_storage"
							},
							{
								"astId": 12,
								"contract": "contract/twitter.sol:Twitter",
								"label": "timestamp",
								"offset": 0,
								"slot": "3",
								"type": "t_uint256"
							},
							{
								"astId": 14,
								"contract": "contract/twitter.sol:Twitter",
								"label": "likes",
								"offset": 0,
								"slot": "4",
								"type": "t_uint256"
							}
						],
						"numberOfBytes": "160"
					},
					"t_uint16": {
						"encoding": "inplace",
						"label": "uint16",
						"numberOfBytes": "2"
					},
					"t_uint256": {
						"encoding": "inplace",
						"label": "uint256",
						"numberOfBytes": "32"
					}
				}
			},
			"userdoc": {
				"kind": "user",
				"methods": {},
				"version": 1
			}
		}
	}
}